{
  "_format": "hh-sol-artifact-1",
  "contractName": "TreasureMetadata",
  "sourceName": "contracts/TreasureMetadata.sol",
  "abi": [
    {
      "inputs": [
        {
          "components": [
            {
              "internalType": "string[]",
              "name": "title",
              "type": "string[]"
            },
            {
              "internalType": "uint32[]",
              "name": "weight",
              "type": "uint32[]"
            },
            {
              "internalType": "uint8[][]",
              "name": "extra",
              "type": "uint8[][]"
            },
            {
              "internalType": "uint8[][]",
              "name": "material",
              "type": "uint8[][]"
            }
          ],
          "internalType": "struct TreasureMetadata.Item",
          "name": "__head",
          "type": "tuple"
        },
        {
          "components": [
            {
              "internalType": "string[]",
              "name": "title",
              "type": "string[]"
            },
            {
              "internalType": "uint32[]",
              "name": "weight",
              "type": "uint32[]"
            },
            {
              "internalType": "uint8[][]",
              "name": "extra",
              "type": "uint8[][]"
            },
            {
              "internalType": "uint8[][]",
              "name": "material",
              "type": "uint8[][]"
            }
          ],
          "internalType": "struct TreasureMetadata.Item",
          "name": "__torso",
          "type": "tuple"
        },
        {
          "components": [
            {
              "internalType": "string[]",
              "name": "title",
              "type": "string[]"
            },
            {
              "internalType": "uint32[]",
              "name": "weight",
              "type": "uint32[]"
            },
            {
              "internalType": "uint8[][]",
              "name": "extra",
              "type": "uint8[][]"
            },
            {
              "internalType": "uint8[][]",
              "name": "material",
              "type": "uint8[][]"
            }
          ],
          "internalType": "struct TreasureMetadata.Item",
          "name": "__footwear",
          "type": "tuple"
        },
        {
          "components": [
            {
              "internalType": "string[]",
              "name": "title",
              "type": "string[]"
            },
            {
              "internalType": "uint32[]",
              "name": "weight",
              "type": "uint32[]"
            },
            {
              "internalType": "uint8[][]",
              "name": "extra",
              "type": "uint8[][]"
            },
            {
              "internalType": "uint8[][]",
              "name": "material",
              "type": "uint8[][]"
            }
          ],
          "internalType": "struct TreasureMetadata.Item",
          "name": "__bottoms",
          "type": "tuple"
        },
        {
          "components": [
            {
              "internalType": "string[]",
              "name": "title",
              "type": "string[]"
            },
            {
              "internalType": "uint32[]",
              "name": "weight",
              "type": "uint32[]"
            },
            {
              "internalType": "uint8[][]",
              "name": "extra",
              "type": "uint8[][]"
            },
            {
              "internalType": "uint8[][]",
              "name": "material",
              "type": "uint8[][]"
            }
          ],
          "internalType": "struct TreasureMetadata.Item",
          "name": "__weapon",
          "type": "tuple"
        },
        {
          "components": [
            {
              "internalType": "string[]",
              "name": "title",
              "type": "string[]"
            },
            {
              "internalType": "uint32[]",
              "name": "weight",
              "type": "uint32[]"
            },
            {
              "internalType": "uint8[][]",
              "name": "extra",
              "type": "uint8[][]"
            },
            {
              "internalType": "uint8[][]",
              "name": "material",
              "type": "uint8[][]"
            }
          ],
          "internalType": "struct TreasureMetadata.Item",
          "name": "__shield",
          "type": "tuple"
        },
        {
          "components": [
            {
              "internalType": "string[]",
              "name": "title",
              "type": "string[]"
            },
            {
              "internalType": "uint32[]",
              "name": "weight",
              "type": "uint32[]"
            },
            {
              "internalType": "uint8[][]",
              "name": "extra",
              "type": "uint8[][]"
            },
            {
              "internalType": "uint8[][]",
              "name": "material",
              "type": "uint8[][]"
            }
          ],
          "internalType": "struct TreasureMetadata.Item",
          "name": "__amulet",
          "type": "tuple"
        },
        {
          "components": [
            {
              "internalType": "string[]",
              "name": "title",
              "type": "string[]"
            },
            {
              "internalType": "uint32[]",
              "name": "weight",
              "type": "uint32[]"
            },
            {
              "internalType": "uint8[][]",
              "name": "extra",
              "type": "uint8[][]"
            },
            {
              "internalType": "uint8[][]",
              "name": "material",
              "type": "uint8[][]"
            }
          ],
          "internalType": "struct TreasureMetadata.Item",
          "name": "__possessive",
          "type": "tuple"
        },
        {
          "components": [
            {
              "internalType": "string[]",
              "name": "title",
              "type": "string[]"
            },
            {
              "internalType": "uint32[]",
              "name": "weight",
              "type": "uint32[]"
            },
            {
              "internalType": "uint8[][]",
              "name": "extra",
              "type": "uint8[][]"
            },
            {
              "internalType": "uint8[][]",
              "name": "material",
              "type": "uint8[][]"
            }
          ],
          "internalType": "struct TreasureMetadata.Item",
          "name": "__extra",
          "type": "tuple"
        },
        {
          "components": [
            {
              "internalType": "string[]",
              "name": "title",
              "type": "string[]"
            },
            {
              "internalType": "uint32[]",
              "name": "weight",
              "type": "uint32[]"
            },
            {
              "internalType": "uint8[][]",
              "name": "extra",
              "type": "uint8[][]"
            },
            {
              "internalType": "uint8[][]",
              "name": "material",
              "type": "uint8[][]"
            }
          ],
          "internalType": "struct TreasureMetadata.Item",
          "name": "__material",
          "type": "tuple"
        },
        {
          "components": [
            {
              "internalType": "string[]",
              "name": "title",
              "type": "string[]"
            },
            {
              "internalType": "uint32[]",
              "name": "weight",
              "type": "uint32[]"
            },
            {
              "internalType": "uint8[][]",
              "name": "extra",
              "type": "uint8[][]"
            },
            {
              "internalType": "uint8[][]",
              "name": "material",
              "type": "uint8[][]"
            }
          ],
          "internalType": "struct TreasureMetadata.Item",
          "name": "__tail",
          "type": "tuple"
        }
      ],
      "stateMutability": "nonpayable",
      "type": "constructor"
    },
    {
      "inputs": [
        {
          "internalType": "uint256",
          "name": "tokenId",
          "type": "uint256"
        }
      ],
      "name": "genTraits",
      "outputs": [
        {
          "internalType": "string[]",
          "name": "",
          "type": "string[]"
        }
      ],
      "stateMutability": "view",
      "type": "function"
    }
  ],
  "bytecode": "0x6001805462ffffff19166102bc1790556101e060405263030659236080908152630ae7953c60a052631c260e3d60c052633b1e04ac60e0526366333f066101005263973d64d06101205263c2529f2a6101405263e14a95996101605263f2890e9a6101805263fa6a4ab36101a05263fd70a3d66101c0526200008690600290600b620008d7565b506040805160a0810182526227ed32815263067df14b60208201526332d80df79181019190915263be147ae1606082015263fd70a3d66080820152620000d1906003906005620008d7565b506040805160e0810182526311006df3815263268a9159602082015263620817b091810191909152638a70132a606082015263e98c37c8608082015263f97627d260a082015263fd70a3d560c082015262000131906004906007620008d7565b503480156200013f57600080fd5b506040516200338238038062003382833981016040819052620001629162001024565b6200016d8b6200086f565b620001788a6200086f565b62000183896200086f565b6200018e886200086f565b62000199876200086f565b620001a4866200086f565b620001af856200086f565b620001ba846200086f565b620001c5836200086f565b620001d0826200086f565b620001db816200086f565b8a6000604051620001f690631211505160e21b815260040190565b90815260200160405180910390206000820151816000019080519060200190620002229291906200098d565b5060208281015180516200023d9260018501920190620008d7565b50604082015180516200025b916002840191602090910190620009ed565b506060820151805162000279916003840191602090910190620009ed565b50506040805164544f52534f60d81b81526000600582015290519081900360250190208b5180518d9350620002b7918391602091909101906200098d565b506020828101518051620002d29260018501920190620008d7565b5060408201518051620002f0916002840191602090910190620009ed565b50606082015180516200030e916003840191602090910190620009ed565b505060408051672327a7aa2ba2a0a960c11b81526000600882015290519081900360280190208a5180518c93506200034f918391602091909101906200098d565b5060208281015180516200036a9260018501920190620008d7565b506040820151805162000388916002840191602090910190620009ed565b5060608201518051620003a6916003840191602090910190620009ed565b50506040805166424f54544f4d5360c81b8152600060078201529051908190036027019020895180518b9350620003e6918391602091909101906200098d565b506020828101518051620004019260018501920190620008d7565b50604082015180516200041f916002840191602090910190620009ed565b50606082015180516200043d916003840191602090910190620009ed565b505060408051652ba2a0a827a760d11b8152600060068201529051908190036026019020885180518a93506200047c918391602091909101906200098d565b506020828101518051620004979260018501920190620008d7565b5060408201518051620004b5916002840191602090910190620009ed565b5060608201518051620004d3916003840191602090910190620009ed565b5050604080516514d21251531160d21b81526000600682015290519081900360260190208751805189935062000512918391602091909101906200098d565b5060208281015180516200052d9260018501920190620008d7565b50604082015180516200054b916002840191602090910190620009ed565b506060820151805162000569916003840191602090910190620009ed565b5050604080516510535553115560d21b815260006006820152905190819003602601902086518051889350620005a8918391602091909101906200098d565b506020828101518051620005c39260018501920190620008d7565b5060408201518051620005e1916002840191602090910190620009ed565b5060608201518051620005ff916003840191602090910190620009ed565b50506040805169504f535345535349564560b01b81526000600a820152905190819003602a0190208551805187935062000642918391602091909101906200098d565b5060208281015180516200065d9260018501920190620008d7565b50604082015180516200067b916002840191602090910190620009ed565b506060820151805162000699916003840191602090910190620009ed565b50506040805164455854524160d81b815260006005820152905190819003602501902084518051869350620006d7918391602091909101906200098d565b506020828101518051620006f29260018501920190620008d7565b506040820151805162000710916002840191602090910190620009ed565b50606082015180516200072e916003840191602090910190620009ed565b50506040805167135055115492505360c21b8152600060088201529051908190036028019020835180518593506200076f918391602091909101906200098d565b5060208281015180516200078a9260018501920190620008d7565b5060408201518051620007a8916002840191602090910190620009ed565b5060608201518051620007c6916003840191602090910190620009ed565b505060408051631510525360e21b81526000600482015290519081900360240190208251805184935062000803918391602091909101906200098d565b5060208281015180516200081e9260018501920190620008d7565b50604082015180516200083c916002840191602090910190620009ed565b50606082015180516200085a916003840191602090910190620009ed565b50905050505050505050505050505062001280565b80515115801590620008875750602081015151815151145b8015620008ca5750805151604082015151148015620008ac5750805151606082015151145b80620008ca5750604081015151158015620008ca5750606081015151155b620008d457600080fd5b50565b828054828255906000526020600020906007016008900481019282156200097b5791602002820160005b838211156200094757835183826101000a81548163ffffffff021916908363ffffffff160217905550926020019260040160208160030104928301926001030262000901565b8015620009795782816101000a81549063ffffffff021916905560040160208160030104928301926001030262000947565b505b506200098992915062000a4d565b5090565b828054828255906000526020600020908101928215620009df579160200282015b82811115620009df5782518051620009ce91849160209091019062000a64565b5091602001919060010190620009ae565b506200098992915062000ae1565b82805482825590600052602060002090810192821562000a3f579160200282015b8281111562000a3f578251805162000a2e91849160209091019062000b02565b509160200191906001019062000a0e565b506200098992915062000b9b565b5b8082111562000989576000815560010162000a4e565b82805462000a729062001244565b90600052602060002090601f01602090048101928262000a9657600085556200097b565b82601f1062000ab157805160ff19168380011785556200097b565b828001600101855582156200097b579182015b828111156200097b57825182559160200191906001019062000ac4565b808211156200098957600062000af8828262000bbc565b5060010162000ae1565b82805482825590600052602060002090601f016020900481019282156200097b5791602002820160005b8382111562000b6c57835183826101000a81548160ff021916908360ff160217905550926020019260010160208160000104928301926001030262000b2c565b8015620009795782816101000a81549060ff021916905560010160208160000104928301926001030262000b6c565b808211156200098957600062000bb2828262000bfb565b5060010162000b9b565b50805462000bca9062001244565b6000825580601f1062000bdb575050565b601f016020900490600052602060002090810190620008d4919062000a4d565b50805460008255601f016020900490600052602060002090810190620008d4919062000a4d565b634e487b7160e01b600052604160045260246000fd5b604051608081016001600160401b038111828210171562000c5d5762000c5d62000c22565b60405290565b604051601f8201601f191681016001600160401b038111828210171562000c8e5762000c8e62000c22565b604052919050565b60006001600160401b0382111562000cb25762000cb262000c22565b5060051b60200190565b6000601f838184011262000ccf57600080fd5b8251602062000ce862000ce28362000c96565b62000c63565b82815260059290921b8501810191818101908784111562000d0857600080fd5b8287015b8481101562000dcc5780516001600160401b038082111562000d2e5760008081fd5b818a0191508a603f83011262000d445760008081fd5b858201518181111562000d5b5762000d5b62000c22565b62000d6e818a01601f1916880162000c63565b915080825260408c8183860101111562000d885760008081fd5b60005b8281101562000da8578481018201518482018a0152880162000d8b565b8281111562000dba5760008984860101525b50505084525091830191830162000d0c565b50979650505050505050565b600082601f83011262000dea57600080fd5b8151602062000dfd62000ce28362000c96565b82815260059290921b8401810191818101908684111562000e1d57600080fd5b8286015b8481101562000e4e57805163ffffffff8116811462000e405760008081fd5b835291830191830162000e21565b509695505050505050565b600082601f83011262000e6b57600080fd5b8151602062000e7e62000ce28362000c96565b828152600592831b850182019282820191908785111562000e9e57600080fd5b8387015b8581101562000f4f5780516001600160401b0381111562000ec35760008081fd5b8801603f81018a1362000ed65760008081fd5b85810151604062000eeb62000ce28362000c96565b82815291851b8301810191888101908d84111562000f095760008081fd5b938201935b8385101562000f3d578451925060ff8316831462000f2c5760008081fd5b828252938901939089019062000f0e565b88525050509385019350840162000ea2565b5090979650505050505050565b60006080828403121562000f6f57600080fd5b62000f7962000c38565b82519091506001600160401b038082111562000f9457600080fd5b62000fa28583860162000cbc565b8352602084015191508082111562000fb957600080fd5b62000fc78583860162000dd8565b6020840152604084015191508082111562000fe157600080fd5b62000fef8583860162000e59565b604084015260608401519150808211156200100957600080fd5b50620010188482850162000e59565b60608301525092915050565b60008060008060008060008060008060006101608c8e0312156200104757600080fd5b8b516001600160401b038111156200105e57600080fd5b6200106c8e828f0162000f5c565b60208e0151909c5090506001600160401b038111156200108b57600080fd5b620010998e828f0162000f5c565b60408e0151909b5090506001600160401b03811115620010b857600080fd5b620010c68e828f0162000f5c565b60608e0151909a5090506001600160401b03811115620010e557600080fd5b620010f38e828f0162000f5c565b60808e015190995090506001600160401b038111156200111257600080fd5b620011208e828f0162000f5c565b60a08e015190985090506001600160401b038111156200113f57600080fd5b6200114d8e828f0162000f5c565b60c08e015190975090506001600160401b038111156200116c57600080fd5b6200117a8e828f0162000f5c565b60e08e015190965090506001600160401b038111156200119957600080fd5b620011a78e828f0162000f5c565b6101008e015190955090506001600160401b03811115620011c757600080fd5b620011d58e828f0162000f5c565b6101208e015190945090506001600160401b03811115620011f557600080fd5b620012038e828f0162000f5c565b6101408e015190935090506001600160401b038111156200122357600080fd5b620012318e828f0162000f5c565b9150509295989b509295989b9093969950565b600181811c908216806200125957607f821691505b6020821081036200127a57634e487b7160e01b600052602260045260246000fd5b50919050565b6120f280620012906000396000f3fe608060405234801561001057600080fd5b506004361061002b5760003560e01c8063c05702cb14610030575b600080fd5b61004361003e366004611bd4565b610059565b6040516100509190611c1d565b60405180910390f35b606060006100668361011c565b90506000815167ffffffffffffffff81111561008457610084611c97565b6040519080825280602002602001820160405280156100b757816020015b60608152602001906001900390816100a25790505b50905060005b8251811015610114578281815181106100d8576100d8611cad565b6020026020010151600001518282815181106100f6576100f6611cad565b6020026020010181905250808061010c90611cd9565b9150506100bd565b509392505050565b606060006101d0600280548060200260200160405190810160405280929190818152602001828054801561019b57602002820191906000526020600020906000905b82829054906101000a900463ffffffff1663ffffffff168152602001906004019060208260030104928301926001038202915080841161015e5790505b50505050506101c96000604051806040016040528060058152602001644954454d5360d81b8152508761051c565b6000610583565b6101db906008611cf2565b905060006101e984836106ee565b9050818151146102365760405162461bcd60e51b815260206004820152601360248201527209ac2d2dc40d2e8cadae640dad2e6dac2e8c6d606b1b60448201526064015b60405180910390fd5b60008267ffffffffffffffff81111561025157610251611c97565b60405190808252806020026020018201604052801561029657816020015b604080518082019091526060808252602082015281526020019060019003908161026f5790505b50905060005b83811015610513578281815181106102b6576102b6611cad565b6020026020010151600003610316576102f46102d28783610835565b604051806040016040528060048152602001631219585960e21b81525061085e565b82828151811061030657610306611cad565b6020026020010181905250610501565b82818151811061032857610328611cad565b6020026020010151600103610367576102f461034487836108ab565b60405180604001604052806005815260200164546f72736f60d81b81525061085e565b82818151811061037957610379611cad565b60200260200101516002036103bb576102f461039587836108d5565b604051806040016040528060088152602001672337b7ba3bb2b0b960c11b81525061085e565b8281815181106103cd576103cd611cad565b602002602001015160030361040e576102f46103e98783610902565b60405180604001604052806007815260200166426f74746f6d7360c81b81525061085e565b82818151811061042057610420611cad565b6020026020010151600403610460576102f461043c878361092e565b604051806040016040528060068152602001652bb2b0b837b760d11b81525061085e565b82818151811061047257610472611cad565b60200260200101516005036104b2576102f461048e8783610959565b6040518060400160405280600681526020016514da1a595b1960d21b81525061085e565b6104e36104bf8783610984565b60405180604001604052806006815260200165105b5d5b195d60d21b81525061085e565b8282815181106104f5576104f5611cad565b60200260200101819052505b8061050b81611cd9565b91505061029c565b50949350505050565b6000610527846109af565b83610531846109af565b60405160200161054393929190611d0a565b60408051601f198184030181529082905261056091602001611d4d565b6040516020818303038152906040528051906020012060001c90505b9392505050565b600060128211806105945750600882105b61059e57816105a1565b60125b915060005b84518110156105c157806105b981611cd9565b9150506105a6565b50600084600186516105d39190611d69565b815181106105e3576105e3611cad565b602002602001015163ffffffff1690506000600460028560126106069190611d69565b6106109190611e64565b61061b60a985611e89565b6106259190611e9d565b901c905060008651826106389190611e9d565b6106429084611cf2565b61064c9087611ebc565b905060005b87518110156106bd57610665816001611cf2565b61066f9084611e9d565b88828151811061068157610681611cad565b602002602001015163ffffffff166106999190611cf2565b8210156106ab57935061057c92505050565b806106b581611cd9565b915050610651565b5060405162461bcd60e51b815260206004820152600560248201526422a92927a960d91b604482015260640161022d565b606060008267ffffffffffffffff81111561070b5761070b611c97565b604051908082528060200260200182016040528015610734578160200160208202803683370190505b50905060005b8381101561082b5760006107f860048054806020026020016040519081016040528092919081815260200182805480156107bf57602002820191906000526020600020906000905b82829054906101000a900463ffffffff1663ffffffff16815260200190600401906020826003010492830192600103820291508084116107825790505b50505050506101c98460016107d49190611cf2565b604051806040016040528060058152602001644d41494e5360d81b8152508a61051c565b90508083838151811061080d5761080d611cad565b6020908102919091010152508061082381611cd9565b91505061073a565b5090505b92915050565b606061057c8383604051806040016040528060048152602001631211505160e21b815250610ab8565b604080518082019091526060808252602082015260008284604051602001610887929190611ed0565b60408051601f19818403018152828201909152858252602082015291505092915050565b606061057c838360405180604001604052806005815260200164544f52534f60d81b815250610ab8565b606061057c8383604051806040016040528060088152602001672327a7aa2ba2a0a960c11b815250610ab8565b606061057c838360405180604001604052806007815260200166424f54544f4d5360c81b815250610ab8565b606061057c8383604051806040016040528060068152602001652ba2a0a827a760d11b815250610ab8565b606061057c83836040518060400160405280600681526020016514d21251531160d21b815250610ab8565b606061057c83836040518060400160405280600681526020016510535553115560d21b815250610ab8565b6060816000036109d65750506040805180820190915260018152600360fc1b602082015290565b8160005b8115610a0057806109ea81611cd9565b91506109f99050600a83611e89565b91506109da565b60008167ffffffffffffffff811115610a1b57610a1b611c97565b6040519080825280601f01601f191660200182016040528015610a45576020820181803683370190505b5090505b8415610ab057610a5a600183611d69565b9150610a67600a86611ebc565b610a72906030611cf2565b60f81b818381518110610a8757610a87611cad565b60200101906001600160f81b031916908160001a905350610aa9600a86611e89565b9450610a49565b949350505050565b60606000610b656002805480602002602001604051908101604052809291908181526020018280548015610b3757602002820191906000526020600020906000905b82829054906101000a900463ffffffff1663ffffffff1681526020019060040190602082600301049283019260010382029150808411610afa5790505b50505050506101c96000604051806040016040528060058152602001644954454d5360d81b8152508961051c565b610b70906008611cf2565b90506000610b7f85858861051c565b90506000610bb0866040518060400160405280600a815260200169504f535345535349564560b01b8152508961051c565b90506000610bdc8760405180604001604052806005815260200164455854524160d81b8152508a61051c565b90506000610c0b8860405180604001604052806008815260200167135055115492505360c21b8152508b61051c565b90506000610c3689604051806040016040528060048152602001631510525360e21b8152508c61051c565b90506000610cda60008a604051610c4d9190611d4d565b9081526040805191829003602090810183206001018054808302850183019093528284529190830182828015610cce57602002820191906000526020600020906000905b82829054906101000a900463ffffffff1663ffffffff1681526020019060040190602082600301049283019260010382029150808411610c915790505b50505050508789610583565b90506000808a604051610ced9190611d4d565b90815260200160405180910390206000018281548110610d0f57610d0f611cad565b906000526020600020018054610d2490611f43565b80601f0160208091040260200160405190810160405280929190818152602001828054610d5090611f43565b8015610d9d5780601f10610d7257610100808354040283529160200191610d9d565b820191906000526020600020905b815481529060010190602001808311610d8057829003601f168201915b505050505090506000610db18b8e8e6112dd565b90508051600003610dcc5750975061057c9650505050505050565b60408051600580825260c08201909252600091816020015b6060815260200190600190039081610de45790505090508281600381518110610e0f57610e0f611cad565b602002602001018190525060005b825181101561123c57828181518110610e3857610e38611cad565b6020026020010151600703610f735760405169504f535345535349564560b01b8152600090600a0190815260405190819003602001812069504f535345535349564560b01b825290610f1790600090600a019081526040805191829003602090810183206001018054808302850183019093528284529190830182828015610f0b57602002820191906000526020600020906000905b82829054906101000a900463ffffffff1663ffffffff1681526020019060040190602082600301049283019260010382029150808411610ece5790505b50505050508b8e610583565b81548110610f2757610f27611cad565b90600052602060002001604051602001610f419190612016565b60405160208183030381529060405282600081518110610f6357610f63611cad565b602002602001018190525061122a565b828181518110610f8557610f85611cad565b6020026020010151600803611037576000610fbe8e60405180604001604052806005815260200164455854524160d81b81525088611641565b90508060000151610fdc610fd58360200151611a5a565b8b8f610583565b81518110610fec57610fec611cad565b60200260200101516040516020016110049190612033565b6040516020818303038152906040528360018151811061102657611026611cad565b60200260200101819052505061122a565b82818151811061104957611049611cad565b60200260200101516009036110ed5760006110858e60405180604001604052806008815260200167135055115492505360c21b81525088611641565b905080600001516110a361109c8360200151611a5a565b8a8f610583565b815181106110b3576110b3611cad565b60200260200101516040516020016110cb9190612033565b6040516020818303038152906040528360028151811061102657611026611cad565b8281815181106110ff576110ff611cad565b6020026020010151600a0361122a57604051631510525360e21b8152600090600401908152604051908190036020018120631510525360e21b8252906111d29060009060040190815260408051918290036020908101832060010180548083028501830190935282845291908301828280156111c657602002820191906000526020600020906000905b82829054906101000a900463ffffffff1663ffffffff16815260200190600401906020826003010492830192600103820291508084116111895790505b5050505050888e610583565b815481106111e2576111e2611cad565b906000526020600020016040516020016111fc9190612058565b6040516020818303038152906040528260048151811061121e5761121e611cad565b60200260200101819052505b8061123481611cd9565b915050610e1d565b50604080516020810190915260008082525b82518110156112ca57600083828151811061126b5761126b611cad565b60200260200101515111156112b8578183828151811061128d5761128d611cad565b60200260200101516040516020016112a692919061206e565b60405160208183030381529060405291505b806112c281611cd9565b91505061124e565b509e9d5050505050505050505050505050565b60606000611388600380548060200260200160405190810160405280929190818152602001828054801561135c57602002820191906000526020600020906000905b82829054906101000a900463ffffffff1663ffffffff168152602001906004019060208260030104928301926001038202915080841161131f5790505b50505050506101c985604051806040016040528060048152602001634d4f445360e01b8152508861051c565b905060008167ffffffffffffffff8111156113a5576113a5611c97565b6040519080825280602002602001820160405280156113ce578160200160208202803683370190505b5060408051600480825260a08201909252919250600091906020820160808036833701905050905060006040516114159069504f535345535349564560b01b8152600a0190565b9081526040519081900360200190206001015461143590620f4240611e9d565b8160008151811061144857611448611cad565b602002602001019063ffffffff16908163ffffffff16815250506000876040516114729190611d4d565b9081526040519081900360200190206002015461149290620f4240611e9d565b816001815181106114a5576114a5611cad565b602002602001019063ffffffff16908163ffffffff16815250506000876040516114cf9190611d4d565b908152604051908190036020019020600301546114ef90620f4240611e9d565b8160028151811061150257611502611cad565b63ffffffff90921660209283029190910190910152604051631510525360e21b81526000906004019081526040519081900360200190206001015461154a90620f4240611e9d565b8160038151811061155d5761155d611cad565b602002602001019063ffffffff16908163ffffffff168152505060005b838110156116355760006115b9611592836001611cf2565b6040518060400160405280600881526020016726a7a224a324a2a960c11b8152508a61051c565b905060006115d16115c985611a5a565b836000610583565b90506115de816007611cf2565b8584815181106115f0576115f0611cad565b60200260200101818152505083818151811061160e5761160e611cad565b60200260200101600063ffffffff168152505050808061162d90611cd9565b91505061157a565b50909695505050505050565b61166c6040518060800160405280606081526020016060815260200160608152602001606081525090565b60006116958460405180604001604052806005815260200164455854524160d81b815250611b7b565b6116da576000856040516116a99190611d4d565b908152602001604051809103902060030183815481106116cb576116cb611cad565b90600052602060002001611717565b6000856040516116ea9190611d4d565b9081526020016040518091039020600201838154811061170c5761170c611cad565b906000526020600020015b80548060200260200160405190810160405280929190818152602001828054801561177f57602002820191906000526020600020906000905b825461010083900a900460ff168152602060019283018181049485019490930390920291018084116117505790505b5050505050905060006040518060800160405280835167ffffffffffffffff8111156117ad576117ad611c97565b6040519080825280602002602001820160405280156117e057816020015b60608152602001906001900390816117cb5790505b508152602001835167ffffffffffffffff81111561180057611800611c97565b604051908082528060200260200182016040528015611829578160200160208202803683370190505b508152602001600060405190808252806020026020018201604052801561186457816020015b606081526020019060019003908161184f5790505b508152602001600060405190808252806020026020018201604052801561189f57816020015b606081526020019060019003908161188a5790505b509052905060005b8251811015611a505760008382815181106118c4576118c4611cad565b602002602001015190506000876040516118de9190611d4d565b90815260200160405180910390206000018160ff168154811061190357611903611cad565b90600052602060002001805461191890611f43565b80601f016020809104026020016040519081016040528092919081815260200182805461194490611f43565b80156119915780601f1061196657610100808354040283529160200191611991565b820191906000526020600020905b81548152906001019060200180831161197457829003601f168201915b5050505050836000015183815181106119ac576119ac611cad565b60200260200101819052506000876040516119c79190611d4d565b90815260200160405180910390206001018160ff16815481106119ec576119ec611cad565b90600052602060002090600891828204019190066004029054906101000a900463ffffffff1683602001518381518110611a2857611a28611cad565b63ffffffff909216602092830291909101909101525080611a4881611cd9565b9150506118a7565b5095945050505050565b6060600080835167ffffffffffffffff811115611a7957611a79611c97565b604051908082528060200260200182016040528015611aa2578160200160208202803683370190505b50905060005b84518110156101145763ffffffff8016858281518110611aca57611aca611cad565b602002602001015184611add919061209d565b63ffffffff1610611b1a5760405162461bcd60e51b8152602060048201526007602482015266546f6f2042696760c81b604482015260640161022d565b848181518110611b2c57611b2c611cad565b602002602001015183611b3f919061209d565b925082828281518110611b5457611b54611cad565b63ffffffff9092166020928302919091019091015280611b7381611cd9565b915050611aa8565b600081604051602001611b8e9190611d4d565b6040516020818303038152906040528051906020012083604051602001611bb59190611d4d565b6040516020818303038152906040528051906020012014905092915050565b600060208284031215611be657600080fd5b5035919050565b60005b83811015611c08578181015183820152602001611bf0565b83811115611c17576000848401525b50505050565b6000602080830181845280855180835260408601915060408160051b870101925083870160005b82811015611c8a57878503603f1901845281518051808752611c6b818989018a8501611bed565b601f01601f191695909501860194509285019290850190600101611c44565b5092979650505050505050565b634e487b7160e01b600052604160045260246000fd5b634e487b7160e01b600052603260045260246000fd5b634e487b7160e01b600052601160045260246000fd5b600060018201611ceb57611ceb611cc3565b5060010190565b60008219821115611d0557611d05611cc3565b500190565b60008451611d1c818460208901611bed565b845190830190611d30818360208901611bed565b8451910190611d43818360208801611bed565b0195945050505050565b60008251611d5f818460208701611bed565b9190910192915050565b600082821015611d7b57611d7b611cc3565b500390565b600181815b80851115611dbb578160001904821115611da157611da1611cc3565b80851615611dae57918102915b93841c9390800290611d85565b509250929050565b600082611dd25750600161082f565b81611ddf5750600061082f565b8160018114611df55760028114611dff57611e1b565b600191505061082f565b60ff841115611e1057611e10611cc3565b50506001821b61082f565b5060208310610133831016604e8410600b8410161715611e3e575081810a61082f565b611e488383611d80565b8060001904821115611e5c57611e5c611cc3565b029392505050565b600061057c60ff841683611dc3565b634e487b7160e01b600052601260045260246000fd5b600082611e9857611e98611e73565b500490565b6000816000190483118215151615611eb757611eb7611cc3565b500290565b600082611ecb57611ecb611e73565b500690565b6f3d913a3930b4ba2fba3cb832911d101160811b81528251600090611efc816010850160208801611bed565b6b1116113b30b63ab2911d101160a11b6010918401918201528351611f2881601c840160208801611bed565b61227d60f01b601c9290910191820152601e01949350505050565b600181811c90821680611f5757607f821691505b602082108103611f7757634e487b7160e01b600052602260045260246000fd5b50919050565b8054600090600181811c9080831680611f9757607f831692505b60208084108203611fb857634e487b7160e01b600052602260045260246000fd5b818015611fcc5760018114611fdd5761200a565b60ff1986168952848901965061200a565b60008881526020902060005b868110156120025781548b820152908501908301611fe9565b505084890196505b50505050505092915050565b60006120228284611f7d565b600160fd1b81526001019392505050565b60008251612045818460208701611bed565b600160fd1b920191825250600101919050565b600160fd1b8152600061057c6001830184611f7d565b60008351612080818460208801611bed565b835190830190612094818360208801611bed565b01949350505050565b600063ffffffff80831681851680830382111561209457612094611cc356fea2646970667358221220753858786a83e2dda292d75b4c147689fca3b985126894c819480c8a35c5a0fa64736f6c634300080d0033",
  "linkReferences": {},
  "deployedLinkReferences": {}
}