{
  "_format": "hh-sol-artifact-1",
  "contractName": "Treasure",
  "sourceName": "contracts/Treasure.sol",
  "abi": [
    {
      "inputs": [
        {
          "components": [
            {
              "internalType": "string[]",
              "name": "title",
              "type": "string[]"
            },
            {
              "internalType": "uint32[]",
              "name": "weight",
              "type": "uint32[]"
            },
            {
              "internalType": "uint8[][]",
              "name": "extra",
              "type": "uint8[][]"
            },
            {
              "internalType": "uint8[][]",
              "name": "material",
              "type": "uint8[][]"
            }
          ],
          "internalType": "struct TreasureMetadata.Item",
          "name": "__head",
          "type": "tuple"
        },
        {
          "components": [
            {
              "internalType": "string[]",
              "name": "title",
              "type": "string[]"
            },
            {
              "internalType": "uint32[]",
              "name": "weight",
              "type": "uint32[]"
            },
            {
              "internalType": "uint8[][]",
              "name": "extra",
              "type": "uint8[][]"
            },
            {
              "internalType": "uint8[][]",
              "name": "material",
              "type": "uint8[][]"
            }
          ],
          "internalType": "struct TreasureMetadata.Item",
          "name": "__torso",
          "type": "tuple"
        },
        {
          "components": [
            {
              "internalType": "string[]",
              "name": "title",
              "type": "string[]"
            },
            {
              "internalType": "uint32[]",
              "name": "weight",
              "type": "uint32[]"
            },
            {
              "internalType": "uint8[][]",
              "name": "extra",
              "type": "uint8[][]"
            },
            {
              "internalType": "uint8[][]",
              "name": "material",
              "type": "uint8[][]"
            }
          ],
          "internalType": "struct TreasureMetadata.Item",
          "name": "__footwear",
          "type": "tuple"
        },
        {
          "components": [
            {
              "internalType": "string[]",
              "name": "title",
              "type": "string[]"
            },
            {
              "internalType": "uint32[]",
              "name": "weight",
              "type": "uint32[]"
            },
            {
              "internalType": "uint8[][]",
              "name": "extra",
              "type": "uint8[][]"
            },
            {
              "internalType": "uint8[][]",
              "name": "material",
              "type": "uint8[][]"
            }
          ],
          "internalType": "struct TreasureMetadata.Item",
          "name": "__bottoms",
          "type": "tuple"
        },
        {
          "components": [
            {
              "internalType": "string[]",
              "name": "title",
              "type": "string[]"
            },
            {
              "internalType": "uint32[]",
              "name": "weight",
              "type": "uint32[]"
            },
            {
              "internalType": "uint8[][]",
              "name": "extra",
              "type": "uint8[][]"
            },
            {
              "internalType": "uint8[][]",
              "name": "material",
              "type": "uint8[][]"
            }
          ],
          "internalType": "struct TreasureMetadata.Item",
          "name": "__weapon",
          "type": "tuple"
        },
        {
          "components": [
            {
              "internalType": "string[]",
              "name": "title",
              "type": "string[]"
            },
            {
              "internalType": "uint32[]",
              "name": "weight",
              "type": "uint32[]"
            },
            {
              "internalType": "uint8[][]",
              "name": "extra",
              "type": "uint8[][]"
            },
            {
              "internalType": "uint8[][]",
              "name": "material",
              "type": "uint8[][]"
            }
          ],
          "internalType": "struct TreasureMetadata.Item",
          "name": "__shield",
          "type": "tuple"
        },
        {
          "components": [
            {
              "internalType": "string[]",
              "name": "title",
              "type": "string[]"
            },
            {
              "internalType": "uint32[]",
              "name": "weight",
              "type": "uint32[]"
            },
            {
              "internalType": "uint8[][]",
              "name": "extra",
              "type": "uint8[][]"
            },
            {
              "internalType": "uint8[][]",
              "name": "material",
              "type": "uint8[][]"
            }
          ],
          "internalType": "struct TreasureMetadata.Item",
          "name": "__amulet",
          "type": "tuple"
        },
        {
          "components": [
            {
              "internalType": "string[]",
              "name": "title",
              "type": "string[]"
            },
            {
              "internalType": "uint32[]",
              "name": "weight",
              "type": "uint32[]"
            },
            {
              "internalType": "uint8[][]",
              "name": "extra",
              "type": "uint8[][]"
            },
            {
              "internalType": "uint8[][]",
              "name": "material",
              "type": "uint8[][]"
            }
          ],
          "internalType": "struct TreasureMetadata.Item",
          "name": "__possessive",
          "type": "tuple"
        },
        {
          "components": [
            {
              "internalType": "string[]",
              "name": "title",
              "type": "string[]"
            },
            {
              "internalType": "uint32[]",
              "name": "weight",
              "type": "uint32[]"
            },
            {
              "internalType": "uint8[][]",
              "name": "extra",
              "type": "uint8[][]"
            },
            {
              "internalType": "uint8[][]",
              "name": "material",
              "type": "uint8[][]"
            }
          ],
          "internalType": "struct TreasureMetadata.Item",
          "name": "__extra",
          "type": "tuple"
        },
        {
          "components": [
            {
              "internalType": "string[]",
              "name": "title",
              "type": "string[]"
            },
            {
              "internalType": "uint32[]",
              "name": "weight",
              "type": "uint32[]"
            },
            {
              "internalType": "uint8[][]",
              "name": "extra",
              "type": "uint8[][]"
            },
            {
              "internalType": "uint8[][]",
              "name": "material",
              "type": "uint8[][]"
            }
          ],
          "internalType": "struct TreasureMetadata.Item",
          "name": "__material",
          "type": "tuple"
        },
        {
          "components": [
            {
              "internalType": "string[]",
              "name": "title",
              "type": "string[]"
            },
            {
              "internalType": "uint32[]",
              "name": "weight",
              "type": "uint32[]"
            },
            {
              "internalType": "uint8[][]",
              "name": "extra",
              "type": "uint8[][]"
            },
            {
              "internalType": "uint8[][]",
              "name": "material",
              "type": "uint8[][]"
            }
          ],
          "internalType": "struct TreasureMetadata.Item",
          "name": "__tail",
          "type": "tuple"
        }
      ],
      "stateMutability": "nonpayable",
      "type": "constructor"
    },
    {
      "inputs": [],
      "name": "ApprovalCallerNotOwnerNorApproved",
      "type": "error"
    },
    {
      "inputs": [],
      "name": "ApprovalQueryForNonexistentToken",
      "type": "error"
    },
    {
      "inputs": [],
      "name": "ApprovalToCurrentOwner",
      "type": "error"
    },
    {
      "inputs": [],
      "name": "ApproveToCaller",
      "type": "error"
    },
    {
      "inputs": [],
      "name": "BalanceQueryForZeroAddress",
      "type": "error"
    },
    {
      "inputs": [],
      "name": "MintToZeroAddress",
      "type": "error"
    },
    {
      "inputs": [],
      "name": "MintZeroQuantity",
      "type": "error"
    },
    {
      "inputs": [],
      "name": "OwnerQueryForNonexistentToken",
      "type": "error"
    },
    {
      "inputs": [],
      "name": "TransferCallerNotOwnerNorApproved",
      "type": "error"
    },
    {
      "inputs": [],
      "name": "TransferFromIncorrectOwner",
      "type": "error"
    },
    {
      "inputs": [],
      "name": "TransferToNonERC721ReceiverImplementer",
      "type": "error"
    },
    {
      "inputs": [],
      "name": "TransferToZeroAddress",
      "type": "error"
    },
    {
      "inputs": [],
      "name": "URIQueryForNonexistentToken",
      "type": "error"
    },
    {
      "anonymous": false,
      "inputs": [
        {
          "indexed": true,
          "internalType": "address",
          "name": "owner",
          "type": "address"
        },
        {
          "indexed": true,
          "internalType": "address",
          "name": "approved",
          "type": "address"
        },
        {
          "indexed": true,
          "internalType": "uint256",
          "name": "tokenId",
          "type": "uint256"
        }
      ],
      "name": "Approval",
      "type": "event"
    },
    {
      "anonymous": false,
      "inputs": [
        {
          "indexed": true,
          "internalType": "address",
          "name": "owner",
          "type": "address"
        },
        {
          "indexed": true,
          "internalType": "address",
          "name": "operator",
          "type": "address"
        },
        {
          "indexed": false,
          "internalType": "bool",
          "name": "approved",
          "type": "bool"
        }
      ],
      "name": "ApprovalForAll",
      "type": "event"
    },
    {
      "anonymous": false,
      "inputs": [
        {
          "indexed": true,
          "internalType": "address",
          "name": "previousOwner",
          "type": "address"
        },
        {
          "indexed": true,
          "internalType": "address",
          "name": "newOwner",
          "type": "address"
        }
      ],
      "name": "OwnershipTransferred",
      "type": "event"
    },
    {
      "anonymous": false,
      "inputs": [
        {
          "indexed": false,
          "internalType": "address",
          "name": "account",
          "type": "address"
        },
        {
          "indexed": false,
          "internalType": "uint256",
          "name": "shares",
          "type": "uint256"
        }
      ],
      "name": "PayeeAdded",
      "type": "event"
    },
    {
      "anonymous": false,
      "inputs": [
        {
          "indexed": false,
          "internalType": "address",
          "name": "from",
          "type": "address"
        },
        {
          "indexed": false,
          "internalType": "uint256",
          "name": "amount",
          "type": "uint256"
        }
      ],
      "name": "PaymentReceived",
      "type": "event"
    },
    {
      "anonymous": false,
      "inputs": [
        {
          "indexed": false,
          "internalType": "address",
          "name": "to",
          "type": "address"
        },
        {
          "indexed": false,
          "internalType": "uint256",
          "name": "amount",
          "type": "uint256"
        }
      ],
      "name": "PaymentReleased",
      "type": "event"
    },
    {
      "anonymous": false,
      "inputs": [
        {
          "indexed": true,
          "internalType": "address",
          "name": "from",
          "type": "address"
        },
        {
          "indexed": true,
          "internalType": "address",
          "name": "to",
          "type": "address"
        },
        {
          "indexed": true,
          "internalType": "uint256",
          "name": "tokenId",
          "type": "uint256"
        }
      ],
      "name": "Transfer",
      "type": "event"
    },
    {
      "inputs": [
        {
          "internalType": "address",
          "name": "to",
          "type": "address"
        },
        {
          "internalType": "uint256",
          "name": "tokenId",
          "type": "uint256"
        }
      ],
      "name": "approve",
      "outputs": [],
      "stateMutability": "nonpayable",
      "type": "function"
    },
    {
      "inputs": [
        {
          "internalType": "address",
          "name": "owner",
          "type": "address"
        }
      ],
      "name": "balanceOf",
      "outputs": [
        {
          "internalType": "uint256",
          "name": "",
          "type": "uint256"
        }
      ],
      "stateMutability": "view",
      "type": "function"
    },
    {
      "inputs": [],
      "name": "contractURI",
      "outputs": [
        {
          "internalType": "string",
          "name": "",
          "type": "string"
        }
      ],
      "stateMutability": "view",
      "type": "function"
    },
    {
      "inputs": [],
      "name": "flipSaleState",
      "outputs": [],
      "stateMutability": "nonpayable",
      "type": "function"
    },
    {
      "inputs": [
        {
          "internalType": "uint256",
          "name": "tokenId",
          "type": "uint256"
        }
      ],
      "name": "getApproved",
      "outputs": [
        {
          "internalType": "address",
          "name": "",
          "type": "address"
        }
      ],
      "stateMutability": "view",
      "type": "function"
    },
    {
      "inputs": [
        {
          "internalType": "address",
          "name": "owner",
          "type": "address"
        },
        {
          "internalType": "address",
          "name": "operator",
          "type": "address"
        }
      ],
      "name": "isApprovedForAll",
      "outputs": [
        {
          "internalType": "bool",
          "name": "",
          "type": "bool"
        }
      ],
      "stateMutability": "view",
      "type": "function"
    },
    {
      "inputs": [],
      "name": "lockCanvasSize",
      "outputs": [],
      "stateMutability": "nonpayable",
      "type": "function"
    },
    {
      "inputs": [
        {
          "internalType": "uint256",
          "name": "numMints",
          "type": "uint256"
        }
      ],
      "name": "mintReserve",
      "outputs": [],
      "stateMutability": "nonpayable",
      "type": "function"
    },
    {
      "inputs": [
        {
          "internalType": "uint256",
          "name": "numMints",
          "type": "uint256"
        },
        {
          "internalType": "address",
          "name": "recipient",
          "type": "address"
        }
      ],
      "name": "mintReserveToAddress",
      "outputs": [],
      "stateMutability": "nonpayable",
      "type": "function"
    },
    {
      "inputs": [],
      "name": "name",
      "outputs": [
        {
          "internalType": "string",
          "name": "",
          "type": "string"
        }
      ],
      "stateMutability": "view",
      "type": "function"
    },
    {
      "inputs": [],
      "name": "owner",
      "outputs": [
        {
          "internalType": "address",
          "name": "",
          "type": "address"
        }
      ],
      "stateMutability": "view",
      "type": "function"
    },
    {
      "inputs": [
        {
          "internalType": "uint256",
          "name": "tokenId",
          "type": "uint256"
        }
      ],
      "name": "ownerOf",
      "outputs": [
        {
          "internalType": "address",
          "name": "",
          "type": "address"
        }
      ],
      "stateMutability": "view",
      "type": "function"
    },
    {
      "inputs": [
        {
          "internalType": "uint256",
          "name": "index",
          "type": "uint256"
        }
      ],
      "name": "payee",
      "outputs": [
        {
          "internalType": "address",
          "name": "",
          "type": "address"
        }
      ],
      "stateMutability": "view",
      "type": "function"
    },
    {
      "inputs": [
        {
          "internalType": "uint256",
          "name": "numMints",
          "type": "uint256"
        }
      ],
      "name": "plunder",
      "outputs": [],
      "stateMutability": "payable",
      "type": "function"
    },
    {
      "inputs": [],
      "name": "price",
      "outputs": [
        {
          "internalType": "uint256",
          "name": "",
          "type": "uint256"
        }
      ],
      "stateMutability": "pure",
      "type": "function"
    },
    {
      "inputs": [
        {
          "internalType": "address payable",
          "name": "account",
          "type": "address"
        }
      ],
      "name": "release",
      "outputs": [],
      "stateMutability": "nonpayable",
      "type": "function"
    },
    {
      "inputs": [
        {
          "internalType": "address",
          "name": "account",
          "type": "address"
        }
      ],
      "name": "released",
      "outputs": [
        {
          "internalType": "uint256",
          "name": "",
          "type": "uint256"
        }
      ],
      "stateMutability": "view",
      "type": "function"
    },
    {
      "inputs": [],
      "name": "renounceOwnership",
      "outputs": [],
      "stateMutability": "nonpayable",
      "type": "function"
    },
    {
      "inputs": [],
      "name": "reserved",
      "outputs": [
        {
          "internalType": "uint256",
          "name": "",
          "type": "uint256"
        }
      ],
      "stateMutability": "view",
      "type": "function"
    },
    {
      "inputs": [
        {
          "internalType": "address",
          "name": "from",
          "type": "address"
        },
        {
          "internalType": "address",
          "name": "to",
          "type": "address"
        },
        {
          "internalType": "uint256",
          "name": "tokenId",
          "type": "uint256"
        }
      ],
      "name": "safeTransferFrom",
      "outputs": [],
      "stateMutability": "nonpayable",
      "type": "function"
    },
    {
      "inputs": [
        {
          "internalType": "address",
          "name": "from",
          "type": "address"
        },
        {
          "internalType": "address",
          "name": "to",
          "type": "address"
        },
        {
          "internalType": "uint256",
          "name": "tokenId",
          "type": "uint256"
        },
        {
          "internalType": "bytes",
          "name": "_data",
          "type": "bytes"
        }
      ],
      "name": "safeTransferFrom",
      "outputs": [],
      "stateMutability": "nonpayable",
      "type": "function"
    },
    {
      "inputs": [
        {
          "internalType": "address",
          "name": "operator",
          "type": "address"
        },
        {
          "internalType": "bool",
          "name": "approved",
          "type": "bool"
        }
      ],
      "name": "setApprovalForAll",
      "outputs": [],
      "stateMutability": "nonpayable",
      "type": "function"
    },
    {
      "inputs": [
        {
          "internalType": "uint256",
          "name": "newSize",
          "type": "uint256"
        }
      ],
      "name": "setCanvasSize",
      "outputs": [],
      "stateMutability": "nonpayable",
      "type": "function"
    },
    {
      "inputs": [
        {
          "internalType": "string",
          "name": "__contractURI",
          "type": "string"
        }
      ],
      "name": "setContractURI",
      "outputs": [],
      "stateMutability": "nonpayable",
      "type": "function"
    },
    {
      "inputs": [
        {
          "internalType": "address",
          "name": "account",
          "type": "address"
        }
      ],
      "name": "shares",
      "outputs": [
        {
          "internalType": "uint256",
          "name": "",
          "type": "uint256"
        }
      ],
      "stateMutability": "view",
      "type": "function"
    },
    {
      "inputs": [],
      "name": "status",
      "outputs": [
        {
          "internalType": "bool",
          "name": "",
          "type": "bool"
        }
      ],
      "stateMutability": "view",
      "type": "function"
    },
    {
      "inputs": [
        {
          "internalType": "bytes4",
          "name": "interfaceId",
          "type": "bytes4"
        }
      ],
      "name": "supportsInterface",
      "outputs": [
        {
          "internalType": "bool",
          "name": "",
          "type": "bool"
        }
      ],
      "stateMutability": "view",
      "type": "function"
    },
    {
      "inputs": [],
      "name": "symbol",
      "outputs": [
        {
          "internalType": "string",
          "name": "",
          "type": "string"
        }
      ],
      "stateMutability": "view",
      "type": "function"
    },
    {
      "inputs": [
        {
          "internalType": "uint256",
          "name": "tokenId",
          "type": "uint256"
        }
      ],
      "name": "tokenURI",
      "outputs": [
        {
          "internalType": "string",
          "name": "",
          "type": "string"
        }
      ],
      "stateMutability": "view",
      "type": "function"
    },
    {
      "inputs": [],
      "name": "totalReleased",
      "outputs": [
        {
          "internalType": "uint256",
          "name": "",
          "type": "uint256"
        }
      ],
      "stateMutability": "view",
      "type": "function"
    },
    {
      "inputs": [],
      "name": "totalShares",
      "outputs": [
        {
          "internalType": "uint256",
          "name": "",
          "type": "uint256"
        }
      ],
      "stateMutability": "view",
      "type": "function"
    },
    {
      "inputs": [],
      "name": "totalSupply",
      "outputs": [
        {
          "internalType": "uint256",
          "name": "",
          "type": "uint256"
        }
      ],
      "stateMutability": "view",
      "type": "function"
    },
    {
      "inputs": [
        {
          "internalType": "address",
          "name": "from",
          "type": "address"
        },
        {
          "internalType": "address",
          "name": "to",
          "type": "address"
        },
        {
          "internalType": "uint256",
          "name": "tokenId",
          "type": "uint256"
        }
      ],
      "name": "transferFrom",
      "outputs": [],
      "stateMutability": "nonpayable",
      "type": "function"
    },
    {
      "inputs": [
        {
          "internalType": "address",
          "name": "newOwner",
          "type": "address"
        }
      ],
      "name": "transferOwnership",
      "outputs": [],
      "stateMutability": "nonpayable",
      "type": "function"
    },
    {
      "stateMutability": "payable",
      "type": "receive"
    }
  ],
  "bytecode": "0x6010805462ffffff19166102bc1790556101e060405263030659236080908152630ae7953c60a052631c260e3d60c052633b1e04ac60e0526366333f066101005263973d64d06101205263c2529f2a6101405263e14a95996101605263f2890e9a6101805263fa6a4ab36101a05263fd70a3d66101c0526200008690601190600b62000e6e565b506040805160a0810182526213f699815263067df14b60208201526332d80df79181019190915263be147ae1606082015263fd70a3d66080820152620000d190601290600562000e6e565b506040805160e0810182526311006df3815263268a9159602082015263620817b091810191909152638a70132a606082015263e98c37c8608082015263f97627d260a082015263fd70a3d560c08201526200013190601390600762000e6e565b5060408051608081018252734f65cdffe6c48ad287f005ad14e78ff6433c8d6781527349b621d1cc662ce293779ec775573d0568a0c7136020820152734427fcc55d41f5ed6989fc7c6ac1542653192b0591810191909152733b20f287b08f39c21d695500e08268c87ecaeb376060820152620001b390601490600462000f24565b506040805160808101825260148152600e602082015260219181018290526060810191909152620001e990601590600462000f7c565b506017805460ff1916905560006018553480156200020657600080fd5b50604051620061db380380620061db833981016040819052620002299162001656565b8a8a8a8a8a8a8a8a8a8a8a60148054806020026020016040519081016040528092919081815260200182805480156200028c57602002820191906000526020600020905b81546001600160a01b031681526001909101906020018083116200026d575b50505050506015805480602002602001604051908101604052809291908181526020018280548015620002df57602002820191906000526020600020905b815481526020019060010190808311620002ca575b5050604080518082018252601781527f54726561737572652028666f722057617272696f72732900000000000000000060208083019182528351808501909452600384526254345760e81b9084015281519195509193506200034692506002919062000fbf565b5080516200035c90600390602084019062000fbf565b50506001600055506200036f3362000bc6565b60016009558051825114620003e65760405162461bcd60e51b815260206004820152603260248201527f5061796d656e7453706c69747465723a2070617965657320616e6420736861726044820152710cae640d8cadccee8d040dad2e6dac2e8c6d60731b60648201526084015b60405180910390fd5b6000825111620004395760405162461bcd60e51b815260206004820152601a60248201527f5061796d656e7453706c69747465723a206e6f207061796565730000000000006044820152606401620003dd565b60005b8251811015620004a557620004908382815181106200045f576200045f62001876565b60200260200101518383815181106200047c576200047c62001876565b602002602001015162000c1860201b60201c565b806200049c81620018a2565b9150506200043c565b505050620004b98b62000e0660201b60201c565b620004c48a62000e06565b620004cf8962000e06565b620004da8862000e06565b620004e58762000e06565b620004f08662000e06565b620004fb8562000e06565b620005068462000e06565b620005118362000e06565b6200051c8262000e06565b620005278162000e06565b8a600f6040516200054290631211505160e21b815260040190565b908152602001604051809103902060008201518160000190805190602001906200056e9291906200103c565b50602082810151805162000589926001850192019062000e6e565b5060408201518051620005a79160028401916020909101906200109c565b5060608201518051620005c59160038401916020909101906200109c565b50506040805164544f52534f60d81b8152600f600582015290519081900360250190208b5180518d935062000603918391602091909101906200103c565b5060208281015180516200061e926001850192019062000e6e565b50604082015180516200063c9160028401916020909101906200109c565b50606082015180516200065a9160038401916020909101906200109c565b505060408051672327a7aa2ba2a0a960c11b8152600f600882015290519081900360280190208a5180518c93506200069b918391602091909101906200103c565b506020828101518051620006b6926001850192019062000e6e565b5060408201518051620006d49160028401916020909101906200109c565b5060608201518051620006f29160038401916020909101906200109c565b50506040805166424f54544f4d5360c81b8152600f60078201529051908190036027019020895180518b935062000732918391602091909101906200103c565b5060208281015180516200074d926001850192019062000e6e565b50604082015180516200076b9160028401916020909101906200109c565b5060608201518051620007899160038401916020909101906200109c565b505060408051652ba2a0a827a760d11b8152600f60068201529051908190036026019020885180518a9350620007c8918391602091909101906200103c565b506020828101518051620007e3926001850192019062000e6e565b5060408201518051620008019160028401916020909101906200109c565b50606082015180516200081f9160038401916020909101906200109c565b5050604080516514d21251531160d21b8152600f60068201529051908190036026019020875180518993506200085e918391602091909101906200103c565b50602082810151805162000879926001850192019062000e6e565b5060408201518051620008979160028401916020909101906200109c565b5060608201518051620008b59160038401916020909101906200109c565b5050604080516510535553115560d21b8152600f6006820152905190819003602601902086518051889350620008f4918391602091909101906200103c565b5060208281015180516200090f926001850192019062000e6e565b50604082015180516200092d9160028401916020909101906200109c565b50606082015180516200094b9160038401916020909101906200109c565b50506040805169504f535345535349564560b01b8152600f600a820152905190819003602a019020855180518793506200098e918391602091909101906200103c565b506020828101518051620009a9926001850192019062000e6e565b5060408201518051620009c79160028401916020909101906200109c565b5060608201518051620009e59160038401916020909101906200109c565b50506040805164455854524160d81b8152600f600582015290519081900360250190208451805186935062000a23918391602091909101906200103c565b50602082810151805162000a3e926001850192019062000e6e565b506040820151805162000a5c9160028401916020909101906200109c565b506060820151805162000a7a9160038401916020909101906200109c565b50506040805167135055115492505360c21b8152600f600882015290519081900360280190208351805185935062000abb918391602091909101906200103c565b50602082810151805162000ad6926001850192019062000e6e565b506040820151805162000af49160028401916020909101906200109c565b506060820151805162000b129160038401916020909101906200109c565b505060408051631510525360e21b8152600f600482015290519081900360240190208251805184935062000b4f918391602091909101906200103c565b50602082810151805162000b6a926001850192019062000e6e565b506040820151805162000b889160028401916020909101906200109c565b506060820151805162000ba69160038401916020909101906200109c565b509050505050505050505050505050505050505050505050505062001915565b600880546001600160a01b038381166001600160a01b0319831681179093556040519116919082907f8be0079c531659141344cd1fd0a4f28419497f9722a3daafe3b4186f6b6457e090600090a35050565b6001600160a01b03821662000c855760405162461bcd60e51b815260206004820152602c60248201527f5061796d656e7453706c69747465723a206163636f756e74206973207468652060448201526b7a65726f206164647265737360a01b6064820152608401620003dd565b6000811162000cd75760405162461bcd60e51b815260206004820152601d60248201527f5061796d656e7453706c69747465723a207368617265732061726520300000006044820152606401620003dd565b6001600160a01b0382166000908152600c60205260409020541562000d535760405162461bcd60e51b815260206004820152602b60248201527f5061796d656e7453706c69747465723a206163636f756e7420616c726561647960448201526a206861732073686172657360a81b6064820152608401620003dd565b600e8054600181019091557fbb7b4a454dc3493923482f07822329ed19e8244eff582cc204f8554c3620c3fd0180546001600160a01b0319166001600160a01b0384169081179091556000908152600c60205260409020819055600a5462000dbd908290620018be565b600a55604080516001600160a01b0384168152602081018390527f40c340f65e17194d14ddddb073d3c9f888e3cb52b5aae0c6c7706b4fbc905fac910160405180910390a15050565b8051511580159062000e1e5750602081015151815151145b801562000e61575080515160408201515114801562000e435750805151606082015151145b8062000e61575060408101515115801562000e615750606081015151155b62000e6b57600080fd5b50565b8280548282559060005260206000209060070160089004810192821562000f125791602002820160005b8382111562000ede57835183826101000a81548163ffffffff021916908363ffffffff160217905550926020019260040160208160030104928301926001030262000e98565b801562000f105782816101000a81549063ffffffff021916905560040160208160030104928301926001030262000ede565b505b5062000f20929150620010fc565b5090565b82805482825590600052602060002090810192821562000f12579160200282015b8281111562000f1257825182546001600160a01b0319166001600160a01b0390911617825560209092019160019091019062000f45565b82805482825590600052602060002090810192821562000f12579160200282015b8281111562000f12578251829060ff1690559160200191906001019062000f9d565b82805462000fcd90620018d9565b90600052602060002090601f01602090048101928262000ff1576000855562000f12565b82601f106200100c57805160ff191683800117855562000f12565b8280016001018555821562000f12579182015b8281111562000f125782518255916020019190600101906200101f565b8280548282559060005260206000209081019282156200108e579160200282015b828111156200108e57825180516200107d91849160209091019062000fbf565b50916020019190600101906200105d565b5062000f2092915062001113565b828054828255906000526020600020908101928215620010ee579160200282015b82811115620010ee5782518051620010dd91849160209091019062001134565b5091602001919060010190620010bd565b5062000f20929150620011cd565b5b8082111562000f205760008155600101620010fd565b8082111562000f205760006200112a8282620011ee565b5060010162001113565b82805482825590600052602060002090601f0160209004810192821562000f125791602002820160005b838211156200119e57835183826101000a81548160ff021916908360ff16021790555092602001926001016020816000010492830192600103026200115e565b801562000f105782816101000a81549060ff02191690556001016020816000010492830192600103026200119e565b8082111562000f20576000620011e482826200122d565b50600101620011cd565b508054620011fc90620018d9565b6000825580601f106200120d575050565b601f01602090049060005260206000209081019062000e6b9190620010fc565b50805460008255601f01602090049060005260206000209081019062000e6b9190620010fc565b634e487b7160e01b600052604160045260246000fd5b604051608081016001600160401b03811182821017156200128f576200128f62001254565b60405290565b604051601f8201601f191681016001600160401b0381118282101715620012c057620012c062001254565b604052919050565b60006001600160401b03821115620012e457620012e462001254565b5060051b60200190565b6000601f83818401126200130157600080fd5b825160206200131a6200131483620012c8565b62001295565b82815260059290921b850181019181810190878411156200133a57600080fd5b8287015b84811015620013fe5780516001600160401b0380821115620013605760008081fd5b818a0191508a603f830112620013765760008081fd5b85820151818111156200138d576200138d62001254565b620013a0818a01601f1916880162001295565b915080825260408c81838601011115620013ba5760008081fd5b60005b82811015620013da578481018201518482018a01528801620013bd565b82811115620013ec5760008984860101525b5050508452509183019183016200133e565b50979650505050505050565b600082601f8301126200141c57600080fd5b815160206200142f6200131483620012c8565b82815260059290921b840181019181810190868411156200144f57600080fd5b8286015b848110156200148057805163ffffffff81168114620014725760008081fd5b835291830191830162001453565b509695505050505050565b600082601f8301126200149d57600080fd5b81516020620014b06200131483620012c8565b828152600592831b8501820192828201919087851115620014d057600080fd5b8387015b85811015620015815780516001600160401b03811115620014f55760008081fd5b8801603f81018a13620015085760008081fd5b8581015160406200151d6200131483620012c8565b82815291851b8301810191888101908d8411156200153b5760008081fd5b938201935b838510156200156f578451925060ff831683146200155e5760008081fd5b828252938901939089019062001540565b885250505093850193508401620014d4565b5090979650505050505050565b600060808284031215620015a157600080fd5b620015ab6200126a565b82519091506001600160401b0380821115620015c657600080fd5b620015d485838601620012ee565b83526020840151915080821115620015eb57600080fd5b620015f9858386016200140a565b602084015260408401519150808211156200161357600080fd5b62001621858386016200148b565b604084015260608401519150808211156200163b57600080fd5b506200164a848285016200148b565b60608301525092915050565b60008060008060008060008060008060006101608c8e0312156200167957600080fd5b8b516001600160401b038111156200169057600080fd5b6200169e8e828f016200158e565b60208e0151909c5090506001600160401b03811115620016bd57600080fd5b620016cb8e828f016200158e565b60408e0151909b5090506001600160401b03811115620016ea57600080fd5b620016f88e828f016200158e565b60608e0151909a5090506001600160401b038111156200171757600080fd5b620017258e828f016200158e565b60808e015190995090506001600160401b038111156200174457600080fd5b620017528e828f016200158e565b60a08e015190985090506001600160401b038111156200177157600080fd5b6200177f8e828f016200158e565b60c08e015190975090506001600160401b038111156200179e57600080fd5b620017ac8e828f016200158e565b60e08e015190965090506001600160401b03811115620017cb57600080fd5b620017d98e828f016200158e565b6101008e015190955090506001600160401b03811115620017f957600080fd5b620018078e828f016200158e565b6101208e015190945090506001600160401b038111156200182757600080fd5b620018358e828f016200158e565b6101408e015190935090506001600160401b038111156200185557600080fd5b620018638e828f016200158e565b9150509295989b509295989b9093969950565b634e487b7160e01b600052603260045260246000fd5b634e487b7160e01b600052601160045260246000fd5b600060018201620018b757620018b76200188c565b5060010190565b60008219821115620018d457620018d46200188c565b500190565b600181811c90821680620018ee57607f821691505b6020821081036200190f57634e487b7160e01b600052602260045260246000fd5b50919050565b6148b680620019256000396000f3fe6080604052600436106101fd5760003560e01c80638b83209b1161010d578063b88d4fde116100a0578063e8a3d4851161006f578063e8a3d485146105ec578063e985e9c514610601578063f2fde38b14610621578063f906751b14610641578063fe60d12c1461066157600080fd5b8063b88d4fde14610561578063c87b56dd14610581578063ce7c2ac2146105a1578063e33b7de3146105d757600080fd5b806395d89b41116100dc57806395d89b41146104dc5780639852595c146104f1578063a035b1fe14610527578063a22cb4651461054157600080fd5b80638b83209b1461046b5780638da5cb5b1461048b578063910fc67d146104a9578063938e3d7b146104bc57600080fd5b8063200d2ed21161019057806342842e0e1161015f57806342842e0e146103d65780634e8c5e26146103f65780636352211e1461041657806370a0823114610436578063715018a61461045657600080fd5b8063200d2ed21461037457806323b872dd1461038c57806334918dfd146103ac5780633a98ef39146103c157600080fd5b8063095ea7b3116101cc578063095ea7b3146102fc57806318160ddd1461031c578063191655871461033f57806319dc2c901461035f57600080fd5b806301ffc9a71461024b57806306fdde031461028057806307e3aa71146102a2578063081812fc146102c457600080fd5b36610246577f6ef95f06320e7a25a04a175ca677b7052bdd97131872c2192525a629f51be77033604080516001600160a01b0390921682523460208301520160405180910390a1005b600080fd5b34801561025757600080fd5b5061026b610266366004613aa7565b610676565b60405190151581526020015b60405180910390f35b34801561028c57600080fd5b506102956106c8565b6040516102779190613b1c565b3480156102ae57600080fd5b506102c26102bd366004613b44565b61075a565b005b3480156102d057600080fd5b506102e46102df366004613b74565b610845565b6040516001600160a01b039091168152602001610277565b34801561030857600080fd5b506102c2610317366004613b8d565b610889565b34801561032857600080fd5b50610331610916565b604051908152602001610277565b34801561034b57600080fd5b506102c261035a366004613bb9565b610924565b34801561036b57600080fd5b506102c2610af8565b34801561038057600080fd5b5060175460ff1661026b565b34801561039857600080fd5b506102c26103a7366004613bd6565b610b35565b3480156103b857600080fd5b506102c2610b40565b3480156103cd57600080fd5b50600a54610331565b3480156103e257600080fd5b506102c26103f1366004613bd6565b610b7e565b34801561040257600080fd5b506102c2610411366004613b74565b610b99565b34801561042257600080fd5b506102e4610431366004613b74565b610c6c565b34801561044257600080fd5b50610331610451366004613bb9565b610c7e565b34801561046257600080fd5b506102c2610ccc565b34801561047757600080fd5b506102e4610486366004613b74565b610d02565b34801561049757600080fd5b506008546001600160a01b03166102e4565b6102c26104b7366004613b74565b610d32565b3480156104c857600080fd5b506102c26104d7366004613ca2565b610f52565b3480156104e857600080fd5b50610295610f8f565b3480156104fd57600080fd5b5061033161050c366004613bb9565b6001600160a01b03166000908152600d602052604090205490565b34801561053357600080fd5b50669536c708910000610331565b34801561054d57600080fd5b506102c261055c366004613cea565b610f9e565b34801561056d57600080fd5b506102c261057c366004613d1d565b611033565b34801561058d57600080fd5b5061029561059c366004613b74565b611084565b3480156105ad57600080fd5b506103316105bc366004613bb9565b6001600160a01b03166000908152600c602052604090205490565b3480156105e357600080fd5b50600b54610331565b3480156105f857600080fd5b506102956110e4565b34801561060d57600080fd5b5061026b61061c366004613d9c565b6110f3565b34801561062d57600080fd5b506102c261063c366004613bb9565b611121565b34801561064d57600080fd5b506102c261065c366004613b74565b6111bc565b34801561066d57600080fd5b50601854610331565b60006001600160e01b031982166380ac58cd60e01b14806106a757506001600160e01b03198216635b5e139f60e01b145b806106c257506301ffc9a760e01b6001600160e01b03198316145b92915050565b6060600280546106d790613dca565b80601f016020809104026020016040519081016040528092919081815260200182805461070390613dca565b80156107505780601f1061072557610100808354040283529160200191610750565b820191906000526020600020905b81548152906001019060200180831161073357829003601f168201915b5050505050905090565b6008546001600160a01b0316331461078d5760405162461bcd60e51b815260040161078490613e04565b60405180910390fd5b61271082610799610916565b6107a39190613e4f565b11156107c15760405162461bcd60e51b815260040161078490613e67565b60fa826018546107d19190613e4f565b111561081f5760405162461bcd60e51b815260206004820152601f60248201527f4e6577206d696e742065786365656473207265736572766520737570706c79006044820152606401610784565b81601860008282546108319190613e4f565b9091555061084190508183611296565b5050565b6000610850826113c8565b61086d576040516333d1c03960e21b815260040160405180910390fd5b506000908152600660205260409020546001600160a01b031690565b600061089482610c6c565b9050806001600160a01b0316836001600160a01b0316036108c85760405163250fdee360e21b815260040160405180910390fd5b336001600160a01b038216148015906108e857506108e681336110f3565b155b15610906576040516367d9dca160e11b815260040160405180910390fd5b610911838383611401565b505050565b600154600054036000190190565b6001600160a01b0381166000908152600c60205260409020546109985760405162461bcd60e51b815260206004820152602660248201527f5061796d656e7453706c69747465723a206163636f756e7420686173206e6f2060448201526573686172657360d01b6064820152608401610784565b6000600b54476109a89190613e4f565b6001600160a01b0383166000908152600d6020908152604080832054600a54600c9093529083205493945091926109df9085613e9e565b6109e99190613ed3565b6109f39190613ee7565b905080600003610a595760405162461bcd60e51b815260206004820152602b60248201527f5061796d656e7453706c69747465723a206163636f756e74206973206e6f742060448201526a191d59481c185e5b595b9d60aa1b6064820152608401610784565b6001600160a01b0383166000908152600d6020526040902054610a7d908290613e4f565b6001600160a01b0384166000908152600d6020526040902055600b54610aa4908290613e4f565b600b55610ab1838261145d565b604080516001600160a01b0385168152602081018390527fdf20fd1e76bc69d672e4814fafb2c449bba3a5369d8359adf9e05e6fde87b056910160405180910390a1505050565b6008546001600160a01b03163314610b225760405162461bcd60e51b815260040161078490613e04565b6010805462ff0000191662010000179055565b610911838383611576565b6008546001600160a01b03163314610b6a5760405162461bcd60e51b815260040161078490613e04565b6017805460ff19811660ff90911615179055565b61091183838360405180602001604052806000815250611033565b6008546001600160a01b03163314610bc35760405162461bcd60e51b815260040161078490613e04565b60105462010000900460ff1615610c115760405162461bcd60e51b815260206004820152601260248201527110d85b9d985cc81cda5e99481b1bd8dad95960721b6044820152606401610784565b61ffff8110610c545760405162461bcd60e51b815260206004820152600f60248201526e56616c756520746f6f206c6172676560881b6044820152606401610784565b6010805461ffff191661ffff92909216919091179055565b6000610c7782611763565b5192915050565b60006001600160a01b038216610ca7576040516323d3ad8160e21b815260040160405180910390fd5b506001600160a01b03166000908152600560205260409020546001600160401b031690565b6008546001600160a01b03163314610cf65760405162461bcd60e51b815260040161078490613e04565b610d00600061188a565b565b6000600e8281548110610d1757610d17613efe565b6000918252602090912001546001600160a01b031692915050565b600260095403610d845760405162461bcd60e51b815260206004820152601f60248201527f5265656e7472616e637947756172643a207265656e7472616e742063616c6c006044820152606401610784565b600260095560175460ff16610dcc5760405162461bcd60e51b815260206004820152600e60248201526d14d85b19481a5cc81c185d5cd95960921b6044820152606401610784565b610ddd81669536c708910000613e9e565b341015610e245760405162461bcd60e51b8152602060048201526015602482015274139bdd08195b9bdd59da08195d1a195c881cd95b9d605a1b6044820152606401610784565b61271081610e30610916565b610e3a9190613e4f565b1115610e585760405162461bcd60e51b815260040161078490613e67565b601854610e6860fa612710613ee7565b610e729190613e4f565b81610e7b610916565b610e859190613e4f565b1115610ee55760405162461bcd60e51b815260206004820152602960248201527f4e6577206d696e742065786365656473206d6178696d756d20617661696c61626044820152686c6520737570706c7960b81b6064820152608401610784565b6019811115610f405760405162461bcd60e51b815260206004820152602160248201527f45786365656473206d6178206d696e747320706572207472616e73616374696f6044820152603760f91b6064820152608401610784565b610f4a3382611296565b506001600955565b6008546001600160a01b03163314610f7c5760405162461bcd60e51b815260040161078490613e04565b80516108419060169060208401906139f8565b6060600380546106d790613dca565b336001600160a01b03831603610fc75760405163b06307db60e01b815260040160405180910390fd5b3360008181526007602090815260408083206001600160a01b03871680855290835292819020805460ff191686151590811790915590519081529192917f17307eab39ab6107e8899845ad3d59bd9653f200f220920489ca2b5937696c31910160405180910390a35050565b61103e848484611576565b6001600160a01b0383163b15158015611060575061105e848484846118dc565b155b1561107e576040516368d2bf6b60e11b815260040160405180910390fd5b50505050565b606061108f826113c8565b6110db5760405162461bcd60e51b815260206004820152601b60248201527f517565727920666f72206e6f6e6578697374616e7420746f6b656e00000000006044820152606401610784565b6106c2826119c8565b6060601680546106d790613dca565b6001600160a01b03918216600090815260076020908152604080832093909416825291909152205460ff1690565b6008546001600160a01b0316331461114b5760405162461bcd60e51b815260040161078490613e04565b6001600160a01b0381166111b05760405162461bcd60e51b815260206004820152602660248201527f4f776e61626c653a206e6577206f776e657220697320746865207a65726f206160448201526564647265737360d01b6064820152608401610784565b6111b98161188a565b50565b6008546001600160a01b031633146111e65760405162461bcd60e51b815260040161078490613e04565b612710816111f2610916565b6111fc9190613e4f565b111561121a5760405162461bcd60e51b815260040161078490613e67565b60fa8160185461122a9190613e4f565b11156112785760405162461bcd60e51b815260206004820152601f60248201527f4e6577206d696e742065786365656473207265736572766520737570706c79006044820152606401610784565b806018600082825461128a9190613e4f565b909155506111b9905033825b6000546001600160a01b0383166112bf57604051622e076360e81b815260040160405180910390fd5b816000036112e05760405163b562e8dd60e01b815260040160405180910390fd5b6001600160a01b038316600081815260056020908152604080832080546fffffffffffffffffffffffffffffffff1981166001600160401b038083168a0181169182176801000000000000000067ffffffffffffffff1990941690921783900481168a01811690920217909155858452600490925290912080546001600160e01b031916909217600160a01b4290921691909102179055808083015b6040516001830192906001600160a01b038716906000907fddf252ad1be2c89b69c2b068fc378daa952ba7f163c4a11628f55a4df523b3ef908290a480821061137c5750600055505050565b6000816001111580156113dc575060005482105b80156106c2575050600090815260046020526040902054600160e01b900460ff161590565b60008281526006602052604080822080546001600160a01b0319166001600160a01b0387811691821790925591518593918516917f8c5be1e5ebec7d5bd14f71427d1e84f3dd0314c0f7b2291e5b200ac8c7c3b92591a4505050565b804710156114ad5760405162461bcd60e51b815260206004820152601d60248201527f416464726573733a20696e73756666696369656e742062616c616e63650000006044820152606401610784565b6000826001600160a01b03168260405160006040518083038185875af1925050503d80600081146114fa576040519150601f19603f3d011682016040523d82523d6000602084013e6114ff565b606091505b50509050806109115760405162461bcd60e51b815260206004820152603a60248201527f416464726573733a20756e61626c6520746f2073656e642076616c75652c207260448201527f6563697069656e74206d617920686176652072657665727465640000000000006064820152608401610784565b600061158182611763565b9050836001600160a01b031681600001516001600160a01b0316146115b85760405162a1148160e81b815260040160405180910390fd5b6000336001600160a01b03861614806115d657506115d685336110f3565b806115f15750336115e684610845565b6001600160a01b0316145b90508061161157604051632ce44b5f60e11b815260040160405180910390fd5b6001600160a01b03841661163857604051633a954ecd60e21b815260040160405180910390fd5b61164460008487611401565b6001600160a01b038581166000908152600560209081526040808320805467ffffffffffffffff198082166001600160401b0392831660001901831617909255898616808652838620805493841693831660019081018416949094179055898652600490945282852080546001600160e01b031916909417600160a01b4290921691909102178355870180845292208054919390911661171857600054821461171857805460208601516001600160401b0316600160a01b026001600160e01b03199091166001600160a01b038a16171781555b50505082846001600160a01b0316866001600160a01b03167fddf252ad1be2c89b69c2b068fc378daa952ba7f163c4a11628f55a4df523b3ef60405160405180910390a45050505050565b60408051606081018252600080825260208201819052918101919091528180600111158015611793575060005481105b1561187157600081815260046020908152604091829020825160608101845290546001600160a01b0381168252600160a01b81046001600160401b031692820192909252600160e01b90910460ff1615159181018290529061186f5780516001600160a01b031615611806579392505050565b5060001901600081815260046020908152604091829020825160608101845290546001600160a01b038116808352600160a01b82046001600160401b031693830193909352600160e01b900460ff161515928101929092521561186a579392505050565b611806565b505b604051636f96cda160e11b815260040160405180910390fd5b600880546001600160a01b038381166001600160a01b0319831681179093556040519116919082907f8be0079c531659141344cd1fd0a4f28419497f9722a3daafe3b4186f6b6457e090600090a35050565b604051630a85bd0160e11b81526000906001600160a01b0385169063150b7a0290611911903390899088908890600401613f14565b6020604051808303816000875af192505050801561194c575060408051601f3d908101601f1916820190925261194991810190613f51565b60015b6119aa573d80801561197a576040519150601f19603f3d011682016040523d82523d6000602084013e61197f565b606091505b5080516000036119a2576040516368d2bf6b60e11b815260040160405180910390fd5b805181602001fd5b6001600160e01b031916630a85bd0160e11b1490505b949350505050565b606060006119d583611e07565b90506000815160026119e79190613e9e565b6119f2906001613e4f565b6001600160401b03811115611a0957611a09613c17565b604051908082528060200260200182016040528015611a3c57816020015b6060815260200190600190039081611a275790505b50601054909150611a509061ffff16612201565b601054611a609061ffff16612201565b604051602001611a71929190613f8a565b60405160208183030381529060405281600081518110611a9357611a93613efe565b602090810291909101015260015b8251811015611b7f5782611ab6600183613ee7565b81518110611ac657611ac6613efe565b602002602001015160000151826001836002611ae29190613e9e565b611aec9190613ee7565b81518110611afc57611afc613efe565b6020908102919091010152611b25611b15826022613e9e565b611b20906022613e4f565b612201565b604051602001611b359190614172565b60408051601f1981840301815291905282611b51836002613e9e565b81518110611b6157611b61613efe565b60200260200101819052508080611b77906141d0565b915050611aa1565b508160018351611b8f9190613ee7565b81518110611b9f57611b9f613efe565b6020026020010151600001518160028351611bba9190613ee7565b81518110611bca57611bca613efe565b6020908102919091010152601054611bf690611bed9061014a9061ffff166141e9565b61ffff16612201565b601054611c0d90611bed90601e9061ffff166141e9565b604051602001611c1e92919061420c565b6040516020818303038152906040528160018351611c3c9190613ee7565b81518110611c4c57611c4c613efe565b6020026020010181905250600060405180602001604052806000815250905060005b8251811015611cc75781838281518110611c8a57611c8a613efe565b6020026020010151604051602001611ca39291906142b1565b60405160208183030381529060405291508080611cbf906141d0565b915050611c6e565b506040805180820190915260018152605b60f81b602082015260005b60018551611cf19190613ee7565b811015611d4c5781858281518110611d0b57611d0b613efe565b602002602001015160200151604051602001611d289291906142e0565b60405160208183030381529060405291508080611d44906141d0565b915050611ce3565b50808460018651611d5d9190613ee7565b81518110611d6d57611d6d613efe565b602002602001015160200151604051602001611d8a9291906142b1565b60405160208183030381529060405290506000611dd9611da988612201565b83611db386612301565b604051602001611dc59392919061431b565b604051602081830303815290604052612301565b905080604051602001611dec9190614512565b60408051601f19818403018152919052979650505050505050565b60606000611ebb6011805480602002602001604051908101604052809291908181526020018280548015611e8657602002820191906000526020600020906000905b82829054906101000a900463ffffffff1663ffffffff1681526020019060040190602082600301049283019260010382029150808411611e495790505b5050505050611eb46000604051806040016040528060058152602001644954454d5360d81b81525087612453565b60006124ba565b611ec6906008613e4f565b90506000611ed48483612625565b905081815114611f1c5760405162461bcd60e51b815260206004820152601360248201527209ac2d2dc40d2e8cadae640dad2e6dac2e8c6d606b1b6044820152606401610784565b6000826001600160401b03811115611f3657611f36613c17565b604051908082528060200260200182016040528015611f7b57816020015b6040805180820190915260608082526020820152815260200190600190039081611f545790505b50905060005b838110156121f857828181518110611f9b57611f9b613efe565b6020026020010151600003611ffb57611fd9611fb78783612769565b604051806040016040528060048152602001631219585960e21b815250612792565b828281518110611feb57611feb613efe565b60200260200101819052506121e6565b82818151811061200d5761200d613efe565b602002602001015160010361204c57611fd961202987836127df565b60405180604001604052806005815260200164546f72736f60d81b815250612792565b82818151811061205e5761205e613efe565b60200260200101516002036120a057611fd961207a8783612809565b604051806040016040528060088152602001672337b7ba3bb2b0b960c11b815250612792565b8281815181106120b2576120b2613efe565b60200260200101516003036120f357611fd96120ce8783612836565b60405180604001604052806007815260200166426f74746f6d7360c81b815250612792565b82818151811061210557612105613efe565b602002602001015160040361214557611fd96121218783612862565b604051806040016040528060068152602001652bb2b0b837b760d11b815250612792565b82818151811061215757612157613efe565b602002602001015160050361219757611fd9612173878361288d565b6040518060400160405280600681526020016514da1a595b1960d21b815250612792565b6121c86121a487836128b8565b60405180604001604052806006815260200165105b5d5b195d60d21b815250612792565b8282815181106121da576121da613efe565b60200260200101819052505b806121f0816141d0565b915050611f81565b50949350505050565b6060816000036122285750506040805180820190915260018152600360fc1b602082015290565b8160005b8115612252578061223c816141d0565b915061224b9050600a83613ed3565b915061222c565b6000816001600160401b0381111561226c5761226c613c17565b6040519080825280601f01601f191660200182016040528015612296576020820181803683370190505b5090505b84156119c0576122ab600183613ee7565b91506122b8600a86614557565b6122c3906030613e4f565b60f81b8183815181106122d8576122d8613efe565b60200101906001600160f81b031916908160001a9053506122fa600a86613ed3565b945061229a565b6060815160000361232057505060408051602081019091526000815290565b6000604051806060016040528060408152602001614841604091399050600060038451600261234f9190613e4f565b6123599190613ed3565b612364906004613e9e565b6001600160401b0381111561237b5761237b613c17565b6040519080825280601f01601f1916602001820160405280156123a5576020820181803683370190505b509050600182016020820185865187015b80821015612411576003820191508151603f8160121c168501518453600184019350603f81600c1c168501518453600184019350603f8160061c168501518453600184019350603f81168501518453506001830192506123b6565b505060038651066001811461242d576002811461244057612448565b603d6001830353603d6002830353612448565b603d60018303535b509195945050505050565b600061245e84612201565b8361246884612201565b60405160200161247a9392919061456b565b60408051601f1981840301815290829052612497916020016145ae565b6040516020818303038152906040528051906020012060001c90505b9392505050565b600060128211806124cb5750600882105b6124d557816124d8565b60125b915060005b84518110156124f857806124f0816141d0565b9150506124dd565b506000846001865161250a9190613ee7565b8151811061251a5761251a613efe565b602002602001015163ffffffff1690506000600f600285601261253d9190613ee7565b61254791906146ae565b61255260a985613ed3565b61255c9190613e9e565b901c9050600086518261256f9190613e9e565b6125799084613e4f565b6125839087614557565b905060005b87518110156125f45761259c816001613e4f565b6125a69084613e9e565b8882815181106125b8576125b8613efe565b602002602001015163ffffffff166125d09190613e4f565b8210156125e25793506124b392505050565b806125ec816141d0565b915050612588565b5060405162461bcd60e51b815260206004820152600560248201526422a92927a960d91b6044820152606401610784565b60606000826001600160401b0381111561264157612641613c17565b60405190808252806020026020018201604052801561266a578160200160208202803683370190505b50905060005b8381101561276157600061272e60138054806020026020016040519081016040528092919081815260200182805480156126f557602002820191906000526020600020906000905b82829054906101000a900463ffffffff1663ffffffff16815260200190600401906020826003010492830192600103820291508084116126b85790505b5050505050611eb484600161270a9190613e4f565b604051806040016040528060058152602001644d41494e5360d81b8152508a612453565b90508083838151811061274357612743613efe565b60209081029190910101525080612759816141d0565b915050612670565b509392505050565b60606124b38383604051806040016040528060048152602001631211505160e21b8152506128df565b6040805180820190915260608082526020820152600082846040516020016127bb9291906146bd565b60408051601f19818403018152828201909152858252602082015291505092915050565b60606124b3838360405180604001604052806005815260200164544f52534f60d81b8152506128df565b60606124b38383604051806040016040528060088152602001672327a7aa2ba2a0a960c11b8152506128df565b60606124b3838360405180604001604052806007815260200166424f54544f4d5360c81b8152506128df565b60606124b38383604051806040016040528060068152602001652ba2a0a827a760d11b8152506128df565b60606124b383836040518060400160405280600681526020016514d21251531160d21b8152506128df565b60606124b383836040518060400160405280600681526020016510535553115560d21b8152505b6060600061298c601180548060200260200160405190810160405280929190818152602001828054801561295e57602002820191906000526020600020906000905b82829054906101000a900463ffffffff1663ffffffff16815260200190600401906020826003010492830192600103820291508084116129215790505b5050505050611eb46000604051806040016040528060058152602001644954454d5360d81b81525089612453565b612997906008613e4f565b905060006129a6858588612453565b905060006129d7866040518060400160405280600a815260200169504f535345535349564560b01b81525089612453565b90506000612a038760405180604001604052806005815260200164455854524160d81b8152508a612453565b90506000612a328860405180604001604052806008815260200167135055115492505360c21b8152508b612453565b90506000612a5d89604051806040016040528060048152602001631510525360e21b8152508c612453565b90506000612b01600f8a604051612a7491906145ae565b9081526040805191829003602090810183206001018054808302850183019093528284529190830182828015612af557602002820191906000526020600020906000905b82829054906101000a900463ffffffff1663ffffffff1681526020019060040190602082600301049283019260010382029150808411612ab85790505b505050505087896124ba565b90506000600f8a604051612b1591906145ae565b90815260200160405180910390206000018281548110612b3757612b37613efe565b906000526020600020018054612b4c90613dca565b80601f0160208091040260200160405190810160405280929190818152602001828054612b7890613dca565b8015612bc55780601f10612b9a57610100808354040283529160200191612bc5565b820191906000526020600020905b815481529060010190602001808311612ba857829003601f168201915b505050505090506000612bd98b8e8e613105565b90508051600003612bf4575097506124b39650505050505050565b60408051600580825260c08201909252600091816020015b6060815260200190600190039081612c0c5790505090508281600381518110612c3757612c37613efe565b602002602001018190525060005b825181101561306457828181518110612c6057612c60613efe565b6020026020010151600703612d9b5760405169504f535345535349564560b01b8152600f90600a0190815260405190819003602001812069504f535345535349564560b01b825290612d3f90600f90600a019081526040805191829003602090810183206001018054808302850183019093528284529190830182828015612d3357602002820191906000526020600020906000905b82829054906101000a900463ffffffff1663ffffffff1681526020019060040190602082600301049283019260010382029150808411612cf65790505b50505050508b8e6124ba565b81548110612d4f57612d4f613efe565b90600052602060002001604051602001612d6991906147c9565b60405160208183030381529060405282600081518110612d8b57612d8b613efe565b6020026020010181905250613052565b828181518110612dad57612dad613efe565b6020026020010151600803612e5f576000612de68e60405180604001604052806005815260200164455854524160d81b81525088613468565b90508060000151612e04612dfd836020015161387f565b8b8f6124ba565b81518110612e1457612e14613efe565b6020026020010151604051602001612e2c91906147e6565b60405160208183030381529060405283600181518110612e4e57612e4e613efe565b602002602001018190525050613052565b828181518110612e7157612e71613efe565b6020026020010151600903612f15576000612ead8e60405180604001604052806008815260200167135055115492505360c21b81525088613468565b90508060000151612ecb612ec4836020015161387f565b8a8f6124ba565b81518110612edb57612edb613efe565b6020026020010151604051602001612ef391906147e6565b60405160208183030381529060405283600281518110612e4e57612e4e613efe565b828181518110612f2757612f27613efe565b6020026020010151600a0361305257604051631510525360e21b8152600f90600401908152604051908190036020018120631510525360e21b825290612ffa90600f906004019081526040805191829003602090810183206001018054808302850183019093528284529190830182828015612fee57602002820191906000526020600020906000905b82829054906101000a900463ffffffff1663ffffffff1681526020019060040190602082600301049283019260010382029150808411612fb15790505b5050505050888e6124ba565b8154811061300a5761300a613efe565b90600052602060002001604051602001613024919061480b565b6040516020818303038152906040528260048151811061304657613046613efe565b60200260200101819052505b8061305c816141d0565b915050612c45565b50604080516020810190915260008082525b82518110156130f257600083828151811061309357613093613efe565b60200260200101515111156130e057818382815181106130b5576130b5613efe565b60200260200101516040516020016130ce9291906142b1565b60405160208183030381529060405291505b806130ea816141d0565b915050613076565b509e9d5050505050505050505050505050565b606060006131b0601280548060200260200160405190810160405280929190818152602001828054801561318457602002820191906000526020600020906000905b82829054906101000a900463ffffffff1663ffffffff16815260200190600401906020826003010492830192600103820291508084116131475790505b5050505050611eb485604051806040016040528060048152602001634d4f445360e01b81525088612453565b90506000816001600160401b038111156131cc576131cc613c17565b6040519080825280602002602001820160405280156131f5578160200160208202803683370190505b5060408051600480825260a082019092529192506000919060208201608080368337019050509050600f60405161323c9069504f535345535349564560b01b8152600a0190565b9081526040519081900360200190206001015461325c90620f4240613e9e565b8160008151811061326f5761326f613efe565b602002602001019063ffffffff16908163ffffffff1681525050600f8760405161329991906145ae565b908152604051908190036020019020600201546132b990620f4240613e9e565b816001815181106132cc576132cc613efe565b602002602001019063ffffffff16908163ffffffff1681525050600f876040516132f691906145ae565b9081526040519081900360200190206003015461331690620f4240613e9e565b8160028151811061332957613329613efe565b63ffffffff90921660209283029190910190910152604051631510525360e21b8152600f906004019081526040519081900360200190206001015461337190620f4240613e9e565b8160038151811061338457613384613efe565b602002602001019063ffffffff16908163ffffffff168152505060005b8381101561345c5760006133e06133b9836001613e4f565b6040518060400160405280600881526020016726a7a224a324a2a960c11b8152508a612453565b905060006133f86133f08561387f565b8360006124ba565b9050613405816007613e4f565b85848151811061341757613417613efe565b60200260200101818152505083818151811061343557613435613efe565b60200260200101600063ffffffff1681525050508080613454906141d0565b9150506133a1565b50909695505050505050565b6134936040518060800160405280606081526020016060815260200160608152602001606081525090565b60006134bc8460405180604001604052806005815260200164455854524160d81b81525061399f565b61350157600f856040516134d091906145ae565b908152602001604051809103902060030183815481106134f2576134f2613efe565b9060005260206000200161353e565b600f8560405161351191906145ae565b9081526020016040518091039020600201838154811061353357613533613efe565b906000526020600020015b8054806020026020016040519081016040528092919081815260200182805480156135a657602002820191906000526020600020906000905b825461010083900a900460ff168152602060019283018181049485019490930390920291018084116135775790505b505050505090506000604051806080016040528083516001600160401b038111156135d3576135d3613c17565b60405190808252806020026020018201604052801561360657816020015b60608152602001906001900390816135f15790505b50815260200183516001600160401b0381111561362557613625613c17565b60405190808252806020026020018201604052801561364e578160200160208202803683370190505b508152602001600060405190808252806020026020018201604052801561368957816020015b60608152602001906001900390816136745790505b50815260200160006040519080825280602002602001820160405280156136c457816020015b60608152602001906001900390816136af5790505b509052905060005b82518110156138755760008382815181106136e9576136e9613efe565b60200260200101519050600f8760405161370391906145ae565b90815260200160405180910390206000018160ff168154811061372857613728613efe565b90600052602060002001805461373d90613dca565b80601f016020809104026020016040519081016040528092919081815260200182805461376990613dca565b80156137b65780601f1061378b576101008083540402835291602001916137b6565b820191906000526020600020905b81548152906001019060200180831161379957829003601f168201915b5050505050836000015183815181106137d1576137d1613efe565b6020026020010181905250600f876040516137ec91906145ae565b90815260200160405180910390206001018160ff168154811061381157613811613efe565b90600052602060002090600891828204019190066004029054906101000a900463ffffffff168360200151838151811061384d5761384d613efe565b63ffffffff90921660209283029190910190910152508061386d816141d0565b9150506136cc565b5095945050505050565b606060008083516001600160401b0381111561389d5761389d613c17565b6040519080825280602002602001820160405280156138c6578160200160208202803683370190505b50905060005b84518110156127615763ffffffff80168582815181106138ee576138ee613efe565b6020026020010151846139019190614821565b63ffffffff161061393e5760405162461bcd60e51b8152602060048201526007602482015266546f6f2042696760c81b6044820152606401610784565b84818151811061395057613950613efe565b6020026020010151836139639190614821565b92508282828151811061397857613978613efe565b63ffffffff9092166020928302919091019091015280613997816141d0565b9150506138cc565b6000816040516020016139b291906145ae565b60405160208183030381529060405280519060200120836040516020016139d991906145ae565b6040516020818303038152906040528051906020012014905092915050565b828054613a0490613dca565b90600052602060002090601f016020900481019282613a265760008555613a6c565b82601f10613a3f57805160ff1916838001178555613a6c565b82800160010185558215613a6c579182015b82811115613a6c578251825591602001919060010190613a51565b50613a78929150613a7c565b5090565b5b80821115613a785760008155600101613a7d565b6001600160e01b0319811681146111b957600080fd5b600060208284031215613ab957600080fd5b81356124b381613a91565b60005b83811015613adf578181015183820152602001613ac7565b8381111561107e5750506000910152565b60008151808452613b08816020860160208601613ac4565b601f01601f19169290920160200192915050565b6020815260006124b36020830184613af0565b6001600160a01b03811681146111b957600080fd5b60008060408385031215613b5757600080fd5b823591506020830135613b6981613b2f565b809150509250929050565b600060208284031215613b8657600080fd5b5035919050565b60008060408385031215613ba057600080fd5b8235613bab81613b2f565b946020939093013593505050565b600060208284031215613bcb57600080fd5b81356124b381613b2f565b600080600060608486031215613beb57600080fd5b8335613bf681613b2f565b92506020840135613c0681613b2f565b929592945050506040919091013590565b634e487b7160e01b600052604160045260246000fd5b60006001600160401b0380841115613c4757613c47613c17565b604051601f8501601f19908116603f01168101908282118183101715613c6f57613c6f613c17565b81604052809350858152868686011115613c8857600080fd5b858560208301376000602087830101525050509392505050565b600060208284031215613cb457600080fd5b81356001600160401b03811115613cca57600080fd5b8201601f81018413613cdb57600080fd5b6119c084823560208401613c2d565b60008060408385031215613cfd57600080fd5b8235613d0881613b2f565b915060208301358015158114613b6957600080fd5b60008060008060808587031215613d3357600080fd5b8435613d3e81613b2f565b93506020850135613d4e81613b2f565b92506040850135915060608501356001600160401b03811115613d7057600080fd5b8501601f81018713613d8157600080fd5b613d9087823560208401613c2d565b91505092959194509250565b60008060408385031215613daf57600080fd5b8235613dba81613b2f565b91506020830135613b6981613b2f565b600181811c90821680613dde57607f821691505b602082108103613dfe57634e487b7160e01b600052602260045260246000fd5b50919050565b6020808252818101527f4f776e61626c653a2063616c6c6572206973206e6f7420746865206f776e6572604082015260600190565b634e487b7160e01b600052601160045260246000fd5b60008219821115613e6257613e62613e39565b500190565b6020808252601f908201527f4e6577206d696e742065786365656473206d6178696d756d20737570706c7900604082015260600190565b6000816000190483118215151615613eb857613eb8613e39565b500290565b634e487b7160e01b600052601260045260246000fd5b600082613ee257613ee2613ebd565b500490565b600082821015613ef957613ef9613e39565b500390565b634e487b7160e01b600052603260045260246000fd5b6001600160a01b0385811682528416602082015260408101839052608060608201819052600090613f4790830184613af0565b9695505050505050565b600060208284031215613f6357600080fd5b81516124b381613a91565b60008151613f80818560208601613ac4565b9290920192915050565b7f3c73766720786d6c6e733d22687474703a2f2f7777772e77332e6f72672f323081527f30302f73766722207072657365727665417370656374526174696f3d22784d6960208201527f6e594d696e206d656574222076696577426f783d22302030200000000000000060408201526000835161400e816059850160208801613ac4565b600160fd1b605991840191820152835161402f81605a840160208801613ac4565b7f223e3c7374796c653e2e62617365207b2066696c6c3a20626c61636b3b20666f605a92909101918201527f6e742d66616d696c793a20616c656f3b20666f6e742d73697a653a2031397078607a8201527f3b207d3c2f7374796c653e3c7374796c653e2e7469746c65207b2066696c6c3a609a8201527f20626c61636b3b20666f6e742d66616d696c793a20616c656f3b20666f6e742d60ba8201527f73697a653a20323870783b20666f6e742d7374796c653a20626f6c643b207d3c60da8201527f2f7374796c653e3c726563742077696474683d2231303025222068656967687460fa8201527f3d2231303025222066696c6c3d222346463846303022202f3e3c74657874207861011a8201527f3d2233342220793d2233342220636c6173733d2262617365223e00000000000061013a82015261015401949350505050565b7f3c2f746578743e3c7465787420783d2233342220793d220000000000000000008152600082516141aa816017850160208701613ac4565b6e111031b630b9b99e913130b9b2911f60891b6017939091019283015250602601919050565b6000600182016141e2576141e2613e39565b5060010190565b600061ffff8381169083168181101561420457614204613e39565b039392505050565b6f1e17ba32bc3a1f1e3a32bc3a103c1e9160811b81528251600090614238816010850160208801613ac4565b6411103c9e9160d91b601091840191820152835161425d816015840160208801613ac4565b7f2220636c6173733d227469746c65223e54726561737572652e2028466f722057601592909101918201527430b93934b7b939949e17ba32bc3a1f1e17b9bb339f60591b6035820152604a01949350505050565b600083516142c3818460208801613ac4565b8351908301906142d7818360208801613ac4565b01949350505050565b600083516142f2818460208801613ac4565b835190830190614306818360208801613ac4565b600b60fa1b9101908152600101949350505050565b707b226e616d65223a20224368657374202360781b81528351600090614348816011850160208901613ac4565b7001116101130ba3a3934b13aba32b9911d1607d1b6011918401918201528451614379816022840160208901613ac4565b7f5d2c20226465736372697074696f6e223a202254726561737572652069732072602292909101918201527f616e646f6d697a656420626174746c6520676561722067656e6572617465642060428201527f616e642073746f726564206f6e20636861696e2e20456163682074726561737560628201527f726520636865737420636f6e7461696e7320612076617269657479206f66206760828201527f65617220746861742077617272696f72732077696c6c2075736520696e20626160a28201527f74746c652e2052616e67696e672066726f6d2061726d6f75722c20746f20776560c28201527f61706f6e7320616e6420737572766976616c20676561722e204665656c20667260e28201527f656520746f2075736520796f757220747265617375726520696e20616e7920776101028201527f617920796f752077616e742e222c2022696d616765223a2022646174613a696d610122820152721859d94bdcdd99cade1b5b0ed8985cd94d8d0b606a1b610142820152613f47614504610155830186613f6e565b61227d60f01b815260020190565b7f646174613a6170706c69636174696f6e2f6a736f6e3b6261736536342c00000081526000825161454a81601d850160208701613ac4565b91909101601d0192915050565b60008261456657614566613ebd565b500690565b6000845161457d818460208901613ac4565b845190830190614591818360208901613ac4565b84519101906145a4818360208801613ac4565b0195945050505050565b600082516145c0818460208701613ac4565b9190910192915050565b600181815b808511156146055781600019048211156145eb576145eb613e39565b808516156145f857918102915b93841c93908002906145cf565b509250929050565b60008261461c575060016106c2565b81614629575060006106c2565b816001811461463f576002811461464957614665565b60019150506106c2565b60ff84111561465a5761465a613e39565b50506001821b6106c2565b5060208310610133831016604e8410600b8410161715614688575081810a6106c2565b61469283836145ca565b80600019048211156146a6576146a6613e39565b029392505050565b60006124b360ff84168361460d565b6f3d913a3930b4ba2fba3cb832911d101160811b815282516000906146e9816010850160208801613ac4565b6b1116113b30b63ab2911d101160a11b601091840191820152835161471581601c840160208801613ac4565b61227d60f01b601c9290910191820152601e01949350505050565b8054600090600181811c908083168061474a57607f831692505b6020808410820361476b57634e487b7160e01b600052602260045260246000fd5b81801561477f5760018114614790576147bd565b60ff198616895284890196506147bd565b60008881526020902060005b868110156147b55781548b82015290850190830161479c565b505084890196505b50505050505092915050565b60006147d58284614730565b600160fd1b81526001019392505050565b600082516147f8818460208701613ac4565b600160fd1b920191825250600101919050565b600160fd1b815260006124b36001830184614730565b600063ffffffff8083168185168083038211156142d7576142d7613e3956fe4142434445464748494a4b4c4d4e4f505152535455565758595a6162636465666768696a6b6c6d6e6f707172737475767778797a303132333435363738392b2fa26469706673582212205b83974010e94db994e7c41dad8c0f9673f71dc4584f464e82efa89a6722f54564736f6c634300080d0033",
  "linkReferences": {},
  "deployedLinkReferences": {}
}