{
  "_format": "hh-sol-artifact-1",
  "contractName": "Treasure",
  "sourceName": "contracts/Treasure.sol",
  "abi": [
    {
      "inputs": [
        {
          "components": [
            {
              "internalType": "string[]",
              "name": "title",
              "type": "string[]"
            },
            {
              "internalType": "uint32[]",
              "name": "weight",
              "type": "uint32[]"
            },
            {
              "internalType": "uint8[][]",
              "name": "extra",
              "type": "uint8[][]"
            },
            {
              "internalType": "uint8[][]",
              "name": "material",
              "type": "uint8[][]"
            }
          ],
          "internalType": "struct TreasureMetadata.Item",
          "name": "__head",
          "type": "tuple"
        },
        {
          "components": [
            {
              "internalType": "string[]",
              "name": "title",
              "type": "string[]"
            },
            {
              "internalType": "uint32[]",
              "name": "weight",
              "type": "uint32[]"
            },
            {
              "internalType": "uint8[][]",
              "name": "extra",
              "type": "uint8[][]"
            },
            {
              "internalType": "uint8[][]",
              "name": "material",
              "type": "uint8[][]"
            }
          ],
          "internalType": "struct TreasureMetadata.Item",
          "name": "__torso",
          "type": "tuple"
        },
        {
          "components": [
            {
              "internalType": "string[]",
              "name": "title",
              "type": "string[]"
            },
            {
              "internalType": "uint32[]",
              "name": "weight",
              "type": "uint32[]"
            },
            {
              "internalType": "uint8[][]",
              "name": "extra",
              "type": "uint8[][]"
            },
            {
              "internalType": "uint8[][]",
              "name": "material",
              "type": "uint8[][]"
            }
          ],
          "internalType": "struct TreasureMetadata.Item",
          "name": "__footwear",
          "type": "tuple"
        },
        {
          "components": [
            {
              "internalType": "string[]",
              "name": "title",
              "type": "string[]"
            },
            {
              "internalType": "uint32[]",
              "name": "weight",
              "type": "uint32[]"
            },
            {
              "internalType": "uint8[][]",
              "name": "extra",
              "type": "uint8[][]"
            },
            {
              "internalType": "uint8[][]",
              "name": "material",
              "type": "uint8[][]"
            }
          ],
          "internalType": "struct TreasureMetadata.Item",
          "name": "__bottoms",
          "type": "tuple"
        },
        {
          "components": [
            {
              "internalType": "string[]",
              "name": "title",
              "type": "string[]"
            },
            {
              "internalType": "uint32[]",
              "name": "weight",
              "type": "uint32[]"
            },
            {
              "internalType": "uint8[][]",
              "name": "extra",
              "type": "uint8[][]"
            },
            {
              "internalType": "uint8[][]",
              "name": "material",
              "type": "uint8[][]"
            }
          ],
          "internalType": "struct TreasureMetadata.Item",
          "name": "__weapon",
          "type": "tuple"
        },
        {
          "components": [
            {
              "internalType": "string[]",
              "name": "title",
              "type": "string[]"
            },
            {
              "internalType": "uint32[]",
              "name": "weight",
              "type": "uint32[]"
            },
            {
              "internalType": "uint8[][]",
              "name": "extra",
              "type": "uint8[][]"
            },
            {
              "internalType": "uint8[][]",
              "name": "material",
              "type": "uint8[][]"
            }
          ],
          "internalType": "struct TreasureMetadata.Item",
          "name": "__shield",
          "type": "tuple"
        },
        {
          "components": [
            {
              "internalType": "string[]",
              "name": "title",
              "type": "string[]"
            },
            {
              "internalType": "uint32[]",
              "name": "weight",
              "type": "uint32[]"
            },
            {
              "internalType": "uint8[][]",
              "name": "extra",
              "type": "uint8[][]"
            },
            {
              "internalType": "uint8[][]",
              "name": "material",
              "type": "uint8[][]"
            }
          ],
          "internalType": "struct TreasureMetadata.Item",
          "name": "__amulet",
          "type": "tuple"
        },
        {
          "components": [
            {
              "internalType": "string[]",
              "name": "title",
              "type": "string[]"
            },
            {
              "internalType": "uint32[]",
              "name": "weight",
              "type": "uint32[]"
            },
            {
              "internalType": "uint8[][]",
              "name": "extra",
              "type": "uint8[][]"
            },
            {
              "internalType": "uint8[][]",
              "name": "material",
              "type": "uint8[][]"
            }
          ],
          "internalType": "struct TreasureMetadata.Item",
          "name": "__possessive",
          "type": "tuple"
        },
        {
          "components": [
            {
              "internalType": "string[]",
              "name": "title",
              "type": "string[]"
            },
            {
              "internalType": "uint32[]",
              "name": "weight",
              "type": "uint32[]"
            },
            {
              "internalType": "uint8[][]",
              "name": "extra",
              "type": "uint8[][]"
            },
            {
              "internalType": "uint8[][]",
              "name": "material",
              "type": "uint8[][]"
            }
          ],
          "internalType": "struct TreasureMetadata.Item",
          "name": "__extra",
          "type": "tuple"
        },
        {
          "components": [
            {
              "internalType": "string[]",
              "name": "title",
              "type": "string[]"
            },
            {
              "internalType": "uint32[]",
              "name": "weight",
              "type": "uint32[]"
            },
            {
              "internalType": "uint8[][]",
              "name": "extra",
              "type": "uint8[][]"
            },
            {
              "internalType": "uint8[][]",
              "name": "material",
              "type": "uint8[][]"
            }
          ],
          "internalType": "struct TreasureMetadata.Item",
          "name": "__material",
          "type": "tuple"
        },
        {
          "components": [
            {
              "internalType": "string[]",
              "name": "title",
              "type": "string[]"
            },
            {
              "internalType": "uint32[]",
              "name": "weight",
              "type": "uint32[]"
            },
            {
              "internalType": "uint8[][]",
              "name": "extra",
              "type": "uint8[][]"
            },
            {
              "internalType": "uint8[][]",
              "name": "material",
              "type": "uint8[][]"
            }
          ],
          "internalType": "struct TreasureMetadata.Item",
          "name": "__tail",
          "type": "tuple"
        }
      ],
      "stateMutability": "nonpayable",
      "type": "constructor"
    },
    {
      "inputs": [],
      "name": "ApprovalCallerNotOwnerNorApproved",
      "type": "error"
    },
    {
      "inputs": [],
      "name": "ApprovalQueryForNonexistentToken",
      "type": "error"
    },
    {
      "inputs": [],
      "name": "ApprovalToCurrentOwner",
      "type": "error"
    },
    {
      "inputs": [],
      "name": "ApproveToCaller",
      "type": "error"
    },
    {
      "inputs": [],
      "name": "BalanceQueryForZeroAddress",
      "type": "error"
    },
    {
      "inputs": [],
      "name": "MintToZeroAddress",
      "type": "error"
    },
    {
      "inputs": [],
      "name": "MintZeroQuantity",
      "type": "error"
    },
    {
      "inputs": [],
      "name": "OwnerQueryForNonexistentToken",
      "type": "error"
    },
    {
      "inputs": [],
      "name": "TransferCallerNotOwnerNorApproved",
      "type": "error"
    },
    {
      "inputs": [],
      "name": "TransferFromIncorrectOwner",
      "type": "error"
    },
    {
      "inputs": [],
      "name": "TransferToNonERC721ReceiverImplementer",
      "type": "error"
    },
    {
      "inputs": [],
      "name": "TransferToZeroAddress",
      "type": "error"
    },
    {
      "inputs": [],
      "name": "URIQueryForNonexistentToken",
      "type": "error"
    },
    {
      "anonymous": false,
      "inputs": [
        {
          "indexed": true,
          "internalType": "address",
          "name": "owner",
          "type": "address"
        },
        {
          "indexed": true,
          "internalType": "address",
          "name": "approved",
          "type": "address"
        },
        {
          "indexed": true,
          "internalType": "uint256",
          "name": "tokenId",
          "type": "uint256"
        }
      ],
      "name": "Approval",
      "type": "event"
    },
    {
      "anonymous": false,
      "inputs": [
        {
          "indexed": true,
          "internalType": "address",
          "name": "owner",
          "type": "address"
        },
        {
          "indexed": true,
          "internalType": "address",
          "name": "operator",
          "type": "address"
        },
        {
          "indexed": false,
          "internalType": "bool",
          "name": "approved",
          "type": "bool"
        }
      ],
      "name": "ApprovalForAll",
      "type": "event"
    },
    {
      "anonymous": false,
      "inputs": [
        {
          "indexed": true,
          "internalType": "address",
          "name": "previousOwner",
          "type": "address"
        },
        {
          "indexed": true,
          "internalType": "address",
          "name": "newOwner",
          "type": "address"
        }
      ],
      "name": "OwnershipTransferred",
      "type": "event"
    },
    {
      "anonymous": false,
      "inputs": [
        {
          "indexed": false,
          "internalType": "address",
          "name": "account",
          "type": "address"
        },
        {
          "indexed": false,
          "internalType": "uint256",
          "name": "shares",
          "type": "uint256"
        }
      ],
      "name": "PayeeAdded",
      "type": "event"
    },
    {
      "anonymous": false,
      "inputs": [
        {
          "indexed": false,
          "internalType": "address",
          "name": "from",
          "type": "address"
        },
        {
          "indexed": false,
          "internalType": "uint256",
          "name": "amount",
          "type": "uint256"
        }
      ],
      "name": "PaymentReceived",
      "type": "event"
    },
    {
      "anonymous": false,
      "inputs": [
        {
          "indexed": false,
          "internalType": "address",
          "name": "to",
          "type": "address"
        },
        {
          "indexed": false,
          "internalType": "uint256",
          "name": "amount",
          "type": "uint256"
        }
      ],
      "name": "PaymentReleased",
      "type": "event"
    },
    {
      "anonymous": false,
      "inputs": [
        {
          "indexed": true,
          "internalType": "address",
          "name": "from",
          "type": "address"
        },
        {
          "indexed": true,
          "internalType": "address",
          "name": "to",
          "type": "address"
        },
        {
          "indexed": true,
          "internalType": "uint256",
          "name": "tokenId",
          "type": "uint256"
        }
      ],
      "name": "Transfer",
      "type": "event"
    },
    {
      "inputs": [
        {
          "internalType": "address",
          "name": "to",
          "type": "address"
        },
        {
          "internalType": "uint256",
          "name": "tokenId",
          "type": "uint256"
        }
      ],
      "name": "approve",
      "outputs": [],
      "stateMutability": "nonpayable",
      "type": "function"
    },
    {
      "inputs": [
        {
          "internalType": "address",
          "name": "owner",
          "type": "address"
        }
      ],
      "name": "balanceOf",
      "outputs": [
        {
          "internalType": "uint256",
          "name": "",
          "type": "uint256"
        }
      ],
      "stateMutability": "view",
      "type": "function"
    },
    {
      "inputs": [],
      "name": "contractURI",
      "outputs": [
        {
          "internalType": "string",
          "name": "",
          "type": "string"
        }
      ],
      "stateMutability": "view",
      "type": "function"
    },
    {
      "inputs": [],
      "name": "flipSaleState",
      "outputs": [],
      "stateMutability": "nonpayable",
      "type": "function"
    },
    {
      "inputs": [
        {
          "internalType": "uint256",
          "name": "tokenId",
          "type": "uint256"
        }
      ],
      "name": "genTraits",
      "outputs": [
        {
          "internalType": "string[]",
          "name": "",
          "type": "string[]"
        }
      ],
      "stateMutability": "view",
      "type": "function"
    },
    {
      "inputs": [
        {
          "internalType": "uint256",
          "name": "tokenId",
          "type": "uint256"
        }
      ],
      "name": "getApproved",
      "outputs": [
        {
          "internalType": "address",
          "name": "",
          "type": "address"
        }
      ],
      "stateMutability": "view",
      "type": "function"
    },
    {
      "inputs": [
        {
          "internalType": "address",
          "name": "owner",
          "type": "address"
        },
        {
          "internalType": "address",
          "name": "operator",
          "type": "address"
        }
      ],
      "name": "isApprovedForAll",
      "outputs": [
        {
          "internalType": "bool",
          "name": "",
          "type": "bool"
        }
      ],
      "stateMutability": "view",
      "type": "function"
    },
    {
      "inputs": [],
      "name": "lockCanvasSize",
      "outputs": [],
      "stateMutability": "nonpayable",
      "type": "function"
    },
    {
      "inputs": [
        {
          "internalType": "uint256",
          "name": "numMints",
          "type": "uint256"
        }
      ],
      "name": "mintReserve",
      "outputs": [],
      "stateMutability": "nonpayable",
      "type": "function"
    },
    {
      "inputs": [
        {
          "internalType": "uint256",
          "name": "numMints",
          "type": "uint256"
        },
        {
          "internalType": "address",
          "name": "recipient",
          "type": "address"
        }
      ],
      "name": "mintReserveToAddress",
      "outputs": [],
      "stateMutability": "nonpayable",
      "type": "function"
    },
    {
      "inputs": [],
      "name": "name",
      "outputs": [
        {
          "internalType": "string",
          "name": "",
          "type": "string"
        }
      ],
      "stateMutability": "view",
      "type": "function"
    },
    {
      "inputs": [],
      "name": "owner",
      "outputs": [
        {
          "internalType": "address",
          "name": "",
          "type": "address"
        }
      ],
      "stateMutability": "view",
      "type": "function"
    },
    {
      "inputs": [
        {
          "internalType": "uint256",
          "name": "tokenId",
          "type": "uint256"
        }
      ],
      "name": "ownerOf",
      "outputs": [
        {
          "internalType": "address",
          "name": "",
          "type": "address"
        }
      ],
      "stateMutability": "view",
      "type": "function"
    },
    {
      "inputs": [
        {
          "internalType": "uint256",
          "name": "index",
          "type": "uint256"
        }
      ],
      "name": "payee",
      "outputs": [
        {
          "internalType": "address",
          "name": "",
          "type": "address"
        }
      ],
      "stateMutability": "view",
      "type": "function"
    },
    {
      "inputs": [
        {
          "internalType": "uint256",
          "name": "numMints",
          "type": "uint256"
        }
      ],
      "name": "plunder",
      "outputs": [],
      "stateMutability": "payable",
      "type": "function"
    },
    {
      "inputs": [],
      "name": "price",
      "outputs": [
        {
          "internalType": "uint256",
          "name": "",
          "type": "uint256"
        }
      ],
      "stateMutability": "pure",
      "type": "function"
    },
    {
      "inputs": [
        {
          "internalType": "address payable",
          "name": "account",
          "type": "address"
        }
      ],
      "name": "release",
      "outputs": [],
      "stateMutability": "nonpayable",
      "type": "function"
    },
    {
      "inputs": [
        {
          "internalType": "address",
          "name": "account",
          "type": "address"
        }
      ],
      "name": "released",
      "outputs": [
        {
          "internalType": "uint256",
          "name": "",
          "type": "uint256"
        }
      ],
      "stateMutability": "view",
      "type": "function"
    },
    {
      "inputs": [],
      "name": "renounceOwnership",
      "outputs": [],
      "stateMutability": "nonpayable",
      "type": "function"
    },
    {
      "inputs": [],
      "name": "reserved",
      "outputs": [
        {
          "internalType": "uint256",
          "name": "",
          "type": "uint256"
        }
      ],
      "stateMutability": "view",
      "type": "function"
    },
    {
      "inputs": [
        {
          "internalType": "address",
          "name": "from",
          "type": "address"
        },
        {
          "internalType": "address",
          "name": "to",
          "type": "address"
        },
        {
          "internalType": "uint256",
          "name": "tokenId",
          "type": "uint256"
        }
      ],
      "name": "safeTransferFrom",
      "outputs": [],
      "stateMutability": "nonpayable",
      "type": "function"
    },
    {
      "inputs": [
        {
          "internalType": "address",
          "name": "from",
          "type": "address"
        },
        {
          "internalType": "address",
          "name": "to",
          "type": "address"
        },
        {
          "internalType": "uint256",
          "name": "tokenId",
          "type": "uint256"
        },
        {
          "internalType": "bytes",
          "name": "_data",
          "type": "bytes"
        }
      ],
      "name": "safeTransferFrom",
      "outputs": [],
      "stateMutability": "nonpayable",
      "type": "function"
    },
    {
      "inputs": [
        {
          "internalType": "address",
          "name": "operator",
          "type": "address"
        },
        {
          "internalType": "bool",
          "name": "approved",
          "type": "bool"
        }
      ],
      "name": "setApprovalForAll",
      "outputs": [],
      "stateMutability": "nonpayable",
      "type": "function"
    },
    {
      "inputs": [
        {
          "internalType": "uint256",
          "name": "newSize",
          "type": "uint256"
        }
      ],
      "name": "setCanvasSize",
      "outputs": [],
      "stateMutability": "nonpayable",
      "type": "function"
    },
    {
      "inputs": [
        {
          "internalType": "string",
          "name": "__contractURI",
          "type": "string"
        }
      ],
      "name": "setContractURI",
      "outputs": [],
      "stateMutability": "nonpayable",
      "type": "function"
    },
    {
      "inputs": [
        {
          "internalType": "address",
          "name": "account",
          "type": "address"
        }
      ],
      "name": "shares",
      "outputs": [
        {
          "internalType": "uint256",
          "name": "",
          "type": "uint256"
        }
      ],
      "stateMutability": "view",
      "type": "function"
    },
    {
      "inputs": [],
      "name": "status",
      "outputs": [
        {
          "internalType": "bool",
          "name": "",
          "type": "bool"
        }
      ],
      "stateMutability": "view",
      "type": "function"
    },
    {
      "inputs": [
        {
          "internalType": "bytes4",
          "name": "interfaceId",
          "type": "bytes4"
        }
      ],
      "name": "supportsInterface",
      "outputs": [
        {
          "internalType": "bool",
          "name": "",
          "type": "bool"
        }
      ],
      "stateMutability": "view",
      "type": "function"
    },
    {
      "inputs": [],
      "name": "symbol",
      "outputs": [
        {
          "internalType": "string",
          "name": "",
          "type": "string"
        }
      ],
      "stateMutability": "view",
      "type": "function"
    },
    {
      "inputs": [
        {
          "internalType": "uint256",
          "name": "tokenId",
          "type": "uint256"
        }
      ],
      "name": "tokenURI",
      "outputs": [
        {
          "internalType": "string",
          "name": "",
          "type": "string"
        }
      ],
      "stateMutability": "view",
      "type": "function"
    },
    {
      "inputs": [],
      "name": "totalReleased",
      "outputs": [
        {
          "internalType": "uint256",
          "name": "",
          "type": "uint256"
        }
      ],
      "stateMutability": "view",
      "type": "function"
    },
    {
      "inputs": [],
      "name": "totalShares",
      "outputs": [
        {
          "internalType": "uint256",
          "name": "",
          "type": "uint256"
        }
      ],
      "stateMutability": "view",
      "type": "function"
    },
    {
      "inputs": [],
      "name": "totalSupply",
      "outputs": [
        {
          "internalType": "uint256",
          "name": "",
          "type": "uint256"
        }
      ],
      "stateMutability": "view",
      "type": "function"
    },
    {
      "inputs": [
        {
          "internalType": "address",
          "name": "from",
          "type": "address"
        },
        {
          "internalType": "address",
          "name": "to",
          "type": "address"
        },
        {
          "internalType": "uint256",
          "name": "tokenId",
          "type": "uint256"
        }
      ],
      "name": "transferFrom",
      "outputs": [],
      "stateMutability": "nonpayable",
      "type": "function"
    },
    {
      "inputs": [
        {
          "internalType": "address",
          "name": "newOwner",
          "type": "address"
        }
      ],
      "name": "transferOwnership",
      "outputs": [],
      "stateMutability": "nonpayable",
      "type": "function"
    },
    {
      "stateMutability": "payable",
      "type": "receive"
    }
  ],
  "bytecode": "0x6010805462ffffff19166102bc1790556101e060405263030659236080908152630ae7953c60a052631c260e3d60c052633b1e04ac60e0526366333f066101005263973d64d06101205263c2529f2a6101405263e14a95996101605263f2890e9a6101805263fa6a4ab36101a05263fd70a3d66101c0526200008690601190600b62000e6d565b506040805160a0810182526227ed32815263067df14b60208201526332d80df79181019190915263be147ae1606082015263fd70a3d66080820152620000d190601290600562000e6d565b506040805160e0810182526311006df3815263268a9159602082015263620817b091810191909152638a70132a606082015263e98c37c8608082015263f97627d260a082015263fd70a3d560c08201526200013190601390600762000e6d565b5060408051608081018252734f65cdffe6c48ad287f005ad14e78ff6433c8d6781527349b621d1cc662ce293779ec775573d0568a0c7136020820152737db44f46ee7385ad0fd23bd6323f8bd80cf7fe9291810191909152733b20f287b08f39c21d695500e08268c87ecaeb376060820152620001b390601490600462000f23565b506040805160808101825260148152600e602082015260219181018290526060810191909152620001e990601590600462000f7b565b506017805460ff1916905560006018553480156200020657600080fd5b50604051620062de380380620062de833981016040819052620002299162001655565b8a8a8a8a8a8a8a8a8a8a8a60148054806020026020016040519081016040528092919081815260200182805480156200028c57602002820191906000526020600020905b81546001600160a01b031681526001909101906020018083116200026d575b50505050506015805480602002602001604051908101604052809291908181526020018280548015620002df57602002820191906000526020600020905b815481526020019060010190808311620002ca575b5050604080518082018252601781527f54726561737572652028666f722057617272696f72732900000000000000000060208083019182528351808501909452600384526254345760e81b9084015281519195509193506200034692506002919062000fbe565b5080516200035c90600390602084019062000fbe565b505060008055506200036e3362000bc5565b60016009558051825114620003e55760405162461bcd60e51b815260206004820152603260248201527f5061796d656e7453706c69747465723a2070617965657320616e6420736861726044820152710cae640d8cadccee8d040dad2e6dac2e8c6d60731b60648201526084015b60405180910390fd5b6000825111620004385760405162461bcd60e51b815260206004820152601a60248201527f5061796d656e7453706c69747465723a206e6f207061796565730000000000006044820152606401620003dc565b60005b8251811015620004a4576200048f8382815181106200045e576200045e62001875565b60200260200101518383815181106200047b576200047b62001875565b602002602001015162000c1760201b60201c565b806200049b81620018a1565b9150506200043b565b505050620004b88b62000e0560201b60201c565b620004c38a62000e05565b620004ce8962000e05565b620004d98862000e05565b620004e48762000e05565b620004ef8662000e05565b620004fa8562000e05565b620005058462000e05565b620005108362000e05565b6200051b8262000e05565b620005268162000e05565b8a600f6040516200054190631211505160e21b815260040190565b908152602001604051809103902060008201518160000190805190602001906200056d9291906200103b565b50602082810151805162000588926001850192019062000e6d565b5060408201518051620005a69160028401916020909101906200109b565b5060608201518051620005c49160038401916020909101906200109b565b50506040805164544f52534f60d81b8152600f600582015290519081900360250190208b5180518d935062000602918391602091909101906200103b565b5060208281015180516200061d926001850192019062000e6d565b50604082015180516200063b9160028401916020909101906200109b565b5060608201518051620006599160038401916020909101906200109b565b505060408051672327a7aa2ba2a0a960c11b8152600f600882015290519081900360280190208a5180518c93506200069a918391602091909101906200103b565b506020828101518051620006b5926001850192019062000e6d565b5060408201518051620006d39160028401916020909101906200109b565b5060608201518051620006f19160038401916020909101906200109b565b50506040805166424f54544f4d5360c81b8152600f60078201529051908190036027019020895180518b935062000731918391602091909101906200103b565b5060208281015180516200074c926001850192019062000e6d565b50604082015180516200076a9160028401916020909101906200109b565b5060608201518051620007889160038401916020909101906200109b565b505060408051652ba2a0a827a760d11b8152600f60068201529051908190036026019020885180518a9350620007c7918391602091909101906200103b565b506020828101518051620007e2926001850192019062000e6d565b5060408201518051620008009160028401916020909101906200109b565b50606082015180516200081e9160038401916020909101906200109b565b5050604080516514d21251531160d21b8152600f60068201529051908190036026019020875180518993506200085d918391602091909101906200103b565b50602082810151805162000878926001850192019062000e6d565b5060408201518051620008969160028401916020909101906200109b565b5060608201518051620008b49160038401916020909101906200109b565b5050604080516510535553115560d21b8152600f6006820152905190819003602601902086518051889350620008f3918391602091909101906200103b565b5060208281015180516200090e926001850192019062000e6d565b50604082015180516200092c9160028401916020909101906200109b565b50606082015180516200094a9160038401916020909101906200109b565b50506040805169504f535345535349564560b01b8152600f600a820152905190819003602a019020855180518793506200098d918391602091909101906200103b565b506020828101518051620009a8926001850192019062000e6d565b5060408201518051620009c69160028401916020909101906200109b565b5060608201518051620009e49160038401916020909101906200109b565b50506040805164455854524160d81b8152600f600582015290519081900360250190208451805186935062000a22918391602091909101906200103b565b50602082810151805162000a3d926001850192019062000e6d565b506040820151805162000a5b9160028401916020909101906200109b565b506060820151805162000a799160038401916020909101906200109b565b50506040805167135055115492505360c21b8152600f600882015290519081900360280190208351805185935062000aba918391602091909101906200103b565b50602082810151805162000ad5926001850192019062000e6d565b506040820151805162000af39160028401916020909101906200109b565b506060820151805162000b119160038401916020909101906200109b565b505060408051631510525360e21b8152600f600482015290519081900360240190208251805184935062000b4e918391602091909101906200103b565b50602082810151805162000b69926001850192019062000e6d565b506040820151805162000b879160028401916020909101906200109b565b506060820151805162000ba59160038401916020909101906200109b565b509050505050505050505050505050505050505050505050505062001914565b600880546001600160a01b038381166001600160a01b0319831681179093556040519116919082907f8be0079c531659141344cd1fd0a4f28419497f9722a3daafe3b4186f6b6457e090600090a35050565b6001600160a01b03821662000c845760405162461bcd60e51b815260206004820152602c60248201527f5061796d656e7453706c69747465723a206163636f756e74206973207468652060448201526b7a65726f206164647265737360a01b6064820152608401620003dc565b6000811162000cd65760405162461bcd60e51b815260206004820152601d60248201527f5061796d656e7453706c69747465723a207368617265732061726520300000006044820152606401620003dc565b6001600160a01b0382166000908152600c60205260409020541562000d525760405162461bcd60e51b815260206004820152602b60248201527f5061796d656e7453706c69747465723a206163636f756e7420616c726561647960448201526a206861732073686172657360a81b6064820152608401620003dc565b600e8054600181019091557fbb7b4a454dc3493923482f07822329ed19e8244eff582cc204f8554c3620c3fd0180546001600160a01b0319166001600160a01b0384169081179091556000908152600c60205260409020819055600a5462000dbc908290620018bd565b600a55604080516001600160a01b0384168152602081018390527f40c340f65e17194d14ddddb073d3c9f888e3cb52b5aae0c6c7706b4fbc905fac910160405180910390a15050565b8051511580159062000e1d5750602081015151815151145b801562000e60575080515160408201515114801562000e425750805151606082015151145b8062000e60575060408101515115801562000e605750606081015151155b62000e6a57600080fd5b50565b8280548282559060005260206000209060070160089004810192821562000f115791602002820160005b8382111562000edd57835183826101000a81548163ffffffff021916908363ffffffff160217905550926020019260040160208160030104928301926001030262000e97565b801562000f0f5782816101000a81549063ffffffff021916905560040160208160030104928301926001030262000edd565b505b5062000f1f929150620010fb565b5090565b82805482825590600052602060002090810192821562000f11579160200282015b8281111562000f1157825182546001600160a01b0319166001600160a01b0390911617825560209092019160019091019062000f44565b82805482825590600052602060002090810192821562000f11579160200282015b8281111562000f11578251829060ff1690559160200191906001019062000f9c565b82805462000fcc90620018d8565b90600052602060002090601f01602090048101928262000ff0576000855562000f11565b82601f106200100b57805160ff191683800117855562000f11565b8280016001018555821562000f11579182015b8281111562000f115782518255916020019190600101906200101e565b8280548282559060005260206000209081019282156200108d579160200282015b828111156200108d57825180516200107c91849160209091019062000fbe565b50916020019190600101906200105c565b5062000f1f92915062001112565b828054828255906000526020600020908101928215620010ed579160200282015b82811115620010ed5782518051620010dc91849160209091019062001133565b5091602001919060010190620010bc565b5062000f1f929150620011cc565b5b8082111562000f1f5760008155600101620010fc565b8082111562000f1f576000620011298282620011ed565b5060010162001112565b82805482825590600052602060002090601f0160209004810192821562000f115791602002820160005b838211156200119d57835183826101000a81548160ff021916908360ff16021790555092602001926001016020816000010492830192600103026200115d565b801562000f0f5782816101000a81549060ff02191690556001016020816000010492830192600103026200119d565b8082111562000f1f576000620011e382826200122c565b50600101620011cc565b508054620011fb90620018d8565b6000825580601f106200120c575050565b601f01602090049060005260206000209081019062000e6a9190620010fb565b50805460008255601f01602090049060005260206000209081019062000e6a9190620010fb565b634e487b7160e01b600052604160045260246000fd5b604051608081016001600160401b03811182821017156200128e576200128e62001253565b60405290565b604051601f8201601f191681016001600160401b0381118282101715620012bf57620012bf62001253565b604052919050565b60006001600160401b03821115620012e357620012e362001253565b5060051b60200190565b6000601f83818401126200130057600080fd5b82516020620013196200131383620012c7565b62001294565b82815260059290921b850181019181810190878411156200133957600080fd5b8287015b84811015620013fd5780516001600160401b03808211156200135f5760008081fd5b818a0191508a603f830112620013755760008081fd5b85820151818111156200138c576200138c62001253565b6200139f818a01601f1916880162001294565b915080825260408c81838601011115620013b95760008081fd5b60005b82811015620013d9578481018201518482018a01528801620013bc565b82811115620013eb5760008984860101525b5050508452509183019183016200133d565b50979650505050505050565b600082601f8301126200141b57600080fd5b815160206200142e6200131383620012c7565b82815260059290921b840181019181810190868411156200144e57600080fd5b8286015b848110156200147f57805163ffffffff81168114620014715760008081fd5b835291830191830162001452565b509695505050505050565b600082601f8301126200149c57600080fd5b81516020620014af6200131383620012c7565b828152600592831b8501820192828201919087851115620014cf57600080fd5b8387015b85811015620015805780516001600160401b03811115620014f45760008081fd5b8801603f81018a13620015075760008081fd5b8581015160406200151c6200131383620012c7565b82815291851b8301810191888101908d8411156200153a5760008081fd5b938201935b838510156200156e578451925060ff831683146200155d5760008081fd5b82825293890193908901906200153f565b885250505093850193508401620014d3565b5090979650505050505050565b600060808284031215620015a057600080fd5b620015aa62001269565b82519091506001600160401b0380821115620015c557600080fd5b620015d385838601620012ed565b83526020840151915080821115620015ea57600080fd5b620015f88583860162001409565b602084015260408401519150808211156200161257600080fd5b62001620858386016200148a565b604084015260608401519150808211156200163a57600080fd5b5062001649848285016200148a565b60608301525092915050565b60008060008060008060008060008060006101608c8e0312156200167857600080fd5b8b516001600160401b038111156200168f57600080fd5b6200169d8e828f016200158d565b60208e0151909c5090506001600160401b03811115620016bc57600080fd5b620016ca8e828f016200158d565b60408e0151909b5090506001600160401b03811115620016e957600080fd5b620016f78e828f016200158d565b60608e0151909a5090506001600160401b038111156200171657600080fd5b620017248e828f016200158d565b60808e015190995090506001600160401b038111156200174357600080fd5b620017518e828f016200158d565b60a08e015190985090506001600160401b038111156200177057600080fd5b6200177e8e828f016200158d565b60c08e015190975090506001600160401b038111156200179d57600080fd5b620017ab8e828f016200158d565b60e08e015190965090506001600160401b03811115620017ca57600080fd5b620017d88e828f016200158d565b6101008e015190955090506001600160401b03811115620017f857600080fd5b620018068e828f016200158d565b6101208e015190945090506001600160401b038111156200182657600080fd5b620018348e828f016200158d565b6101408e015190935090506001600160401b038111156200185457600080fd5b620018628e828f016200158d565b9150509295989b509295989b9093969950565b634e487b7160e01b600052603260045260246000fd5b634e487b7160e01b600052601160045260246000fd5b600060018201620018b657620018b66200188b565b5060010190565b60008219821115620018d357620018d36200188b565b500190565b600181811c90821680620018ed57607f821691505b6020821081036200190e57634e487b7160e01b600052602260045260246000fd5b50919050565b6149ba80620019246000396000f3fe6080604052600436106102085760003560e01c80638b83209b11610118578063c05702cb116100a0578063e8a3d4851161006f578063e8a3d48514610624578063e985e9c514610639578063f2fde38b14610659578063f906751b14610679578063fe60d12c1461069957600080fd5b8063c05702cb1461058c578063c87b56dd146105b9578063ce7c2ac2146105d9578063e33b7de31461060f57600080fd5b806395d89b41116100e757806395d89b41146104e75780639852595c146104fc578063a035b1fe14610532578063a22cb4651461054c578063b88d4fde1461056c57600080fd5b80638b83209b146104765780638da5cb5b14610496578063910fc67d146104b4578063938e3d7b146104c757600080fd5b8063200d2ed21161019b57806342842e0e1161016a57806342842e0e146103e15780634e8c5e26146104015780636352211e1461042157806370a0823114610441578063715018a61461046157600080fd5b8063200d2ed21461037f57806323b872dd1461039757806334918dfd146103b75780633a98ef39146103cc57600080fd5b8063095ea7b3116101d7578063095ea7b31461030757806318160ddd14610327578063191655871461034a57806319dc2c901461036a57600080fd5b806301ffc9a71461025657806306fdde031461028b57806307e3aa71146102ad578063081812fc146102cf57600080fd5b36610251577f6ef95f06320e7a25a04a175ca677b7052bdd97131872c2192525a629f51be77033604080516001600160a01b0390921682523460208301520160405180910390a1005b600080fd5b34801561026257600080fd5b50610276610271366004613b49565b6106ae565b60405190151581526020015b60405180910390f35b34801561029757600080fd5b506102a0610700565b6040516102829190613bbe565b3480156102b957600080fd5b506102cd6102c8366004613be6565b610792565b005b3480156102db57600080fd5b506102ef6102ea366004613c16565b61087e565b6040516001600160a01b039091168152602001610282565b34801561031357600080fd5b506102cd610322366004613c2f565b6108c2565b34801561033357600080fd5b50600154600054035b604051908152602001610282565b34801561035657600080fd5b506102cd610365366004613c5b565b61094f565b34801561037657600080fd5b506102cd610b23565b34801561038b57600080fd5b5060175460ff16610276565b3480156103a357600080fd5b506102cd6103b2366004613c78565b610b60565b3480156103c357600080fd5b506102cd610b6b565b3480156103d857600080fd5b50600a5461033c565b3480156103ed57600080fd5b506102cd6103fc366004613c78565b610ba9565b34801561040d57600080fd5b506102cd61041c366004613c16565b610bc4565b34801561042d57600080fd5b506102ef61043c366004613c16565b610c97565b34801561044d57600080fd5b5061033c61045c366004613c5b565b610ca9565b34801561046d57600080fd5b506102cd610cf7565b34801561048257600080fd5b506102ef610491366004613c16565b610d2d565b3480156104a257600080fd5b506008546001600160a01b03166102ef565b6102cd6104c2366004613c16565b610d5d565b3480156104d357600080fd5b506102cd6104e2366004613d44565b610f7f565b3480156104f357600080fd5b506102a0610fbc565b34801561050857600080fd5b5061033c610517366004613c5b565b6001600160a01b03166000908152600d602052604090205490565b34801561053e57600080fd5b50669536c70891000061033c565b34801561055857600080fd5b506102cd610567366004613d8c565b610fcb565b34801561057857600080fd5b506102cd610587366004613dbf565b611060565b34801561059857600080fd5b506105ac6105a7366004613c16565b6110b1565b6040516102829190613e3e565b3480156105c557600080fd5b506102a06105d4366004613c16565b611173565b3480156105e557600080fd5b5061033c6105f4366004613c5b565b6001600160a01b03166000908152600c602052604090205490565b34801561061b57600080fd5b50600b5461033c565b34801561063057600080fd5b506102a06111a4565b34801561064557600080fd5b50610276610654366004613ea0565b6111b3565b34801561066557600080fd5b506102cd610674366004613c5b565b6111e1565b34801561068557600080fd5b506102cd610694366004613c16565b61127c565b3480156106a557600080fd5b5060185461033c565b60006001600160e01b031982166380ac58cd60e01b14806106df57506001600160e01b03198216635b5e139f60e01b145b806106fa57506301ffc9a760e01b6001600160e01b03198316145b92915050565b60606002805461070f90613ece565b80601f016020809104026020016040519081016040528092919081815260200182805461073b90613ece565b80156107885780601f1061075d57610100808354040283529160200191610788565b820191906000526020600020905b81548152906001019060200180831161076b57829003601f168201915b5050505050905090565b6008546001600160a01b031633146107c55760405162461bcd60e51b81526004016107bc90613f08565b60405180910390fd5b612710826107d260005490565b6107dc9190613f53565b11156107fa5760405162461bcd60e51b81526004016107bc90613f6b565b60fa8260185461080a9190613f53565b11156108585760405162461bcd60e51b815260206004820152601f60248201527f4e6577206d696e742065786365656473207265736572766520737570706c790060448201526064016107bc565b816018600082825461086a9190613f53565b9091555061087a90508183611357565b5050565b600061088982611489565b6108a6576040516333d1c03960e21b815260040160405180910390fd5b506000908152600660205260409020546001600160a01b031690565b60006108cd82610c97565b9050806001600160a01b0316836001600160a01b0316036109015760405163250fdee360e21b815260040160405180910390fd5b336001600160a01b03821614801590610921575061091f81336111b3565b155b1561093f576040516367d9dca160e11b815260040160405180910390fd5b61094a8383836114b4565b505050565b6001600160a01b0381166000908152600c60205260409020546109c35760405162461bcd60e51b815260206004820152602660248201527f5061796d656e7453706c69747465723a206163636f756e7420686173206e6f2060448201526573686172657360d01b60648201526084016107bc565b6000600b54476109d39190613f53565b6001600160a01b0383166000908152600d6020908152604080832054600a54600c909352908320549394509192610a0a9085613fa2565b610a149190613fd7565b610a1e9190613feb565b905080600003610a845760405162461bcd60e51b815260206004820152602b60248201527f5061796d656e7453706c69747465723a206163636f756e74206973206e6f742060448201526a191d59481c185e5b595b9d60aa1b60648201526084016107bc565b6001600160a01b0383166000908152600d6020526040902054610aa8908290613f53565b6001600160a01b0384166000908152600d6020526040902055600b54610acf908290613f53565b600b55610adc8382611510565b604080516001600160a01b0385168152602081018390527fdf20fd1e76bc69d672e4814fafb2c449bba3a5369d8359adf9e05e6fde87b056910160405180910390a1505050565b6008546001600160a01b03163314610b4d5760405162461bcd60e51b81526004016107bc90613f08565b6010805462ff0000191662010000179055565b61094a838383611629565b6008546001600160a01b03163314610b955760405162461bcd60e51b81526004016107bc90613f08565b6017805460ff19811660ff90911615179055565b61094a83838360405180602001604052806000815250611060565b6008546001600160a01b03163314610bee5760405162461bcd60e51b81526004016107bc90613f08565b60105462010000900460ff1615610c3c5760405162461bcd60e51b815260206004820152601260248201527110d85b9d985cc81cda5e99481b1bd8dad95960721b60448201526064016107bc565b61ffff8110610c7f5760405162461bcd60e51b815260206004820152600f60248201526e56616c756520746f6f206c6172676560881b60448201526064016107bc565b6010805461ffff191661ffff92909216919091179055565b6000610ca282611816565b5192915050565b60006001600160a01b038216610cd2576040516323d3ad8160e21b815260040160405180910390fd5b506001600160a01b03166000908152600560205260409020546001600160401b031690565b6008546001600160a01b03163314610d215760405162461bcd60e51b81526004016107bc90613f08565b610d2b6000611930565b565b6000600e8281548110610d4257610d42614002565b6000918252602090912001546001600160a01b031692915050565b600260095403610daf5760405162461bcd60e51b815260206004820152601f60248201527f5265656e7472616e637947756172643a207265656e7472616e742063616c6c0060448201526064016107bc565b600260095560175460ff16610df75760405162461bcd60e51b815260206004820152600e60248201526d14d85b19481a5cc81c185d5cd95960921b60448201526064016107bc565b610e0881669536c708910000613fa2565b341015610e4f5760405162461bcd60e51b8152602060048201526015602482015274139bdd08195b9bdd59da08195d1a195c881cd95b9d605a1b60448201526064016107bc565b61271081610e5c60005490565b610e669190613f53565b1115610e845760405162461bcd60e51b81526004016107bc90613f6b565b601854610e9460fa612710613feb565b610e9e9190613f53565b81610ea860005490565b610eb29190613f53565b1115610f125760405162461bcd60e51b815260206004820152602960248201527f4e6577206d696e742065786365656473206d6178696d756d20617661696c61626044820152686c6520737570706c7960b81b60648201526084016107bc565b6019811115610f6d5760405162461bcd60e51b815260206004820152602160248201527f45786365656473206d6178206d696e747320706572207472616e73616374696f6044820152603760f91b60648201526084016107bc565b610f773382611357565b506001600955565b6008546001600160a01b03163314610fa95760405162461bcd60e51b81526004016107bc90613f08565b805161087a906016906020840190613a9a565b60606003805461070f90613ece565b336001600160a01b03831603610ff45760405163b06307db60e01b815260040160405180910390fd5b3360008181526007602090815260408083206001600160a01b03871680855290835292819020805460ff191686151590811790915590519081529192917f17307eab39ab6107e8899845ad3d59bd9653f200f220920489ca2b5937696c31910160405180910390a35050565b61106b848484611629565b6001600160a01b0383163b1515801561108d575061108b84848484611982565b155b156110ab576040516368d2bf6b60e11b815260040160405180910390fd5b50505050565b606060006110be83611a6e565b9050600081516001600160401b038111156110db576110db613cb9565b60405190808252806020026020018201604052801561110e57816020015b60608152602001906001900390816110f95790505b50905060005b825181101561116b5782818151811061112f5761112f614002565b60200260200101516000015182828151811061114d5761114d614002565b6020026020010181905250808061116390614018565b915050611114565b509392505050565b606061117e82611489565b61119b57604051630a14c4b560e41b815260040160405180910390fd5b6106fa82611e68565b60606016805461070f90613ece565b6001600160a01b03918216600090815260076020908152604080832093909416825291909152205460ff1690565b6008546001600160a01b0316331461120b5760405162461bcd60e51b81526004016107bc90613f08565b6001600160a01b0381166112705760405162461bcd60e51b815260206004820152602660248201527f4f776e61626c653a206e6577206f776e657220697320746865207a65726f206160448201526564647265737360d01b60648201526084016107bc565b61127981611930565b50565b6008546001600160a01b031633146112a65760405162461bcd60e51b81526004016107bc90613f08565b612710816112b360005490565b6112bd9190613f53565b11156112db5760405162461bcd60e51b81526004016107bc90613f6b565b60fa816018546112eb9190613f53565b11156113395760405162461bcd60e51b815260206004820152601f60248201527f4e6577206d696e742065786365656473207265736572766520737570706c790060448201526064016107bc565b806018600082825461134b9190613f53565b90915550611279905033825b6000546001600160a01b03831661138057604051622e076360e81b815260040160405180910390fd5b816000036113a15760405163b562e8dd60e01b815260040160405180910390fd5b6001600160a01b038316600081815260056020908152604080832080546fffffffffffffffffffffffffffffffff1981166001600160401b038083168a0181169182176801000000000000000067ffffffffffffffff1990941690921783900481168a01811690920217909155858452600490925290912080546001600160e01b031916909217600160a01b4290921691909102179055808083015b6040516001830192906001600160a01b038716906000907fddf252ad1be2c89b69c2b068fc378daa952ba7f163c4a11628f55a4df523b3ef908290a480821061143d5750600055505050565b60008054821080156106fa575050600090815260046020526040902054600160e01b900460ff161590565b60008281526006602052604080822080546001600160a01b0319166001600160a01b0387811691821790925591518593918516917f8c5be1e5ebec7d5bd14f71427d1e84f3dd0314c0f7b2291e5b200ac8c7c3b92591a4505050565b804710156115605760405162461bcd60e51b815260206004820152601d60248201527f416464726573733a20696e73756666696369656e742062616c616e636500000060448201526064016107bc565b6000826001600160a01b03168260405160006040518083038185875af1925050503d80600081146115ad576040519150601f19603f3d011682016040523d82523d6000602084013e6115b2565b606091505b505090508061094a5760405162461bcd60e51b815260206004820152603a60248201527f416464726573733a20756e61626c6520746f2073656e642076616c75652c207260448201527f6563697069656e74206d6179206861766520726576657274656400000000000060648201526084016107bc565b600061163482611816565b9050836001600160a01b031681600001516001600160a01b03161461166b5760405162a1148160e81b815260040160405180910390fd5b6000336001600160a01b0386161480611689575061168985336111b3565b806116a45750336116998461087e565b6001600160a01b0316145b9050806116c457604051632ce44b5f60e11b815260040160405180910390fd5b6001600160a01b0384166116eb57604051633a954ecd60e21b815260040160405180910390fd5b6116f7600084876114b4565b6001600160a01b038581166000908152600560209081526040808320805467ffffffffffffffff198082166001600160401b0392831660001901831617909255898616808652838620805493841693831660019081018416949094179055898652600490945282852080546001600160e01b031916909417600160a01b429092169190910217835587018084529220805491939091166117cb5760005482146117cb57805460208601516001600160401b0316600160a01b026001600160e01b03199091166001600160a01b038a16171781555b50505082846001600160a01b0316866001600160a01b03167fddf252ad1be2c89b69c2b068fc378daa952ba7f163c4a11628f55a4df523b3ef60405160405180910390a45050505050565b60408051606081018252600080825260208201819052918101919091528160005481101561191757600081815260046020908152604091829020825160608101845290546001600160a01b0381168252600160a01b81046001600160401b031692820192909252600160e01b90910460ff161515918101829052906119155780516001600160a01b0316156118ac579392505050565b5060001901600081815260046020908152604091829020825160608101845290546001600160a01b038116808352600160a01b82046001600160401b031693830193909352600160e01b900460ff1615159281019290925215611910579392505050565b6118ac565b505b604051636f96cda160e11b815260040160405180910390fd5b600880546001600160a01b038381166001600160a01b0319831681179093556040519116919082907f8be0079c531659141344cd1fd0a4f28419497f9722a3daafe3b4186f6b6457e090600090a35050565b604051630a85bd0160e11b81526000906001600160a01b0385169063150b7a02906119b7903390899088908890600401614031565b6020604051808303816000875af19250505080156119f2575060408051601f3d908101601f191682019092526119ef9181019061406e565b60015b611a50573d808015611a20576040519150601f19603f3d011682016040523d82523d6000602084013e611a25565b606091505b508051600003611a48576040516368d2bf6b60e11b815260040160405180910390fd5b805181602001fd5b6001600160e01b031916630a85bd0160e11b1490505b949350505050565b60606000611b226011805480602002602001604051908101604052809291908181526020018280548015611aed57602002820191906000526020600020906000905b82829054906101000a900463ffffffff1663ffffffff1681526020019060040190602082600301049283019260010382029150808411611ab05790505b5050505050611b1b6000604051806040016040528060058152602001644954454d5360d81b815250876122a7565b600061230e565b611b2d906008613f53565b90506000611b3b8483612479565b905081815114611b835760405162461bcd60e51b815260206004820152601360248201527209ac2d2dc40d2e8cadae640dad2e6dac2e8c6d606b1b60448201526064016107bc565b6000826001600160401b03811115611b9d57611b9d613cb9565b604051908082528060200260200182016040528015611be257816020015b6040805180820190915260608082526020820152815260200190600190039081611bbb5790505b50905060005b83811015611e5f57828181518110611c0257611c02614002565b6020026020010151600003611c6257611c40611c1e87836125b5565b604051806040016040528060048152602001631219585960e21b8152506125de565b828281518110611c5257611c52614002565b6020026020010181905250611e4d565b828181518110611c7457611c74614002565b6020026020010151600103611cb357611c40611c90878361262b565b60405180604001604052806005815260200164546f72736f60d81b8152506125de565b828181518110611cc557611cc5614002565b6020026020010151600203611d0757611c40611ce18783612655565b604051806040016040528060088152602001672337b7ba3bb2b0b960c11b8152506125de565b828181518110611d1957611d19614002565b6020026020010151600303611d5a57611c40611d358783612682565b60405180604001604052806007815260200166426f74746f6d7360c81b8152506125de565b828181518110611d6c57611d6c614002565b6020026020010151600403611dac57611c40611d8887836126ae565b604051806040016040528060068152602001652bb2b0b837b760d11b8152506125de565b828181518110611dbe57611dbe614002565b6020026020010151600503611dfe57611c40611dda87836126d9565b6040518060400160405280600681526020016514da1a595b1960d21b8152506125de565b611e2f611e0b8783612704565b60405180604001604052806006815260200165105b5d5b195d60d21b8152506125de565b828281518110611e4157611e41614002565b60200260200101819052505b80611e5781614018565b915050611be8565b50949350505050565b60606000611e7583611a6e565b9050600081516002611e879190613fa2565b611e92906001613f53565b6001600160401b03811115611ea957611ea9613cb9565b604051908082528060200260200182016040528015611edc57816020015b6060815260200190600190039081611ec75790505b50601054909150611ef09061ffff1661272f565b601054611f009061ffff1661272f565b604051602001611f119291906140a7565b60405160208183030381529060405281600081518110611f3357611f33614002565b602090810291909101015260015b825181101561201f5782611f56600183613feb565b81518110611f6657611f66614002565b602002602001015160000151826001836002611f829190613fa2565b611f8c9190613feb565b81518110611f9c57611f9c614002565b6020908102919091010152611fc5611fb5826022613fa2565b611fc0906022613f53565b61272f565b604051602001611fd5919061428f565b60408051601f1981840301815291905282611ff1836002613fa2565b8151811061200157612001614002565b6020026020010181905250808061201790614018565b915050611f41565b50816001835161202f9190613feb565b8151811061203f5761203f614002565b602002602001015160000151816002835161205a9190613feb565b8151811061206a5761206a614002565b60209081029190910101526010546120969061208d9061014a9061ffff166142ed565b61ffff1661272f565b6010546120ad9061208d90601e9061ffff166142ed565b6040516020016120be929190614310565b60405160208183030381529060405281600183516120dc9190613feb565b815181106120ec576120ec614002565b6020026020010181905250600060405180602001604052806000815250905060005b8251811015612167578183828151811061212a5761212a614002565b60200260200101516040516020016121439291906143b5565b6040516020818303038152906040529150808061215f90614018565b91505061210e565b506040805180820190915260018152605b60f81b602082015260005b600185516121919190613feb565b8110156121ec57818582815181106121ab576121ab614002565b6020026020010151602001516040516020016121c89291906143e4565b604051602081830303815290604052915080806121e490614018565b915050612183565b508084600186516121fd9190613feb565b8151811061220d5761220d614002565b60200260200101516020015160405160200161222a9291906143b5565b604051602081830303815290604052905060006122796122498861272f565b836122538661282f565b6040516020016122659392919061441f565b60405160208183030381529060405261282f565b90508060405160200161228c9190614616565b60408051601f19818403018152919052979650505050505050565b60006122b28461272f565b836122bc8461272f565b6040516020016122ce9392919061465b565b60408051601f19818403018152908290526122eb9160200161469e565b6040516020818303038152906040528051906020012060001c90505b9392505050565b6000601282118061231f5750600882105b612329578161232c565b60125b915060005b845181101561234c578061234481614018565b915050612331565b506000846001865161235e9190613feb565b8151811061236e5761236e614002565b602002602001015163ffffffff1690506000600460028560126123919190613feb565b61239b919061479e565b6123a660a985613fd7565b6123b09190613fa2565b901c905060008651826123c39190613fa2565b6123cd9084613f53565b6123d790876147ad565b905060005b8751811015612448576123f0816001613f53565b6123fa9084613fa2565b88828151811061240c5761240c614002565b602002602001015163ffffffff166124249190613f53565b82101561243657935061230792505050565b8061244081614018565b9150506123dc565b5060405162461bcd60e51b815260206004820152600560248201526422a92927a960d91b60448201526064016107bc565b60606000826001600160401b0381111561249557612495613cb9565b6040519080825280602002602001820160405280156124be578160200160208202803683370190505b50905060005b8381101561116b576000612582601380548060200260200160405190810160405280929190818152602001828054801561254957602002820191906000526020600020906000905b82829054906101000a900463ffffffff1663ffffffff168152602001906004019060208260030104928301926001038202915080841161250c5790505b5050505050611b1b84600161255e9190613f53565b604051806040016040528060058152602001644d41494e5360d81b8152508a6122a7565b90508083838151811061259757612597614002565b602090810291909101015250806125ad81614018565b9150506124c4565b60606123078383604051806040016040528060048152602001631211505160e21b815250612981565b6040805180820190915260608082526020820152600082846040516020016126079291906147c1565b60408051601f19818403018152828201909152858252602082015291505092915050565b6060612307838360405180604001604052806005815260200164544f52534f60d81b815250612981565b60606123078383604051806040016040528060088152602001672327a7aa2ba2a0a960c11b815250612981565b6060612307838360405180604001604052806007815260200166424f54544f4d5360c81b815250612981565b60606123078383604051806040016040528060068152602001652ba2a0a827a760d11b815250612981565b606061230783836040518060400160405280600681526020016514d21251531160d21b815250612981565b606061230783836040518060400160405280600681526020016510535553115560d21b815250612981565b6060816000036127565750506040805180820190915260018152600360fc1b602082015290565b8160005b8115612780578061276a81614018565b91506127799050600a83613fd7565b915061275a565b6000816001600160401b0381111561279a5761279a613cb9565b6040519080825280601f01601f1916602001820160405280156127c4576020820181803683370190505b5090505b8415611a66576127d9600183613feb565b91506127e6600a866147ad565b6127f1906030613f53565b60f81b81838151811061280657612806614002565b60200101906001600160f81b031916908160001a905350612828600a86613fd7565b94506127c8565b6060815160000361284e57505060408051602081019091526000815290565b6000604051806060016040528060408152602001614945604091399050600060038451600261287d9190613f53565b6128879190613fd7565b612892906004613fa2565b6001600160401b038111156128a9576128a9613cb9565b6040519080825280601f01601f1916602001820160405280156128d3576020820181803683370190505b509050600182016020820185865187015b8082101561293f576003820191508151603f8160121c168501518453600184019350603f81600c1c168501518453600184019350603f8160061c168501518453600184019350603f81168501518453506001830192506128e4565b505060038651066001811461295b576002811461296e57612976565b603d6001830353603d6002830353612976565b603d60018303535b509195945050505050565b60606000612a2e6011805480602002602001604051908101604052809291908181526020018280548015612a0057602002820191906000526020600020906000905b82829054906101000a900463ffffffff1663ffffffff16815260200190600401906020826003010492830192600103820291508084116129c35790505b5050505050611b1b6000604051806040016040528060058152602001644954454d5360d81b815250896122a7565b612a39906008613f53565b90506000612a488585886122a7565b90506000612a79866040518060400160405280600a815260200169504f535345535349564560b01b815250896122a7565b90506000612aa58760405180604001604052806005815260200164455854524160d81b8152508a6122a7565b90506000612ad48860405180604001604052806008815260200167135055115492505360c21b8152508b6122a7565b90506000612aff89604051806040016040528060048152602001631510525360e21b8152508c6122a7565b90506000612ba3600f8a604051612b16919061469e565b9081526040805191829003602090810183206001018054808302850183019093528284529190830182828015612b9757602002820191906000526020600020906000905b82829054906101000a900463ffffffff1663ffffffff1681526020019060040190602082600301049283019260010382029150808411612b5a5790505b5050505050878961230e565b90506000600f8a604051612bb7919061469e565b90815260200160405180910390206000018281548110612bd957612bd9614002565b906000526020600020018054612bee90613ece565b80601f0160208091040260200160405190810160405280929190818152602001828054612c1a90613ece565b8015612c675780601f10612c3c57610100808354040283529160200191612c67565b820191906000526020600020905b815481529060010190602001808311612c4a57829003601f168201915b505050505090506000612c7b8b8e8e6131a7565b90508051600003612c96575097506123079650505050505050565b60408051600580825260c08201909252600091816020015b6060815260200190600190039081612cae5790505090508281600381518110612cd957612cd9614002565b602002602001018190525060005b825181101561310657828181518110612d0257612d02614002565b6020026020010151600703612e3d5760405169504f535345535349564560b01b8152600f90600a0190815260405190819003602001812069504f535345535349564560b01b825290612de190600f90600a019081526040805191829003602090810183206001018054808302850183019093528284529190830182828015612dd557602002820191906000526020600020906000905b82829054906101000a900463ffffffff1663ffffffff1681526020019060040190602082600301049283019260010382029150808411612d985790505b50505050508b8e61230e565b81548110612df157612df1614002565b90600052602060002001604051602001612e0b91906148cd565b60405160208183030381529060405282600081518110612e2d57612e2d614002565b60200260200101819052506130f4565b828181518110612e4f57612e4f614002565b6020026020010151600803612f01576000612e888e60405180604001604052806005815260200164455854524160d81b8152508861350a565b90508060000151612ea6612e9f8360200151613921565b8b8f61230e565b81518110612eb657612eb6614002565b6020026020010151604051602001612ece91906148ea565b60405160208183030381529060405283600181518110612ef057612ef0614002565b6020026020010181905250506130f4565b828181518110612f1357612f13614002565b6020026020010151600903612fb7576000612f4f8e60405180604001604052806008815260200167135055115492505360c21b8152508861350a565b90508060000151612f6d612f668360200151613921565b8a8f61230e565b81518110612f7d57612f7d614002565b6020026020010151604051602001612f9591906148ea565b60405160208183030381529060405283600281518110612ef057612ef0614002565b828181518110612fc957612fc9614002565b6020026020010151600a036130f457604051631510525360e21b8152600f90600401908152604051908190036020018120631510525360e21b82529061309c90600f90600401908152604080519182900360209081018320600101805480830285018301909352828452919083018282801561309057602002820191906000526020600020906000905b82829054906101000a900463ffffffff1663ffffffff16815260200190600401906020826003010492830192600103820291508084116130535790505b5050505050888e61230e565b815481106130ac576130ac614002565b906000526020600020016040516020016130c6919061490f565b604051602081830303815290604052826004815181106130e8576130e8614002565b60200260200101819052505b806130fe81614018565b915050612ce7565b50604080516020810190915260008082525b825181101561319457600083828151811061313557613135614002565b6020026020010151511115613182578183828151811061315757613157614002565b60200260200101516040516020016131709291906143b5565b60405160208183030381529060405291505b8061318c81614018565b915050613118565b509e9d5050505050505050505050505050565b60606000613252601280548060200260200160405190810160405280929190818152602001828054801561322657602002820191906000526020600020906000905b82829054906101000a900463ffffffff1663ffffffff16815260200190600401906020826003010492830192600103820291508084116131e95790505b5050505050611b1b85604051806040016040528060048152602001634d4f445360e01b815250886122a7565b90506000816001600160401b0381111561326e5761326e613cb9565b604051908082528060200260200182016040528015613297578160200160208202803683370190505b5060408051600480825260a082019092529192506000919060208201608080368337019050509050600f6040516132de9069504f535345535349564560b01b8152600a0190565b908152604051908190036020019020600101546132fe90620f4240613fa2565b8160008151811061331157613311614002565b602002602001019063ffffffff16908163ffffffff1681525050600f8760405161333b919061469e565b9081526040519081900360200190206002015461335b90620f4240613fa2565b8160018151811061336e5761336e614002565b602002602001019063ffffffff16908163ffffffff1681525050600f87604051613398919061469e565b908152604051908190036020019020600301546133b890620f4240613fa2565b816002815181106133cb576133cb614002565b63ffffffff90921660209283029190910190910152604051631510525360e21b8152600f906004019081526040519081900360200190206001015461341390620f4240613fa2565b8160038151811061342657613426614002565b602002602001019063ffffffff16908163ffffffff168152505060005b838110156134fe57600061348261345b836001613f53565b6040518060400160405280600881526020016726a7a224a324a2a960c11b8152508a6122a7565b9050600061349a61349285613921565b83600061230e565b90506134a7816007613f53565b8584815181106134b9576134b9614002565b6020026020010181815250508381815181106134d7576134d7614002565b60200260200101600063ffffffff16815250505080806134f690614018565b915050613443565b50909695505050505050565b6135356040518060800160405280606081526020016060815260200160608152602001606081525090565b600061355e8460405180604001604052806005815260200164455854524160d81b815250613a41565b6135a357600f85604051613572919061469e565b9081526020016040518091039020600301838154811061359457613594614002565b906000526020600020016135e0565b600f856040516135b3919061469e565b908152602001604051809103902060020183815481106135d5576135d5614002565b906000526020600020015b80548060200260200160405190810160405280929190818152602001828054801561364857602002820191906000526020600020906000905b825461010083900a900460ff168152602060019283018181049485019490930390920291018084116136195790505b505050505090506000604051806080016040528083516001600160401b0381111561367557613675613cb9565b6040519080825280602002602001820160405280156136a857816020015b60608152602001906001900390816136935790505b50815260200183516001600160401b038111156136c7576136c7613cb9565b6040519080825280602002602001820160405280156136f0578160200160208202803683370190505b508152602001600060405190808252806020026020018201604052801561372b57816020015b60608152602001906001900390816137165790505b508152602001600060405190808252806020026020018201604052801561376657816020015b60608152602001906001900390816137515790505b509052905060005b825181101561391757600083828151811061378b5761378b614002565b60200260200101519050600f876040516137a5919061469e565b90815260200160405180910390206000018160ff16815481106137ca576137ca614002565b9060005260206000200180546137df90613ece565b80601f016020809104026020016040519081016040528092919081815260200182805461380b90613ece565b80156138585780601f1061382d57610100808354040283529160200191613858565b820191906000526020600020905b81548152906001019060200180831161383b57829003601f168201915b50505050508360000151838151811061387357613873614002565b6020026020010181905250600f8760405161388e919061469e565b90815260200160405180910390206001018160ff16815481106138b3576138b3614002565b90600052602060002090600891828204019190066004029054906101000a900463ffffffff16836020015183815181106138ef576138ef614002565b63ffffffff90921660209283029190910190910152508061390f81614018565b91505061376e565b5095945050505050565b606060008083516001600160401b0381111561393f5761393f613cb9565b604051908082528060200260200182016040528015613968578160200160208202803683370190505b50905060005b845181101561116b5763ffffffff801685828151811061399057613990614002565b6020026020010151846139a39190614925565b63ffffffff16106139e05760405162461bcd60e51b8152602060048201526007602482015266546f6f2042696760c81b60448201526064016107bc565b8481815181106139f2576139f2614002565b602002602001015183613a059190614925565b925082828281518110613a1a57613a1a614002565b63ffffffff9092166020928302919091019091015280613a3981614018565b91505061396e565b600081604051602001613a54919061469e565b6040516020818303038152906040528051906020012083604051602001613a7b919061469e565b6040516020818303038152906040528051906020012014905092915050565b828054613aa690613ece565b90600052602060002090601f016020900481019282613ac85760008555613b0e565b82601f10613ae157805160ff1916838001178555613b0e565b82800160010185558215613b0e579182015b82811115613b0e578251825591602001919060010190613af3565b50613b1a929150613b1e565b5090565b5b80821115613b1a5760008155600101613b1f565b6001600160e01b03198116811461127957600080fd5b600060208284031215613b5b57600080fd5b813561230781613b33565b60005b83811015613b81578181015183820152602001613b69565b838111156110ab5750506000910152565b60008151808452613baa816020860160208601613b66565b601f01601f19169290920160200192915050565b6020815260006123076020830184613b92565b6001600160a01b038116811461127957600080fd5b60008060408385031215613bf957600080fd5b823591506020830135613c0b81613bd1565b809150509250929050565b600060208284031215613c2857600080fd5b5035919050565b60008060408385031215613c4257600080fd5b8235613c4d81613bd1565b946020939093013593505050565b600060208284031215613c6d57600080fd5b813561230781613bd1565b600080600060608486031215613c8d57600080fd5b8335613c9881613bd1565b92506020840135613ca881613bd1565b929592945050506040919091013590565b634e487b7160e01b600052604160045260246000fd5b60006001600160401b0380841115613ce957613ce9613cb9565b604051601f8501601f19908116603f01168101908282118183101715613d1157613d11613cb9565b81604052809350858152868686011115613d2a57600080fd5b858560208301376000602087830101525050509392505050565b600060208284031215613d5657600080fd5b81356001600160401b03811115613d6c57600080fd5b8201601f81018413613d7d57600080fd5b611a6684823560208401613ccf565b60008060408385031215613d9f57600080fd5b8235613daa81613bd1565b915060208301358015158114613c0b57600080fd5b60008060008060808587031215613dd557600080fd5b8435613de081613bd1565b93506020850135613df081613bd1565b92506040850135915060608501356001600160401b03811115613e1257600080fd5b8501601f81018713613e2357600080fd5b613e3287823560208401613ccf565b91505092959194509250565b6000602080830181845280855180835260408601915060408160051b870101925083870160005b82811015613e9357603f19888603018452613e81858351613b92565b94509285019290850190600101613e65565b5092979650505050505050565b60008060408385031215613eb357600080fd5b8235613ebe81613bd1565b91506020830135613c0b81613bd1565b600181811c90821680613ee257607f821691505b602082108103613f0257634e487b7160e01b600052602260045260246000fd5b50919050565b6020808252818101527f4f776e61626c653a2063616c6c6572206973206e6f7420746865206f776e6572604082015260600190565b634e487b7160e01b600052601160045260246000fd5b60008219821115613f6657613f66613f3d565b500190565b6020808252601f908201527f4e6577206d696e742065786365656473206d6178696d756d20737570706c7900604082015260600190565b6000816000190483118215151615613fbc57613fbc613f3d565b500290565b634e487b7160e01b600052601260045260246000fd5b600082613fe657613fe6613fc1565b500490565b600082821015613ffd57613ffd613f3d565b500390565b634e487b7160e01b600052603260045260246000fd5b60006001820161402a5761402a613f3d565b5060010190565b6001600160a01b038581168252841660208201526040810183905260806060820181905260009061406490830184613b92565b9695505050505050565b60006020828403121561408057600080fd5b815161230781613b33565b6000815161409d818560208601613b66565b9290920192915050565b7f3c73766720786d6c6e733d22687474703a2f2f7777772e77332e6f72672f323081527f30302f73766722207072657365727665417370656374526174696f3d22784d6960208201527f6e594d696e206d656574222076696577426f783d22302030200000000000000060408201526000835161412b816059850160208801613b66565b600160fd1b605991840191820152835161414c81605a840160208801613b66565b7f223e3c7374796c653e2e62617365207b2066696c6c3a20626c61636b3b20666f605a92909101918201527f6e742d66616d696c793a20616c656f3b20666f6e742d73697a653a2031397078607a8201527f3b207d3c2f7374796c653e3c7374796c653e2e7469746c65207b2066696c6c3a609a8201527f20626c61636b3b20666f6e742d66616d696c793a20616c656f3b20666f6e742d60ba8201527f73697a653a20323870783b20666f6e742d7374796c653a20626f6c643b207d3c60da8201527f2f7374796c653e3c726563742077696474683d2231303025222068656967687460fa8201527f3d2231303025222066696c6c3d222346463846303022202f3e3c74657874207861011a8201527f3d2233342220793d2233342220636c6173733d2262617365223e00000000000061013a82015261015401949350505050565b7f3c2f746578743e3c7465787420783d2233342220793d220000000000000000008152600082516142c7816017850160208701613b66565b6e111031b630b9b99e913130b9b2911f60891b6017939091019283015250602601919050565b600061ffff8381169083168181101561430857614308613f3d565b039392505050565b6f1e17ba32bc3a1f1e3a32bc3a103c1e9160811b8152825160009061433c816010850160208801613b66565b6411103c9e9160d91b6010918401918201528351614361816015840160208801613b66565b7f2220636c6173733d227469746c65223e54726561737572652e2028466f722057601592909101918201527430b93934b7b939949e17ba32bc3a1f1e17b9bb339f60591b6035820152604a01949350505050565b600083516143c7818460208801613b66565b8351908301906143db818360208801613b66565b01949350505050565b600083516143f6818460208801613b66565b83519083019061440a818360208801613b66565b600b60fa1b9101908152600101949350505050565b707b226e616d65223a20224368657374202360781b8152835160009061444c816011850160208901613b66565b7001116101130ba3a3934b13aba32b9911d1607d1b601191840191820152845161447d816022840160208901613b66565b7f5d2c20226465736372697074696f6e223a202254726561737572652069732072602292909101918201527f616e646f6d697a656420626174746c6520676561722067656e6572617465642060428201527f616e642073746f726564206f6e20636861696e2e20456163682074726561737560628201527f726520636865737420636f6e7461696e7320612076617269657479206f66206760828201527f65617220746861742077617272696f72732077696c6c2075736520696e20626160a28201527f74746c652e2052616e67696e672066726f6d2061726d6f75722c20746f20776560c28201527f61706f6e7320616e6420737572766976616c20676561722e204665656c20667260e28201527f656520746f2075736520796f757220747265617375726520696e20616e7920776101028201527f617920796f752077616e742e222c2022696d616765223a2022646174613a696d610122820152721859d94bdcdd99cade1b5b0ed8985cd94d8d0b606a1b61014282015261406461460861015583018661408b565b61227d60f01b815260020190565b7f646174613a6170706c69636174696f6e2f6a736f6e3b6261736536342c00000081526000825161464e81601d850160208701613b66565b91909101601d0192915050565b6000845161466d818460208901613b66565b845190830190614681818360208901613b66565b8451910190614694818360208801613b66565b0195945050505050565b600082516146b0818460208701613b66565b9190910192915050565b600181815b808511156146f55781600019048211156146db576146db613f3d565b808516156146e857918102915b93841c93908002906146bf565b509250929050565b60008261470c575060016106fa565b81614719575060006106fa565b816001811461472f576002811461473957614755565b60019150506106fa565b60ff84111561474a5761474a613f3d565b50506001821b6106fa565b5060208310610133831016604e8410600b8410161715614778575081810a6106fa565b61478283836146ba565b806000190482111561479657614796613f3d565b029392505050565b600061230760ff8416836146fd565b6000826147bc576147bc613fc1565b500690565b6f3d913a3930b4ba2fba3cb832911d101160811b815282516000906147ed816010850160208801613b66565b6b1116113b30b63ab2911d101160a11b601091840191820152835161481981601c840160208801613b66565b61227d60f01b601c9290910191820152601e01949350505050565b8054600090600181811c908083168061484e57607f831692505b6020808410820361486f57634e487b7160e01b600052602260045260246000fd5b8180156148835760018114614894576148c1565b60ff198616895284890196506148c1565b60008881526020902060005b868110156148b95781548b8201529085019083016148a0565b505084890196505b50505050505092915050565b60006148d98284614834565b600160fd1b81526001019392505050565b600082516148fc818460208701613b66565b600160fd1b920191825250600101919050565b600160fd1b815260006123076001830184614834565b600063ffffffff8083168185168083038211156143db576143db613f3d56fe4142434445464748494a4b4c4d4e4f505152535455565758595a6162636465666768696a6b6c6d6e6f707172737475767778797a303132333435363738392b2fa2646970667358221220146c0468db14589d09740738d5664438636eb28215ae18a7e038bff23c8b139c64736f6c634300080d0033",
  "linkReferences": {},
  "deployedLinkReferences": {}
}