{
  "_format": "hh-sol-artifact-1",
  "contractName": "Treasure",
  "sourceName": "contracts/Treasure.sol",
  "abi": [
    {
      "inputs": [
        {
          "components": [
            {
              "internalType": "string[]",
              "name": "title",
              "type": "string[]"
            },
            {
              "internalType": "uint32[]",
              "name": "weight",
              "type": "uint32[]"
            },
            {
              "internalType": "uint8[][]",
              "name": "extra",
              "type": "uint8[][]"
            },
            {
              "internalType": "uint8[][]",
              "name": "material",
              "type": "uint8[][]"
            }
          ],
          "internalType": "struct TreasureMetadata.Item",
          "name": "__head",
          "type": "tuple"
        },
        {
          "components": [
            {
              "internalType": "string[]",
              "name": "title",
              "type": "string[]"
            },
            {
              "internalType": "uint32[]",
              "name": "weight",
              "type": "uint32[]"
            },
            {
              "internalType": "uint8[][]",
              "name": "extra",
              "type": "uint8[][]"
            },
            {
              "internalType": "uint8[][]",
              "name": "material",
              "type": "uint8[][]"
            }
          ],
          "internalType": "struct TreasureMetadata.Item",
          "name": "__torso",
          "type": "tuple"
        },
        {
          "components": [
            {
              "internalType": "string[]",
              "name": "title",
              "type": "string[]"
            },
            {
              "internalType": "uint32[]",
              "name": "weight",
              "type": "uint32[]"
            },
            {
              "internalType": "uint8[][]",
              "name": "extra",
              "type": "uint8[][]"
            },
            {
              "internalType": "uint8[][]",
              "name": "material",
              "type": "uint8[][]"
            }
          ],
          "internalType": "struct TreasureMetadata.Item",
          "name": "__footwear",
          "type": "tuple"
        },
        {
          "components": [
            {
              "internalType": "string[]",
              "name": "title",
              "type": "string[]"
            },
            {
              "internalType": "uint32[]",
              "name": "weight",
              "type": "uint32[]"
            },
            {
              "internalType": "uint8[][]",
              "name": "extra",
              "type": "uint8[][]"
            },
            {
              "internalType": "uint8[][]",
              "name": "material",
              "type": "uint8[][]"
            }
          ],
          "internalType": "struct TreasureMetadata.Item",
          "name": "__bottoms",
          "type": "tuple"
        },
        {
          "components": [
            {
              "internalType": "string[]",
              "name": "title",
              "type": "string[]"
            },
            {
              "internalType": "uint32[]",
              "name": "weight",
              "type": "uint32[]"
            },
            {
              "internalType": "uint8[][]",
              "name": "extra",
              "type": "uint8[][]"
            },
            {
              "internalType": "uint8[][]",
              "name": "material",
              "type": "uint8[][]"
            }
          ],
          "internalType": "struct TreasureMetadata.Item",
          "name": "__weapon",
          "type": "tuple"
        },
        {
          "components": [
            {
              "internalType": "string[]",
              "name": "title",
              "type": "string[]"
            },
            {
              "internalType": "uint32[]",
              "name": "weight",
              "type": "uint32[]"
            },
            {
              "internalType": "uint8[][]",
              "name": "extra",
              "type": "uint8[][]"
            },
            {
              "internalType": "uint8[][]",
              "name": "material",
              "type": "uint8[][]"
            }
          ],
          "internalType": "struct TreasureMetadata.Item",
          "name": "__shield",
          "type": "tuple"
        },
        {
          "components": [
            {
              "internalType": "string[]",
              "name": "title",
              "type": "string[]"
            },
            {
              "internalType": "uint32[]",
              "name": "weight",
              "type": "uint32[]"
            },
            {
              "internalType": "uint8[][]",
              "name": "extra",
              "type": "uint8[][]"
            },
            {
              "internalType": "uint8[][]",
              "name": "material",
              "type": "uint8[][]"
            }
          ],
          "internalType": "struct TreasureMetadata.Item",
          "name": "__amulet",
          "type": "tuple"
        },
        {
          "components": [
            {
              "internalType": "string[]",
              "name": "title",
              "type": "string[]"
            },
            {
              "internalType": "uint32[]",
              "name": "weight",
              "type": "uint32[]"
            },
            {
              "internalType": "uint8[][]",
              "name": "extra",
              "type": "uint8[][]"
            },
            {
              "internalType": "uint8[][]",
              "name": "material",
              "type": "uint8[][]"
            }
          ],
          "internalType": "struct TreasureMetadata.Item",
          "name": "__possessive",
          "type": "tuple"
        },
        {
          "components": [
            {
              "internalType": "string[]",
              "name": "title",
              "type": "string[]"
            },
            {
              "internalType": "uint32[]",
              "name": "weight",
              "type": "uint32[]"
            },
            {
              "internalType": "uint8[][]",
              "name": "extra",
              "type": "uint8[][]"
            },
            {
              "internalType": "uint8[][]",
              "name": "material",
              "type": "uint8[][]"
            }
          ],
          "internalType": "struct TreasureMetadata.Item",
          "name": "__extra",
          "type": "tuple"
        },
        {
          "components": [
            {
              "internalType": "string[]",
              "name": "title",
              "type": "string[]"
            },
            {
              "internalType": "uint32[]",
              "name": "weight",
              "type": "uint32[]"
            },
            {
              "internalType": "uint8[][]",
              "name": "extra",
              "type": "uint8[][]"
            },
            {
              "internalType": "uint8[][]",
              "name": "material",
              "type": "uint8[][]"
            }
          ],
          "internalType": "struct TreasureMetadata.Item",
          "name": "__material",
          "type": "tuple"
        },
        {
          "components": [
            {
              "internalType": "string[]",
              "name": "title",
              "type": "string[]"
            },
            {
              "internalType": "uint32[]",
              "name": "weight",
              "type": "uint32[]"
            },
            {
              "internalType": "uint8[][]",
              "name": "extra",
              "type": "uint8[][]"
            },
            {
              "internalType": "uint8[][]",
              "name": "material",
              "type": "uint8[][]"
            }
          ],
          "internalType": "struct TreasureMetadata.Item",
          "name": "__tail",
          "type": "tuple"
        }
      ],
      "stateMutability": "nonpayable",
      "type": "constructor"
    },
    {
      "inputs": [],
      "name": "ApprovalCallerNotOwnerNorApproved",
      "type": "error"
    },
    {
      "inputs": [],
      "name": "ApprovalQueryForNonexistentToken",
      "type": "error"
    },
    {
      "inputs": [],
      "name": "ApprovalToCurrentOwner",
      "type": "error"
    },
    {
      "inputs": [],
      "name": "ApproveToCaller",
      "type": "error"
    },
    {
      "inputs": [],
      "name": "BalanceQueryForZeroAddress",
      "type": "error"
    },
    {
      "inputs": [],
      "name": "MintToZeroAddress",
      "type": "error"
    },
    {
      "inputs": [],
      "name": "MintZeroQuantity",
      "type": "error"
    },
    {
      "inputs": [],
      "name": "OwnerQueryForNonexistentToken",
      "type": "error"
    },
    {
      "inputs": [],
      "name": "TransferCallerNotOwnerNorApproved",
      "type": "error"
    },
    {
      "inputs": [],
      "name": "TransferFromIncorrectOwner",
      "type": "error"
    },
    {
      "inputs": [],
      "name": "TransferToNonERC721ReceiverImplementer",
      "type": "error"
    },
    {
      "inputs": [],
      "name": "TransferToZeroAddress",
      "type": "error"
    },
    {
      "inputs": [],
      "name": "URIQueryForNonexistentToken",
      "type": "error"
    },
    {
      "anonymous": false,
      "inputs": [
        {
          "indexed": true,
          "internalType": "address",
          "name": "owner",
          "type": "address"
        },
        {
          "indexed": true,
          "internalType": "address",
          "name": "approved",
          "type": "address"
        },
        {
          "indexed": true,
          "internalType": "uint256",
          "name": "tokenId",
          "type": "uint256"
        }
      ],
      "name": "Approval",
      "type": "event"
    },
    {
      "anonymous": false,
      "inputs": [
        {
          "indexed": true,
          "internalType": "address",
          "name": "owner",
          "type": "address"
        },
        {
          "indexed": true,
          "internalType": "address",
          "name": "operator",
          "type": "address"
        },
        {
          "indexed": false,
          "internalType": "bool",
          "name": "approved",
          "type": "bool"
        }
      ],
      "name": "ApprovalForAll",
      "type": "event"
    },
    {
      "anonymous": false,
      "inputs": [
        {
          "indexed": true,
          "internalType": "address",
          "name": "previousOwner",
          "type": "address"
        },
        {
          "indexed": true,
          "internalType": "address",
          "name": "newOwner",
          "type": "address"
        }
      ],
      "name": "OwnershipTransferred",
      "type": "event"
    },
    {
      "anonymous": false,
      "inputs": [
        {
          "indexed": false,
          "internalType": "address",
          "name": "account",
          "type": "address"
        },
        {
          "indexed": false,
          "internalType": "uint256",
          "name": "shares",
          "type": "uint256"
        }
      ],
      "name": "PayeeAdded",
      "type": "event"
    },
    {
      "anonymous": false,
      "inputs": [
        {
          "indexed": false,
          "internalType": "address",
          "name": "from",
          "type": "address"
        },
        {
          "indexed": false,
          "internalType": "uint256",
          "name": "amount",
          "type": "uint256"
        }
      ],
      "name": "PaymentReceived",
      "type": "event"
    },
    {
      "anonymous": false,
      "inputs": [
        {
          "indexed": false,
          "internalType": "address",
          "name": "to",
          "type": "address"
        },
        {
          "indexed": false,
          "internalType": "uint256",
          "name": "amount",
          "type": "uint256"
        }
      ],
      "name": "PaymentReleased",
      "type": "event"
    },
    {
      "anonymous": false,
      "inputs": [
        {
          "indexed": true,
          "internalType": "address",
          "name": "from",
          "type": "address"
        },
        {
          "indexed": true,
          "internalType": "address",
          "name": "to",
          "type": "address"
        },
        {
          "indexed": true,
          "internalType": "uint256",
          "name": "tokenId",
          "type": "uint256"
        }
      ],
      "name": "Transfer",
      "type": "event"
    },
    {
      "inputs": [
        {
          "internalType": "address",
          "name": "to",
          "type": "address"
        },
        {
          "internalType": "uint256",
          "name": "tokenId",
          "type": "uint256"
        }
      ],
      "name": "approve",
      "outputs": [],
      "stateMutability": "nonpayable",
      "type": "function"
    },
    {
      "inputs": [
        {
          "internalType": "address",
          "name": "owner",
          "type": "address"
        }
      ],
      "name": "balanceOf",
      "outputs": [
        {
          "internalType": "uint256",
          "name": "",
          "type": "uint256"
        }
      ],
      "stateMutability": "view",
      "type": "function"
    },
    {
      "inputs": [],
      "name": "contractURI",
      "outputs": [
        {
          "internalType": "string",
          "name": "",
          "type": "string"
        }
      ],
      "stateMutability": "view",
      "type": "function"
    },
    {
      "inputs": [],
      "name": "flipSaleState",
      "outputs": [],
      "stateMutability": "nonpayable",
      "type": "function"
    },
    {
      "inputs": [
        {
          "internalType": "uint256",
          "name": "tokenId",
          "type": "uint256"
        }
      ],
      "name": "genTraits",
      "outputs": [
        {
          "internalType": "string[]",
          "name": "",
          "type": "string[]"
        }
      ],
      "stateMutability": "view",
      "type": "function"
    },
    {
      "inputs": [
        {
          "internalType": "uint256",
          "name": "tokenId",
          "type": "uint256"
        }
      ],
      "name": "getApproved",
      "outputs": [
        {
          "internalType": "address",
          "name": "",
          "type": "address"
        }
      ],
      "stateMutability": "view",
      "type": "function"
    },
    {
      "inputs": [
        {
          "internalType": "address",
          "name": "owner",
          "type": "address"
        },
        {
          "internalType": "address",
          "name": "operator",
          "type": "address"
        }
      ],
      "name": "isApprovedForAll",
      "outputs": [
        {
          "internalType": "bool",
          "name": "",
          "type": "bool"
        }
      ],
      "stateMutability": "view",
      "type": "function"
    },
    {
      "inputs": [
        {
          "internalType": "uint256",
          "name": "numMints",
          "type": "uint256"
        }
      ],
      "name": "mintReserve",
      "outputs": [],
      "stateMutability": "nonpayable",
      "type": "function"
    },
    {
      "inputs": [
        {
          "internalType": "uint256",
          "name": "numMints",
          "type": "uint256"
        },
        {
          "internalType": "address",
          "name": "recipient",
          "type": "address"
        }
      ],
      "name": "mintReserveToAddress",
      "outputs": [],
      "stateMutability": "nonpayable",
      "type": "function"
    },
    {
      "inputs": [],
      "name": "name",
      "outputs": [
        {
          "internalType": "string",
          "name": "",
          "type": "string"
        }
      ],
      "stateMutability": "view",
      "type": "function"
    },
    {
      "inputs": [],
      "name": "owner",
      "outputs": [
        {
          "internalType": "address",
          "name": "",
          "type": "address"
        }
      ],
      "stateMutability": "view",
      "type": "function"
    },
    {
      "inputs": [
        {
          "internalType": "uint256",
          "name": "tokenId",
          "type": "uint256"
        }
      ],
      "name": "ownerOf",
      "outputs": [
        {
          "internalType": "address",
          "name": "",
          "type": "address"
        }
      ],
      "stateMutability": "view",
      "type": "function"
    },
    {
      "inputs": [
        {
          "internalType": "uint256",
          "name": "index",
          "type": "uint256"
        }
      ],
      "name": "payee",
      "outputs": [
        {
          "internalType": "address",
          "name": "",
          "type": "address"
        }
      ],
      "stateMutability": "view",
      "type": "function"
    },
    {
      "inputs": [
        {
          "internalType": "uint256",
          "name": "numMints",
          "type": "uint256"
        }
      ],
      "name": "plunder",
      "outputs": [],
      "stateMutability": "payable",
      "type": "function"
    },
    {
      "inputs": [],
      "name": "price",
      "outputs": [
        {
          "internalType": "uint256",
          "name": "",
          "type": "uint256"
        }
      ],
      "stateMutability": "pure",
      "type": "function"
    },
    {
      "inputs": [
        {
          "internalType": "address payable",
          "name": "account",
          "type": "address"
        }
      ],
      "name": "release",
      "outputs": [],
      "stateMutability": "nonpayable",
      "type": "function"
    },
    {
      "inputs": [
        {
          "internalType": "address",
          "name": "account",
          "type": "address"
        }
      ],
      "name": "released",
      "outputs": [
        {
          "internalType": "uint256",
          "name": "",
          "type": "uint256"
        }
      ],
      "stateMutability": "view",
      "type": "function"
    },
    {
      "inputs": [],
      "name": "renounceOwnership",
      "outputs": [],
      "stateMutability": "nonpayable",
      "type": "function"
    },
    {
      "inputs": [],
      "name": "reserved",
      "outputs": [
        {
          "internalType": "uint256",
          "name": "",
          "type": "uint256"
        }
      ],
      "stateMutability": "view",
      "type": "function"
    },
    {
      "inputs": [
        {
          "internalType": "address",
          "name": "from",
          "type": "address"
        },
        {
          "internalType": "address",
          "name": "to",
          "type": "address"
        },
        {
          "internalType": "uint256",
          "name": "tokenId",
          "type": "uint256"
        }
      ],
      "name": "safeTransferFrom",
      "outputs": [],
      "stateMutability": "nonpayable",
      "type": "function"
    },
    {
      "inputs": [
        {
          "internalType": "address",
          "name": "from",
          "type": "address"
        },
        {
          "internalType": "address",
          "name": "to",
          "type": "address"
        },
        {
          "internalType": "uint256",
          "name": "tokenId",
          "type": "uint256"
        },
        {
          "internalType": "bytes",
          "name": "_data",
          "type": "bytes"
        }
      ],
      "name": "safeTransferFrom",
      "outputs": [],
      "stateMutability": "nonpayable",
      "type": "function"
    },
    {
      "inputs": [
        {
          "internalType": "address",
          "name": "operator",
          "type": "address"
        },
        {
          "internalType": "bool",
          "name": "approved",
          "type": "bool"
        }
      ],
      "name": "setApprovalForAll",
      "outputs": [],
      "stateMutability": "nonpayable",
      "type": "function"
    },
    {
      "inputs": [
        {
          "internalType": "string",
          "name": "__contractURI",
          "type": "string"
        }
      ],
      "name": "setContractURI",
      "outputs": [],
      "stateMutability": "nonpayable",
      "type": "function"
    },
    {
      "inputs": [
        {
          "internalType": "address",
          "name": "account",
          "type": "address"
        }
      ],
      "name": "shares",
      "outputs": [
        {
          "internalType": "uint256",
          "name": "",
          "type": "uint256"
        }
      ],
      "stateMutability": "view",
      "type": "function"
    },
    {
      "inputs": [],
      "name": "status",
      "outputs": [
        {
          "internalType": "bool",
          "name": "",
          "type": "bool"
        }
      ],
      "stateMutability": "view",
      "type": "function"
    },
    {
      "inputs": [
        {
          "internalType": "bytes4",
          "name": "interfaceId",
          "type": "bytes4"
        }
      ],
      "name": "supportsInterface",
      "outputs": [
        {
          "internalType": "bool",
          "name": "",
          "type": "bool"
        }
      ],
      "stateMutability": "view",
      "type": "function"
    },
    {
      "inputs": [],
      "name": "symbol",
      "outputs": [
        {
          "internalType": "string",
          "name": "",
          "type": "string"
        }
      ],
      "stateMutability": "view",
      "type": "function"
    },
    {
      "inputs": [
        {
          "internalType": "uint256",
          "name": "tokenId",
          "type": "uint256"
        }
      ],
      "name": "tokenURI",
      "outputs": [
        {
          "internalType": "string",
          "name": "",
          "type": "string"
        }
      ],
      "stateMutability": "view",
      "type": "function"
    },
    {
      "inputs": [],
      "name": "totalReleased",
      "outputs": [
        {
          "internalType": "uint256",
          "name": "",
          "type": "uint256"
        }
      ],
      "stateMutability": "view",
      "type": "function"
    },
    {
      "inputs": [],
      "name": "totalShares",
      "outputs": [
        {
          "internalType": "uint256",
          "name": "",
          "type": "uint256"
        }
      ],
      "stateMutability": "view",
      "type": "function"
    },
    {
      "inputs": [],
      "name": "totalSupply",
      "outputs": [
        {
          "internalType": "uint256",
          "name": "",
          "type": "uint256"
        }
      ],
      "stateMutability": "view",
      "type": "function"
    },
    {
      "inputs": [
        {
          "internalType": "address",
          "name": "from",
          "type": "address"
        },
        {
          "internalType": "address",
          "name": "to",
          "type": "address"
        },
        {
          "internalType": "uint256",
          "name": "tokenId",
          "type": "uint256"
        }
      ],
      "name": "transferFrom",
      "outputs": [],
      "stateMutability": "nonpayable",
      "type": "function"
    },
    {
      "inputs": [
        {
          "internalType": "address",
          "name": "newOwner",
          "type": "address"
        }
      ],
      "name": "transferOwnership",
      "outputs": [],
      "stateMutability": "nonpayable",
      "type": "function"
    },
    {
      "stateMutability": "payable",
      "type": "receive"
    }
  ],
  "bytecode": "0x6101e060405263030659236080908152630ae7953c60a052631c260e3d60c052633b1e04ac60e0526366333f066101005263973d64d06101205263c2529f2a6101405263e14a95996101605263f2890e9a6101805263fa6a4ab36101a05263fd70a3d66101c0526200007690601090600b62000e5c565b506040805160a0810182526227ed32815263067df14b60208201526332d80df79181019190915263be147ae1606082015263fd70a3d66080820152620000c190601190600562000e5c565b506040805160e0810182526311006df3815263268a9159602082015263620817b091810191909152638a70132a606082015263e98c37c8608082015263f97627d260a082015263fd70a3d560c08201526200012190601290600762000e5c565b5060408051608081018252734f65cdffe6c48ad287f005ad14e78ff6433c8d6781527349b621d1cc662ce293779ec775573d0568a0c7136020820152737db44f46ee7385ad0fd23bd6323f8bd80cf7fe9291810191909152733b20f287b08f39c21d695500e08268c87ecaeb376060820152620001a390601390600462000f12565b50604080516080810182526014808252600e602083015260219282018390526060820192909252620001d89190600462000f6a565b506016805460ff191690556000601755348015620001f557600080fd5b506040516200600838038062006008833981016040819052620002189162001644565b8a8a8a8a8a8a8a8a8a8a8a60138054806020026020016040519081016040528092919081815260200182805480156200027b57602002820191906000526020600020905b81546001600160a01b031681526001909101906020018083116200025c575b50505050506014805480602002602001604051908101604052809291908181526020018280548015620002ce57602002820191906000526020600020905b815481526020019060010190808311620002b9575b5050604080518082018252601781527f54726561737572652028666f722057617272696f72732900000000000000000060208083019182528351808501909452600384526254345760e81b9084015281519195509193506200033592506002919062000fad565b5080516200034b90600390602084019062000fad565b505060008055506200035d3362000bb4565b60016009558051825114620003d45760405162461bcd60e51b815260206004820152603260248201527f5061796d656e7453706c69747465723a2070617965657320616e6420736861726044820152710cae640d8cadccee8d040dad2e6dac2e8c6d60731b60648201526084015b60405180910390fd5b6000825111620004275760405162461bcd60e51b815260206004820152601a60248201527f5061796d656e7453706c69747465723a206e6f207061796565730000000000006044820152606401620003cb565b60005b825181101562000493576200047e8382815181106200044d576200044d62001864565b60200260200101518383815181106200046a576200046a62001864565b602002602001015162000c0660201b60201c565b806200048a8162001890565b9150506200042a565b505050620004a78b62000df460201b60201c565b620004b28a62000df4565b620004bd8962000df4565b620004c88862000df4565b620004d38762000df4565b620004de8662000df4565b620004e98562000df4565b620004f48462000df4565b620004ff8362000df4565b6200050a8262000df4565b620005158162000df4565b8a600f6040516200053090631211505160e21b815260040190565b908152602001604051809103902060008201518160000190805190602001906200055c9291906200102a565b50602082810151805162000577926001850192019062000e5c565b5060408201518051620005959160028401916020909101906200108a565b5060608201518051620005b39160038401916020909101906200108a565b50506040805164544f52534f60d81b8152600f600582015290519081900360250190208b5180518d9350620005f1918391602091909101906200102a565b5060208281015180516200060c926001850192019062000e5c565b50604082015180516200062a9160028401916020909101906200108a565b5060608201518051620006489160038401916020909101906200108a565b505060408051672327a7aa2ba2a0a960c11b8152600f600882015290519081900360280190208a5180518c935062000689918391602091909101906200102a565b506020828101518051620006a4926001850192019062000e5c565b5060408201518051620006c29160028401916020909101906200108a565b5060608201518051620006e09160038401916020909101906200108a565b50506040805166424f54544f4d5360c81b8152600f60078201529051908190036027019020895180518b935062000720918391602091909101906200102a565b5060208281015180516200073b926001850192019062000e5c565b5060408201518051620007599160028401916020909101906200108a565b5060608201518051620007779160038401916020909101906200108a565b505060408051652ba2a0a827a760d11b8152600f60068201529051908190036026019020885180518a9350620007b6918391602091909101906200102a565b506020828101518051620007d1926001850192019062000e5c565b5060408201518051620007ef9160028401916020909101906200108a565b50606082015180516200080d9160038401916020909101906200108a565b5050604080516514d21251531160d21b8152600f60068201529051908190036026019020875180518993506200084c918391602091909101906200102a565b50602082810151805162000867926001850192019062000e5c565b5060408201518051620008859160028401916020909101906200108a565b5060608201518051620008a39160038401916020909101906200108a565b5050604080516510535553115560d21b8152600f6006820152905190819003602601902086518051889350620008e2918391602091909101906200102a565b506020828101518051620008fd926001850192019062000e5c565b50604082015180516200091b9160028401916020909101906200108a565b5060608201518051620009399160038401916020909101906200108a565b50506040805169504f535345535349564560b01b8152600f600a820152905190819003602a019020855180518793506200097c918391602091909101906200102a565b50602082810151805162000997926001850192019062000e5c565b5060408201518051620009b59160028401916020909101906200108a565b5060608201518051620009d39160038401916020909101906200108a565b50506040805164455854524160d81b8152600f600582015290519081900360250190208451805186935062000a11918391602091909101906200102a565b50602082810151805162000a2c926001850192019062000e5c565b506040820151805162000a4a9160028401916020909101906200108a565b506060820151805162000a689160038401916020909101906200108a565b50506040805167135055115492505360c21b8152600f600882015290519081900360280190208351805185935062000aa9918391602091909101906200102a565b50602082810151805162000ac4926001850192019062000e5c565b506040820151805162000ae29160028401916020909101906200108a565b506060820151805162000b009160038401916020909101906200108a565b505060408051631510525360e21b8152600f600482015290519081900360240190208251805184935062000b3d918391602091909101906200102a565b50602082810151805162000b58926001850192019062000e5c565b506040820151805162000b769160028401916020909101906200108a565b506060820151805162000b949160038401916020909101906200108a565b509050505050505050505050505050505050505050505050505062001903565b600880546001600160a01b038381166001600160a01b0319831681179093556040519116919082907f8be0079c531659141344cd1fd0a4f28419497f9722a3daafe3b4186f6b6457e090600090a35050565b6001600160a01b03821662000c735760405162461bcd60e51b815260206004820152602c60248201527f5061796d656e7453706c69747465723a206163636f756e74206973207468652060448201526b7a65726f206164647265737360a01b6064820152608401620003cb565b6000811162000cc55760405162461bcd60e51b815260206004820152601d60248201527f5061796d656e7453706c69747465723a207368617265732061726520300000006044820152606401620003cb565b6001600160a01b0382166000908152600c60205260409020541562000d415760405162461bcd60e51b815260206004820152602b60248201527f5061796d656e7453706c69747465723a206163636f756e7420616c726561647960448201526a206861732073686172657360a81b6064820152608401620003cb565b600e8054600181019091557fbb7b4a454dc3493923482f07822329ed19e8244eff582cc204f8554c3620c3fd0180546001600160a01b0319166001600160a01b0384169081179091556000908152600c60205260409020819055600a5462000dab908290620018ac565b600a55604080516001600160a01b0384168152602081018390527f40c340f65e17194d14ddddb073d3c9f888e3cb52b5aae0c6c7706b4fbc905fac910160405180910390a15050565b8051511580159062000e0c5750602081015151815151145b801562000e4f575080515160408201515114801562000e315750805151606082015151145b8062000e4f575060408101515115801562000e4f5750606081015151155b62000e5957600080fd5b50565b8280548282559060005260206000209060070160089004810192821562000f005791602002820160005b8382111562000ecc57835183826101000a81548163ffffffff021916908363ffffffff160217905550926020019260040160208160030104928301926001030262000e86565b801562000efe5782816101000a81549063ffffffff021916905560040160208160030104928301926001030262000ecc565b505b5062000f0e929150620010ea565b5090565b82805482825590600052602060002090810192821562000f00579160200282015b8281111562000f0057825182546001600160a01b0319166001600160a01b0390911617825560209092019160019091019062000f33565b82805482825590600052602060002090810192821562000f00579160200282015b8281111562000f00578251829060ff1690559160200191906001019062000f8b565b82805462000fbb90620018c7565b90600052602060002090601f01602090048101928262000fdf576000855562000f00565b82601f1062000ffa57805160ff191683800117855562000f00565b8280016001018555821562000f00579182015b8281111562000f005782518255916020019190600101906200100d565b8280548282559060005260206000209081019282156200107c579160200282015b828111156200107c57825180516200106b91849160209091019062000fad565b50916020019190600101906200104b565b5062000f0e92915062001101565b828054828255906000526020600020908101928215620010dc579160200282015b82811115620010dc5782518051620010cb91849160209091019062001122565b5091602001919060010190620010ab565b5062000f0e929150620011bb565b5b8082111562000f0e5760008155600101620010eb565b8082111562000f0e576000620011188282620011dc565b5060010162001101565b82805482825590600052602060002090601f0160209004810192821562000f005791602002820160005b838211156200118c57835183826101000a81548160ff021916908360ff16021790555092602001926001016020816000010492830192600103026200114c565b801562000efe5782816101000a81549060ff02191690556001016020816000010492830192600103026200118c565b8082111562000f0e576000620011d282826200121b565b50600101620011bb565b508054620011ea90620018c7565b6000825580601f10620011fb575050565b601f01602090049060005260206000209081019062000e599190620010ea565b50805460008255601f01602090049060005260206000209081019062000e599190620010ea565b634e487b7160e01b600052604160045260246000fd5b604051608081016001600160401b03811182821017156200127d576200127d62001242565b60405290565b604051601f8201601f191681016001600160401b0381118282101715620012ae57620012ae62001242565b604052919050565b60006001600160401b03821115620012d257620012d262001242565b5060051b60200190565b6000601f8381840112620012ef57600080fd5b82516020620013086200130283620012b6565b62001283565b82815260059290921b850181019181810190878411156200132857600080fd5b8287015b84811015620013ec5780516001600160401b03808211156200134e5760008081fd5b818a0191508a603f830112620013645760008081fd5b85820151818111156200137b576200137b62001242565b6200138e818a01601f1916880162001283565b915080825260408c81838601011115620013a85760008081fd5b60005b82811015620013c8578481018201518482018a01528801620013ab565b82811115620013da5760008984860101525b5050508452509183019183016200132c565b50979650505050505050565b600082601f8301126200140a57600080fd5b815160206200141d6200130283620012b6565b82815260059290921b840181019181810190868411156200143d57600080fd5b8286015b848110156200146e57805163ffffffff81168114620014605760008081fd5b835291830191830162001441565b509695505050505050565b600082601f8301126200148b57600080fd5b815160206200149e6200130283620012b6565b828152600592831b8501820192828201919087851115620014be57600080fd5b8387015b858110156200156f5780516001600160401b03811115620014e35760008081fd5b8801603f81018a13620014f65760008081fd5b8581015160406200150b6200130283620012b6565b82815291851b8301810191888101908d841115620015295760008081fd5b938201935b838510156200155d578451925060ff831683146200154c5760008081fd5b82825293890193908901906200152e565b885250505093850193508401620014c2565b5090979650505050505050565b6000608082840312156200158f57600080fd5b6200159962001258565b82519091506001600160401b0380821115620015b457600080fd5b620015c285838601620012dc565b83526020840151915080821115620015d957600080fd5b620015e785838601620013f8565b602084015260408401519150808211156200160157600080fd5b6200160f8583860162001479565b604084015260608401519150808211156200162957600080fd5b50620016388482850162001479565b60608301525092915050565b60008060008060008060008060008060006101608c8e0312156200166757600080fd5b8b516001600160401b038111156200167e57600080fd5b6200168c8e828f016200157c565b60208e0151909c5090506001600160401b03811115620016ab57600080fd5b620016b98e828f016200157c565b60408e0151909b5090506001600160401b03811115620016d857600080fd5b620016e68e828f016200157c565b60608e0151909a5090506001600160401b038111156200170557600080fd5b620017138e828f016200157c565b60808e015190995090506001600160401b038111156200173257600080fd5b620017408e828f016200157c565b60a08e015190985090506001600160401b038111156200175f57600080fd5b6200176d8e828f016200157c565b60c08e015190975090506001600160401b038111156200178c57600080fd5b6200179a8e828f016200157c565b60e08e015190965090506001600160401b03811115620017b957600080fd5b620017c78e828f016200157c565b6101008e015190955090506001600160401b03811115620017e757600080fd5b620017f58e828f016200157c565b6101208e015190945090506001600160401b038111156200181557600080fd5b620018238e828f016200157c565b6101408e015190935090506001600160401b038111156200184357600080fd5b620018518e828f016200157c565b9150509295989b509295989b9093969950565b634e487b7160e01b600052603260045260246000fd5b634e487b7160e01b600052601160045260246000fd5b600060018201620018a557620018a56200187a565b5060010190565b60008219821115620018c257620018c26200187a565b500190565b600181811c90821680620018dc57607f821691505b602082108103620018fd57634e487b7160e01b600052602260045260246000fd5b50919050565b6146f580620019136000396000f3fe6080604052600436106101f25760003560e01c80638da5cb5b1161010d578063c05702cb116100a0578063e8a3d4851161006f578063e8a3d485146105d9578063e985e9c5146105ee578063f2fde38b1461060e578063f906751b1461062e578063fe60d12c1461064e57600080fd5b8063c05702cb14610541578063c87b56dd1461056e578063ce7c2ac21461058e578063e33b7de3146105c457600080fd5b80639852595c116100dc5780639852595c146104b1578063a035b1fe146104e7578063a22cb46514610501578063b88d4fde1461052157600080fd5b80638da5cb5b1461044b578063910fc67d14610469578063938e3d7b1461047c57806395d89b411461049c57600080fd5b806323b872dd116101855780636352211e116101545780636352211e146103d657806370a08231146103f6578063715018a6146104165780638b83209b1461042b57600080fd5b806323b872dd1461036c57806334918dfd1461038c5780633a98ef39146103a157806342842e0e146103b657600080fd5b8063095ea7b3116101c1578063095ea7b3146102f157806318160ddd146103115780631916558714610334578063200d2ed21461035457600080fd5b806301ffc9a71461024057806306fdde031461027557806307e3aa7114610297578063081812fc146102b957600080fd5b3661023b577f6ef95f06320e7a25a04a175ca677b7052bdd97131872c2192525a629f51be77033604080516001600160a01b0390921682523460208301520160405180910390a1005b600080fd5b34801561024c57600080fd5b5061026061025b36600461398a565b610663565b60405190151581526020015b60405180910390f35b34801561028157600080fd5b5061028a6106b5565b60405161026c91906139ff565b3480156102a357600080fd5b506102b76102b2366004613a27565b610747565b005b3480156102c557600080fd5b506102d96102d4366004613a57565b610833565b6040516001600160a01b03909116815260200161026c565b3480156102fd57600080fd5b506102b761030c366004613a70565b610877565b34801561031d57600080fd5b50600154600054035b60405190815260200161026c565b34801561034057600080fd5b506102b761034f366004613a9c565b610904565b34801561036057600080fd5b5060165460ff16610260565b34801561037857600080fd5b506102b7610387366004613ab9565b610ad8565b34801561039857600080fd5b506102b7610ae3565b3480156103ad57600080fd5b50600a54610326565b3480156103c257600080fd5b506102b76103d1366004613ab9565b610b21565b3480156103e257600080fd5b506102d96103f1366004613a57565b610b3c565b34801561040257600080fd5b50610326610411366004613a9c565b610b4e565b34801561042257600080fd5b506102b7610b9c565b34801561043757600080fd5b506102d9610446366004613a57565b610bd2565b34801561045757600080fd5b506008546001600160a01b03166102d9565b6102b7610477366004613a57565b610c02565b34801561048857600080fd5b506102b7610497366004613b85565b610e24565b3480156104a857600080fd5b5061028a610e61565b3480156104bd57600080fd5b506103266104cc366004613a9c565b6001600160a01b03166000908152600d602052604090205490565b3480156104f357600080fd5b50669536c708910000610326565b34801561050d57600080fd5b506102b761051c366004613bcd565b610e70565b34801561052d57600080fd5b506102b761053c366004613c00565b610f05565b34801561054d57600080fd5b5061056161055c366004613a57565b610f56565b60405161026c9190613c7f565b34801561057a57600080fd5b5061028a610589366004613a57565b611018565b34801561059a57600080fd5b506103266105a9366004613a9c565b6001600160a01b03166000908152600c602052604090205490565b3480156105d057600080fd5b50600b54610326565b3480156105e557600080fd5b5061028a611049565b3480156105fa57600080fd5b50610260610609366004613ce1565b611058565b34801561061a57600080fd5b506102b7610629366004613a9c565b611086565b34801561063a57600080fd5b506102b7610649366004613a57565b611121565b34801561065a57600080fd5b50601754610326565b60006001600160e01b031982166380ac58cd60e01b148061069457506001600160e01b03198216635b5e139f60e01b145b806106af57506301ffc9a760e01b6001600160e01b03198316145b92915050565b6060600280546106c490613d0f565b80601f01602080910402602001604051908101604052809291908181526020018280546106f090613d0f565b801561073d5780601f106107125761010080835404028352916020019161073d565b820191906000526020600020905b81548152906001019060200180831161072057829003601f168201915b5050505050905090565b6008546001600160a01b0316331461077a5760405162461bcd60e51b815260040161077190613d49565b60405180910390fd5b6127108261078760005490565b6107919190613d94565b11156107af5760405162461bcd60e51b815260040161077190613dac565b6096826017546107bf9190613d94565b111561080d5760405162461bcd60e51b815260206004820152601f60248201527f4e6577206d696e742065786365656473207265736572766520737570706c79006044820152606401610771565b816017600082825461081f9190613d94565b9091555061082f905081836111fc565b5050565b600061083e8261132e565b61085b576040516333d1c03960e21b815260040160405180910390fd5b506000908152600660205260409020546001600160a01b031690565b600061088282610b3c565b9050806001600160a01b0316836001600160a01b0316036108b65760405163250fdee360e21b815260040160405180910390fd5b336001600160a01b038216148015906108d657506108d48133611058565b155b156108f4576040516367d9dca160e11b815260040160405180910390fd5b6108ff838383611359565b505050565b6001600160a01b0381166000908152600c60205260409020546109785760405162461bcd60e51b815260206004820152602660248201527f5061796d656e7453706c69747465723a206163636f756e7420686173206e6f2060448201526573686172657360d01b6064820152608401610771565b6000600b54476109889190613d94565b6001600160a01b0383166000908152600d6020908152604080832054600a54600c9093529083205493945091926109bf9085613de3565b6109c99190613e18565b6109d39190613e2c565b905080600003610a395760405162461bcd60e51b815260206004820152602b60248201527f5061796d656e7453706c69747465723a206163636f756e74206973206e6f742060448201526a191d59481c185e5b595b9d60aa1b6064820152608401610771565b6001600160a01b0383166000908152600d6020526040902054610a5d908290613d94565b6001600160a01b0384166000908152600d6020526040902055600b54610a84908290613d94565b600b55610a9183826113b5565b604080516001600160a01b0385168152602081018390527fdf20fd1e76bc69d672e4814fafb2c449bba3a5369d8359adf9e05e6fde87b056910160405180910390a1505050565b6108ff8383836114ce565b6008546001600160a01b03163314610b0d5760405162461bcd60e51b815260040161077190613d49565b6016805460ff19811660ff90911615179055565b6108ff83838360405180602001604052806000815250610f05565b6000610b47826116bb565b5192915050565b60006001600160a01b038216610b77576040516323d3ad8160e21b815260040160405180910390fd5b506001600160a01b03166000908152600560205260409020546001600160401b031690565b6008546001600160a01b03163314610bc65760405162461bcd60e51b815260040161077190613d49565b610bd060006117d5565b565b6000600e8281548110610be757610be7613e43565b6000918252602090912001546001600160a01b031692915050565b600260095403610c545760405162461bcd60e51b815260206004820152601f60248201527f5265656e7472616e637947756172643a207265656e7472616e742063616c6c006044820152606401610771565b600260095560165460ff16610c9c5760405162461bcd60e51b815260206004820152600e60248201526d14d85b19481a5cc81c185d5cd95960921b6044820152606401610771565b610cad81669536c708910000613de3565b341015610cf45760405162461bcd60e51b8152602060048201526015602482015274139bdd08195b9bdd59da08195d1a195c881cd95b9d605a1b6044820152606401610771565b61271081610d0160005490565b610d0b9190613d94565b1115610d295760405162461bcd60e51b815260040161077190613dac565b601754610d396096612710613e2c565b610d439190613d94565b81610d4d60005490565b610d579190613d94565b1115610db75760405162461bcd60e51b815260206004820152602960248201527f4e6577206d696e742065786365656473206d6178696d756d20617661696c61626044820152686c6520737570706c7960b81b6064820152608401610771565b6032811115610e125760405162461bcd60e51b815260206004820152602160248201527f45786365656473206d6178206d696e747320706572207472616e73616374696f6044820152603760f91b6064820152608401610771565b610e1c33826111fc565b506001600955565b6008546001600160a01b03163314610e4e5760405162461bcd60e51b815260040161077190613d49565b805161082f9060159060208401906138db565b6060600380546106c490613d0f565b336001600160a01b03831603610e995760405163b06307db60e01b815260040160405180910390fd5b3360008181526007602090815260408083206001600160a01b03871680855290835292819020805460ff191686151590811790915590519081529192917f17307eab39ab6107e8899845ad3d59bd9653f200f220920489ca2b5937696c31910160405180910390a35050565b610f108484846114ce565b6001600160a01b0383163b15158015610f325750610f3084848484611827565b155b15610f50576040516368d2bf6b60e11b815260040160405180910390fd5b50505050565b60606000610f6383611913565b9050600081516001600160401b03811115610f8057610f80613afa565b604051908082528060200260200182016040528015610fb357816020015b6060815260200190600190039081610f9e5790505b50905060005b825181101561101057828181518110610fd457610fd4613e43565b602002602001015160000151828281518110610ff257610ff2613e43565b6020026020010181905250808061100890613e59565b915050610fb9565b509392505050565b60606110238261132e565b61104057604051630a14c4b560e41b815260040160405180910390fd5b6106af82611d0d565b6060601580546106c490613d0f565b6001600160a01b03918216600090815260076020908152604080832093909416825291909152205460ff1690565b6008546001600160a01b031633146110b05760405162461bcd60e51b815260040161077190613d49565b6001600160a01b0381166111155760405162461bcd60e51b815260206004820152602660248201527f4f776e61626c653a206e6577206f776e657220697320746865207a65726f206160448201526564647265737360d01b6064820152608401610771565b61111e816117d5565b50565b6008546001600160a01b0316331461114b5760405162461bcd60e51b815260040161077190613d49565b6127108161115860005490565b6111629190613d94565b11156111805760405162461bcd60e51b815260040161077190613dac565b6096816017546111909190613d94565b11156111de5760405162461bcd60e51b815260206004820152601f60248201527f4e6577206d696e742065786365656473207265736572766520737570706c79006044820152606401610771565b80601760008282546111f09190613d94565b9091555061111e905033825b6000546001600160a01b03831661122557604051622e076360e81b815260040160405180910390fd5b816000036112465760405163b562e8dd60e01b815260040160405180910390fd5b6001600160a01b038316600081815260056020908152604080832080546fffffffffffffffffffffffffffffffff1981166001600160401b038083168a0181169182176801000000000000000067ffffffffffffffff1990941690921783900481168a01811690920217909155858452600490925290912080546001600160e01b031916909217600160a01b4290921691909102179055808083015b6040516001830192906001600160a01b038716906000907fddf252ad1be2c89b69c2b068fc378daa952ba7f163c4a11628f55a4df523b3ef908290a48082106112e25750600055505050565b60008054821080156106af575050600090815260046020526040902054600160e01b900460ff161590565b60008281526006602052604080822080546001600160a01b0319166001600160a01b0387811691821790925591518593918516917f8c5be1e5ebec7d5bd14f71427d1e84f3dd0314c0f7b2291e5b200ac8c7c3b92591a4505050565b804710156114055760405162461bcd60e51b815260206004820152601d60248201527f416464726573733a20696e73756666696369656e742062616c616e63650000006044820152606401610771565b6000826001600160a01b03168260405160006040518083038185875af1925050503d8060008114611452576040519150601f19603f3d011682016040523d82523d6000602084013e611457565b606091505b50509050806108ff5760405162461bcd60e51b815260206004820152603a60248201527f416464726573733a20756e61626c6520746f2073656e642076616c75652c207260448201527f6563697069656e74206d617920686176652072657665727465640000000000006064820152608401610771565b60006114d9826116bb565b9050836001600160a01b031681600001516001600160a01b0316146115105760405162a1148160e81b815260040160405180910390fd5b6000336001600160a01b038616148061152e575061152e8533611058565b8061154957503361153e84610833565b6001600160a01b0316145b90508061156957604051632ce44b5f60e11b815260040160405180910390fd5b6001600160a01b03841661159057604051633a954ecd60e21b815260040160405180910390fd5b61159c60008487611359565b6001600160a01b038581166000908152600560209081526040808320805467ffffffffffffffff198082166001600160401b0392831660001901831617909255898616808652838620805493841693831660019081018416949094179055898652600490945282852080546001600160e01b031916909417600160a01b4290921691909102178355870180845292208054919390911661167057600054821461167057805460208601516001600160401b0316600160a01b026001600160e01b03199091166001600160a01b038a16171781555b50505082846001600160a01b0316866001600160a01b03167fddf252ad1be2c89b69c2b068fc378daa952ba7f163c4a11628f55a4df523b3ef60405160405180910390a45050505050565b6040805160608101825260008082526020820181905291810191909152816000548110156117bc57600081815260046020908152604091829020825160608101845290546001600160a01b0381168252600160a01b81046001600160401b031692820192909252600160e01b90910460ff161515918101829052906117ba5780516001600160a01b031615611751579392505050565b5060001901600081815260046020908152604091829020825160608101845290546001600160a01b038116808352600160a01b82046001600160401b031693830193909352600160e01b900460ff16151592810192909252156117b5579392505050565b611751565b505b604051636f96cda160e11b815260040160405180910390fd5b600880546001600160a01b038381166001600160a01b0319831681179093556040519116919082907f8be0079c531659141344cd1fd0a4f28419497f9722a3daafe3b4186f6b6457e090600090a35050565b604051630a85bd0160e11b81526000906001600160a01b0385169063150b7a029061185c903390899088908890600401613e72565b6020604051808303816000875af1925050508015611897575060408051601f3d908101601f1916820190925261189491810190613eaf565b60015b6118f5573d8080156118c5576040519150601f19603f3d011682016040523d82523d6000602084013e6118ca565b606091505b5080516000036118ed576040516368d2bf6b60e11b815260040160405180910390fd5b805181602001fd5b6001600160e01b031916630a85bd0160e11b1490505b949350505050565b606060006119c7601080548060200260200160405190810160405280929190818152602001828054801561199257602002820191906000526020600020906000905b82829054906101000a900463ffffffff1663ffffffff16815260200190600401906020826003010492830192600103820291508084116119555790505b50505050506119c06000604051806040016040528060058152602001644954454d5360d81b815250876120e8565b600061214f565b6119d2906008613d94565b905060006119e084836122ba565b905081815114611a285760405162461bcd60e51b815260206004820152601360248201527209ac2d2dc40d2e8cadae640dad2e6dac2e8c6d606b1b6044820152606401610771565b6000826001600160401b03811115611a4257611a42613afa565b604051908082528060200260200182016040528015611a8757816020015b6040805180820190915260608082526020820152815260200190600190039081611a605790505b50905060005b83811015611d0457828181518110611aa757611aa7613e43565b6020026020010151600003611b0757611ae5611ac387836123f6565b604051806040016040528060048152602001631219585960e21b81525061241f565b828281518110611af757611af7613e43565b6020026020010181905250611cf2565b828181518110611b1957611b19613e43565b6020026020010151600103611b5857611ae5611b35878361246c565b60405180604001604052806005815260200164546f72736f60d81b81525061241f565b828181518110611b6a57611b6a613e43565b6020026020010151600203611bac57611ae5611b868783612496565b604051806040016040528060088152602001672337b7ba3bb2b0b960c11b81525061241f565b828181518110611bbe57611bbe613e43565b6020026020010151600303611bff57611ae5611bda87836124c3565b60405180604001604052806007815260200166426f74746f6d7360c81b81525061241f565b828181518110611c1157611c11613e43565b6020026020010151600403611c5157611ae5611c2d87836124ef565b604051806040016040528060068152602001652bb2b0b837b760d11b81525061241f565b828181518110611c6357611c63613e43565b6020026020010151600503611ca357611ae5611c7f878361251a565b6040518060400160405280600681526020016514da1a595b1960d21b81525061241f565b611cd4611cb08783612545565b60405180604001604052806006815260200165105b5d5b195d60d21b81525061241f565b828281518110611ce657611ce6613e43565b60200260200101819052505b80611cfc81613e59565b915050611a8d565b50949350505050565b60606000611d1a83611913565b9050600081516002611d2c9190613de3565b611d37906001613d94565b6001600160401b03811115611d4e57611d4e613afa565b604051908082528060200260200182016040528015611d8157816020015b6060815260200190600190039081611d6c5790505b50905060405180610180016040528061015a81526020016144d661015a913981600081518110611db357611db3613e43565b602090810291909101015260015b8251811015611e9f5782611dd6600183613e2c565b81518110611de657611de6613e43565b602002602001015160000151826001836002611e029190613de3565b611e0c9190613e2c565b81518110611e1c57611e1c613e43565b6020908102919091010152611e45611e35826022613de3565b611e40906022613d94565b612570565b604051602001611e559190613ee8565b60408051601f1981840301815291905282611e71836002613de3565b81518110611e8157611e81613e43565b60200260200101819052508080611e9790613e59565b915050611dc1565b508160018351611eaf9190613e2c565b81518110611ebf57611ebf613e43565b6020026020010151600001518160028351611eda9190613e2c565b81518110611eea57611eea613e43565b6020026020010181905250604051806080016040528060508152602001614630605091398160018351611f1d9190613e2c565b81518110611f2d57611f2d613e43565b6020026020010181905250600060405180602001604052806000815250905060005b8251811015611fa85781838281518110611f6b57611f6b613e43565b6020026020010151604051602001611f84929190613f46565b60405160208183030381529060405291508080611fa090613e59565b915050611f4f565b506040805180820190915260018152605b60f81b602082015260005b60018551611fd29190613e2c565b81101561202d5781858281518110611fec57611fec613e43565b602002602001015160200151604051602001612009929190613f75565b6040516020818303038152906040529150808061202590613e59565b915050611fc4565b5080846001865161203e9190613e2c565b8151811061204e5761204e613e43565b60200260200101516020015160405160200161206b929190613f46565b604051602081830303815290604052905060006120ba61208a88612570565b8361209486612670565b6040516020016120a693929190613fb0565b604051602081830303815290604052612670565b9050806040516020016120cd91906141a7565b60408051601f19818403018152919052979650505050505050565b60006120f384612570565b836120fd84612570565b60405160200161210f939291906141ec565b60408051601f198184030181529082905261212c9160200161422f565b6040516020818303038152906040528051906020012060001c90505b9392505050565b600060128211806121605750600882105b61216a578161216d565b60125b915060005b845181101561218d578061218581613e59565b915050612172565b506000846001865161219f9190613e2c565b815181106121af576121af613e43565b602002602001015163ffffffff1690506000600360028560126121d29190613e2c565b6121dc919061432f565b6121e760a985613e18565b6121f19190613de3565b901c905060008651826122049190613de3565b61220e9084613d94565b612218908761433e565b905060005b875181101561228957612231816001613d94565b61223b9084613de3565b88828151811061224d5761224d613e43565b602002602001015163ffffffff166122659190613d94565b82101561227757935061214892505050565b8061228181613e59565b91505061221d565b5060405162461bcd60e51b815260206004820152600560248201526422a92927a960d91b6044820152606401610771565b60606000826001600160401b038111156122d6576122d6613afa565b6040519080825280602002602001820160405280156122ff578160200160208202803683370190505b50905060005b838110156110105760006123c3601280548060200260200160405190810160405280929190818152602001828054801561238a57602002820191906000526020600020906000905b82829054906101000a900463ffffffff1663ffffffff168152602001906004019060208260030104928301926001038202915080841161234d5790505b50505050506119c084600161239f9190613d94565b604051806040016040528060058152602001644d41494e5360d81b8152508a6120e8565b9050808383815181106123d8576123d8613e43565b602090810291909101015250806123ee81613e59565b915050612305565b60606121488383604051806040016040528060048152602001631211505160e21b8152506127c2565b604080518082019091526060808252602082015260008284604051602001612448929190614352565b60408051601f19818403018152828201909152858252602082015291505092915050565b6060612148838360405180604001604052806005815260200164544f52534f60d81b8152506127c2565b60606121488383604051806040016040528060088152602001672327a7aa2ba2a0a960c11b8152506127c2565b6060612148838360405180604001604052806007815260200166424f54544f4d5360c81b8152506127c2565b60606121488383604051806040016040528060068152602001652ba2a0a827a760d11b8152506127c2565b606061214883836040518060400160405280600681526020016514d21251531160d21b8152506127c2565b606061214883836040518060400160405280600681526020016510535553115560d21b8152506127c2565b6060816000036125975750506040805180820190915260018152600360fc1b602082015290565b8160005b81156125c157806125ab81613e59565b91506125ba9050600a83613e18565b915061259b565b6000816001600160401b038111156125db576125db613afa565b6040519080825280601f01601f191660200182016040528015612605576020820181803683370190505b5090505b841561190b5761261a600183613e2c565b9150612627600a8661433e565b612632906030613d94565b60f81b81838151811061264757612647613e43565b60200101906001600160f81b031916908160001a905350612669600a86613e18565b9450612609565b6060815160000361268f57505060408051602081019091526000815290565b600060405180606001604052806040815260200161468060409139905060006003845160026126be9190613d94565b6126c89190613e18565b6126d3906004613de3565b6001600160401b038111156126ea576126ea613afa565b6040519080825280601f01601f191660200182016040528015612714576020820181803683370190505b509050600182016020820185865187015b80821015612780576003820191508151603f8160121c168501518453600184019350603f81600c1c168501518453600184019350603f8160061c168501518453600184019350603f8116850151845350600183019250612725565b505060038651066001811461279c57600281146127af576127b7565b603d6001830353603d60028303536127b7565b603d60018303535b509195945050505050565b6060600061286f601080548060200260200160405190810160405280929190818152602001828054801561284157602002820191906000526020600020906000905b82829054906101000a900463ffffffff1663ffffffff16815260200190600401906020826003010492830192600103820291508084116128045790505b50505050506119c06000604051806040016040528060058152602001644954454d5360d81b815250896120e8565b61287a906008613d94565b905060006128898585886120e8565b905060006128ba866040518060400160405280600a815260200169504f535345535349564560b01b815250896120e8565b905060006128e68760405180604001604052806005815260200164455854524160d81b8152508a6120e8565b905060006129158860405180604001604052806008815260200167135055115492505360c21b8152508b6120e8565b9050600061294089604051806040016040528060048152602001631510525360e21b8152508c6120e8565b905060006129e4600f8a604051612957919061422f565b90815260408051918290036020908101832060010180548083028501830190935282845291908301828280156129d857602002820191906000526020600020906000905b82829054906101000a900463ffffffff1663ffffffff168152602001906004019060208260030104928301926001038202915080841161299b5790505b5050505050878961214f565b90506000600f8a6040516129f8919061422f565b90815260200160405180910390206000018281548110612a1a57612a1a613e43565b906000526020600020018054612a2f90613d0f565b80601f0160208091040260200160405190810160405280929190818152602001828054612a5b90613d0f565b8015612aa85780601f10612a7d57610100808354040283529160200191612aa8565b820191906000526020600020905b815481529060010190602001808311612a8b57829003601f168201915b505050505090506000612abc8b8e8e612fe8565b90508051600003612ad7575097506121489650505050505050565b60408051600580825260c08201909252600091816020015b6060815260200190600190039081612aef5790505090508281600381518110612b1a57612b1a613e43565b602002602001018190525060005b8251811015612f4757828181518110612b4357612b43613e43565b6020026020010151600703612c7e5760405169504f535345535349564560b01b8152600f90600a0190815260405190819003602001812069504f535345535349564560b01b825290612c2290600f90600a019081526040805191829003602090810183206001018054808302850183019093528284529190830182828015612c1657602002820191906000526020600020906000905b82829054906101000a900463ffffffff1663ffffffff1681526020019060040190602082600301049283019260010382029150808411612bd95790505b50505050508b8e61214f565b81548110612c3257612c32613e43565b90600052602060002001604051602001612c4c919061445e565b60405160208183030381529060405282600081518110612c6e57612c6e613e43565b6020026020010181905250612f35565b828181518110612c9057612c90613e43565b6020026020010151600803612d42576000612cc98e60405180604001604052806005815260200164455854524160d81b8152508861334b565b90508060000151612ce7612ce08360200151613762565b8b8f61214f565b81518110612cf757612cf7613e43565b6020026020010151604051602001612d0f919061447b565b60405160208183030381529060405283600181518110612d3157612d31613e43565b602002602001018190525050612f35565b828181518110612d5457612d54613e43565b6020026020010151600903612df8576000612d908e60405180604001604052806008815260200167135055115492505360c21b8152508861334b565b90508060000151612dae612da78360200151613762565b8a8f61214f565b81518110612dbe57612dbe613e43565b6020026020010151604051602001612dd6919061447b565b60405160208183030381529060405283600281518110612d3157612d31613e43565b828181518110612e0a57612e0a613e43565b6020026020010151600a03612f3557604051631510525360e21b8152600f90600401908152604051908190036020018120631510525360e21b825290612edd90600f906004019081526040805191829003602090810183206001018054808302850183019093528284529190830182828015612ed157602002820191906000526020600020906000905b82829054906101000a900463ffffffff1663ffffffff1681526020019060040190602082600301049283019260010382029150808411612e945790505b5050505050888e61214f565b81548110612eed57612eed613e43565b90600052602060002001604051602001612f0791906144a0565b60405160208183030381529060405282600481518110612f2957612f29613e43565b60200260200101819052505b80612f3f81613e59565b915050612b28565b50604080516020810190915260008082525b8251811015612fd5576000838281518110612f7657612f76613e43565b6020026020010151511115612fc35781838281518110612f9857612f98613e43565b6020026020010151604051602001612fb1929190613f46565b60405160208183030381529060405291505b80612fcd81613e59565b915050612f59565b509e9d5050505050505050505050505050565b60606000613093601180548060200260200160405190810160405280929190818152602001828054801561306757602002820191906000526020600020906000905b82829054906101000a900463ffffffff1663ffffffff168152602001906004019060208260030104928301926001038202915080841161302a5790505b50505050506119c085604051806040016040528060048152602001634d4f445360e01b815250886120e8565b90506000816001600160401b038111156130af576130af613afa565b6040519080825280602002602001820160405280156130d8578160200160208202803683370190505b5060408051600480825260a082019092529192506000919060208201608080368337019050509050600f60405161311f9069504f535345535349564560b01b8152600a0190565b9081526040519081900360200190206001015461313f90620f4240613de3565b8160008151811061315257613152613e43565b602002602001019063ffffffff16908163ffffffff1681525050600f8760405161317c919061422f565b9081526040519081900360200190206002015461319c90620f4240613de3565b816001815181106131af576131af613e43565b602002602001019063ffffffff16908163ffffffff1681525050600f876040516131d9919061422f565b908152604051908190036020019020600301546131f990620f4240613de3565b8160028151811061320c5761320c613e43565b63ffffffff90921660209283029190910190910152604051631510525360e21b8152600f906004019081526040519081900360200190206001015461325490620f4240613de3565b8160038151811061326757613267613e43565b602002602001019063ffffffff16908163ffffffff168152505060005b8381101561333f5760006132c361329c836001613d94565b6040518060400160405280600881526020016726a7a224a324a2a960c11b8152508a6120e8565b905060006132db6132d385613762565b83600061214f565b90506132e8816007613d94565b8584815181106132fa576132fa613e43565b60200260200101818152505083818151811061331857613318613e43565b60200260200101600063ffffffff168152505050808061333790613e59565b915050613284565b50909695505050505050565b6133766040518060800160405280606081526020016060815260200160608152602001606081525090565b600061339f8460405180604001604052806005815260200164455854524160d81b815250613882565b6133e457600f856040516133b3919061422f565b908152602001604051809103902060030183815481106133d5576133d5613e43565b90600052602060002001613421565b600f856040516133f4919061422f565b9081526020016040518091039020600201838154811061341657613416613e43565b906000526020600020015b80548060200260200160405190810160405280929190818152602001828054801561348957602002820191906000526020600020906000905b825461010083900a900460ff1681526020600192830181810494850194909303909202910180841161345a5790505b505050505090506000604051806080016040528083516001600160401b038111156134b6576134b6613afa565b6040519080825280602002602001820160405280156134e957816020015b60608152602001906001900390816134d45790505b50815260200183516001600160401b0381111561350857613508613afa565b604051908082528060200260200182016040528015613531578160200160208202803683370190505b508152602001600060405190808252806020026020018201604052801561356c57816020015b60608152602001906001900390816135575790505b50815260200160006040519080825280602002602001820160405280156135a757816020015b60608152602001906001900390816135925790505b509052905060005b82518110156137585760008382815181106135cc576135cc613e43565b60200260200101519050600f876040516135e6919061422f565b90815260200160405180910390206000018160ff168154811061360b5761360b613e43565b90600052602060002001805461362090613d0f565b80601f016020809104026020016040519081016040528092919081815260200182805461364c90613d0f565b80156136995780601f1061366e57610100808354040283529160200191613699565b820191906000526020600020905b81548152906001019060200180831161367c57829003601f168201915b5050505050836000015183815181106136b4576136b4613e43565b6020026020010181905250600f876040516136cf919061422f565b90815260200160405180910390206001018160ff16815481106136f4576136f4613e43565b90600052602060002090600891828204019190066004029054906101000a900463ffffffff168360200151838151811061373057613730613e43565b63ffffffff90921660209283029190910190910152508061375081613e59565b9150506135af565b5095945050505050565b606060008083516001600160401b0381111561378057613780613afa565b6040519080825280602002602001820160405280156137a9578160200160208202803683370190505b50905060005b84518110156110105763ffffffff80168582815181106137d1576137d1613e43565b6020026020010151846137e491906144b6565b63ffffffff16106138215760405162461bcd60e51b8152602060048201526007602482015266546f6f2042696760c81b6044820152606401610771565b84818151811061383357613833613e43565b60200260200101518361384691906144b6565b92508282828151811061385b5761385b613e43565b63ffffffff909216602092830291909101909101528061387a81613e59565b9150506137af565b600081604051602001613895919061422f565b60405160208183030381529060405280519060200120836040516020016138bc919061422f565b6040516020818303038152906040528051906020012014905092915050565b8280546138e790613d0f565b90600052602060002090601f016020900481019282613909576000855561394f565b82601f1061392257805160ff191683800117855561394f565b8280016001018555821561394f579182015b8281111561394f578251825591602001919060010190613934565b5061395b92915061395f565b5090565b5b8082111561395b5760008155600101613960565b6001600160e01b03198116811461111e57600080fd5b60006020828403121561399c57600080fd5b813561214881613974565b60005b838110156139c25781810151838201526020016139aa565b83811115610f505750506000910152565b600081518084526139eb8160208601602086016139a7565b601f01601f19169290920160200192915050565b60208152600061214860208301846139d3565b6001600160a01b038116811461111e57600080fd5b60008060408385031215613a3a57600080fd5b823591506020830135613a4c81613a12565b809150509250929050565b600060208284031215613a6957600080fd5b5035919050565b60008060408385031215613a8357600080fd5b8235613a8e81613a12565b946020939093013593505050565b600060208284031215613aae57600080fd5b813561214881613a12565b600080600060608486031215613ace57600080fd5b8335613ad981613a12565b92506020840135613ae981613a12565b929592945050506040919091013590565b634e487b7160e01b600052604160045260246000fd5b60006001600160401b0380841115613b2a57613b2a613afa565b604051601f8501601f19908116603f01168101908282118183101715613b5257613b52613afa565b81604052809350858152868686011115613b6b57600080fd5b858560208301376000602087830101525050509392505050565b600060208284031215613b9757600080fd5b81356001600160401b03811115613bad57600080fd5b8201601f81018413613bbe57600080fd5b61190b84823560208401613b10565b60008060408385031215613be057600080fd5b8235613beb81613a12565b915060208301358015158114613a4c57600080fd5b60008060008060808587031215613c1657600080fd5b8435613c2181613a12565b93506020850135613c3181613a12565b92506040850135915060608501356001600160401b03811115613c5357600080fd5b8501601f81018713613c6457600080fd5b613c7387823560208401613b10565b91505092959194509250565b6000602080830181845280855180835260408601915060408160051b870101925083870160005b82811015613cd457603f19888603018452613cc28583516139d3565b94509285019290850190600101613ca6565b5092979650505050505050565b60008060408385031215613cf457600080fd5b8235613cff81613a12565b91506020830135613a4c81613a12565b600181811c90821680613d2357607f821691505b602082108103613d4357634e487b7160e01b600052602260045260246000fd5b50919050565b6020808252818101527f4f776e61626c653a2063616c6c6572206973206e6f7420746865206f776e6572604082015260600190565b634e487b7160e01b600052601160045260246000fd5b60008219821115613da757613da7613d7e565b500190565b6020808252601f908201527f4e6577206d696e742065786365656473206d6178696d756d20737570706c7900604082015260600190565b6000816000190483118215151615613dfd57613dfd613d7e565b500290565b634e487b7160e01b600052601260045260246000fd5b600082613e2757613e27613e02565b500490565b600082821015613e3e57613e3e613d7e565b500390565b634e487b7160e01b600052603260045260246000fd5b600060018201613e6b57613e6b613d7e565b5060010190565b6001600160a01b0385811682528416602082015260408101839052608060608201819052600090613ea5908301846139d3565b9695505050505050565b600060208284031215613ec157600080fd5b815161214881613974565b60008151613ede8185602086016139a7565b9290920192915050565b7f3c2f746578743e3c7465787420783d2233342220793d22000000000000000000815260008251613f208160178501602087016139a7565b6e111031b630b9b99e913130b9b2911f60891b6017939091019283015250602601919050565b60008351613f588184602088016139a7565b835190830190613f6c8183602088016139a7565b01949350505050565b60008351613f878184602088016139a7565b835190830190613f9b8183602088016139a7565b600b60fa1b9101908152600101949350505050565b707b226e616d65223a20224368657374202360781b81528351600090613fdd8160118501602089016139a7565b7001116101130ba3a3934b13aba32b9911d1607d1b601191840191820152845161400e8160228401602089016139a7565b7f5d2c20226465736372697074696f6e223a202254726561737572652069732072602292909101918201527f616e646f6d697a656420626174746c6520676561722067656e6572617465642060428201527f616e642073746f726564206f6e20636861696e2e20456163682074726561737560628201527f726520636865737420636f6e7461696e7320612076617269657479206f66206760828201527f65617220746861742077617272696f72732077696c6c2075736520696e20626160a28201527f74746c652e2052616e67696e672066726f6d2061726d6f75722c20746f20776560c28201527f61706f6e7320616e6420737572766976616c20676561722e204665656c20667260e28201527f656520746f2075736520796f757220747265617375726520696e20616e7920776101028201527f617920796f752077616e742e222c2022696d616765223a2022646174613a696d610122820152721859d94bdcdd99cade1b5b0ed8985cd94d8d0b606a1b610142820152613ea5614199610155830186613ecc565b61227d60f01b815260020190565b7f646174613a6170706c69636174696f6e2f6a736f6e3b6261736536342c0000008152600082516141df81601d8501602087016139a7565b91909101601d0192915050565b600084516141fe8184602089016139a7565b8451908301906142128183602089016139a7565b84519101906142258183602088016139a7565b0195945050505050565b600082516142418184602087016139a7565b9190910192915050565b600181815b8085111561428657816000190482111561426c5761426c613d7e565b8085161561427957918102915b93841c9390800290614250565b509250929050565b60008261429d575060016106af565b816142aa575060006106af565b81600181146142c057600281146142ca576142e6565b60019150506106af565b60ff8411156142db576142db613d7e565b50506001821b6106af565b5060208310610133831016604e8410600b8410161715614309575081810a6106af565b614313838361424b565b806000190482111561432757614327613d7e565b029392505050565b600061214860ff84168361428e565b60008261434d5761434d613e02565b500690565b6f3d913a3930b4ba2fba3cb832911d101160811b8152825160009061437e8160108501602088016139a7565b6b1116113b30b63ab2911d101160a11b60109184019182015283516143aa81601c8401602088016139a7565b61227d60f01b601c9290910191820152601e01949350505050565b8054600090600181811c90808316806143df57607f831692505b6020808410820361440057634e487b7160e01b600052602260045260246000fd5b818015614414576001811461442557614452565b60ff19861689528489019650614452565b60008881526020902060005b8681101561444a5781548b820152908501908301614431565b505084890196505b50505050505092915050565b600061446a82846143c5565b600160fd1b81526001019392505050565b6000825161448d8184602087016139a7565b600160fd1b920191825250600101919050565b600160fd1b8152600061214860018301846143c5565b600063ffffffff808316818516808303821115613f6c57613f6c613d7e56fe3c73766720786d6c6e733d22687474703a2f2f7777772e77332e6f72672f323030302f73766722207072657365727665417370656374526174696f3d22784d696e594d696e206d656574222076696577426f783d223020302037303020373030223e3c7374796c653e2e62617365207b2066696c6c3a20626c61636b3b20666f6e742d66616d696c793a20616c656f3b20666f6e742d73697a653a20313970783b207d3c2f7374796c653e3c7374796c653e2e7469746c65207b2066696c6c3a20626c61636b3b20666f6e742d66616d696c793a20616c656f3b20666f6e742d73697a653a20323870783b20666f6e742d7374796c653a20626f6c643b207d3c2f7374796c653e3c726563742077696474683d223130302522206865696768743d2231303025222066696c6c3d222346463846303022202f3e3c7465787420783d2233342220793d2233342220636c6173733d2262617365223e3c2f746578743e3c7465787420783d223337302220793d223637302220636c6173733d227469746c65223e54726561737572652e2028466f722057617272696f7273293c2f746578743e3c2f7376673e4142434445464748494a4b4c4d4e4f505152535455565758595a6162636465666768696a6b6c6d6e6f707172737475767778797a303132333435363738392b2fa26469706673582212204de801140e7c721c4348025b6ba5ad7da395f67b2eff3362007b639f73318d1f64736f6c634300080d0033",
  "linkReferences": {},
  "deployedLinkReferences": {}
}