{
  "_format": "hh-sol-artifact-1",
  "contractName": "Treasure",
  "sourceName": "contracts/Treasure.sol",
  "abi": [
    {
      "inputs": [
        {
          "internalType": "string",
          "name": "__uri",
          "type": "string"
        },
        {
          "internalType": "address[]",
          "name": "payees",
          "type": "address[]"
        },
        {
          "internalType": "uint256[]",
          "name": "shares",
          "type": "uint256[]"
        },
        {
          "internalType": "string",
          "name": "_name",
          "type": "string"
        },
        {
          "internalType": "string",
          "name": "_symbol",
          "type": "string"
        }
      ],
      "stateMutability": "nonpayable",
      "type": "constructor"
    },
    {
      "anonymous": false,
      "inputs": [
        {
          "indexed": true,
          "internalType": "address",
          "name": "owner",
          "type": "address"
        },
        {
          "indexed": true,
          "internalType": "address",
          "name": "approved",
          "type": "address"
        },
        {
          "indexed": true,
          "internalType": "uint256",
          "name": "tokenId",
          "type": "uint256"
        }
      ],
      "name": "Approval",
      "type": "event"
    },
    {
      "anonymous": false,
      "inputs": [
        {
          "indexed": true,
          "internalType": "address",
          "name": "owner",
          "type": "address"
        },
        {
          "indexed": true,
          "internalType": "address",
          "name": "operator",
          "type": "address"
        },
        {
          "indexed": false,
          "internalType": "bool",
          "name": "approved",
          "type": "bool"
        }
      ],
      "name": "ApprovalForAll",
      "type": "event"
    },
    {
      "anonymous": false,
      "inputs": [
        {
          "indexed": true,
          "internalType": "address",
          "name": "previousOwner",
          "type": "address"
        },
        {
          "indexed": true,
          "internalType": "address",
          "name": "newOwner",
          "type": "address"
        }
      ],
      "name": "OwnershipTransferred",
      "type": "event"
    },
    {
      "anonymous": false,
      "inputs": [
        {
          "indexed": false,
          "internalType": "address",
          "name": "account",
          "type": "address"
        },
        {
          "indexed": false,
          "internalType": "uint256",
          "name": "shares",
          "type": "uint256"
        }
      ],
      "name": "PayeeAdded",
      "type": "event"
    },
    {
      "anonymous": false,
      "inputs": [
        {
          "indexed": false,
          "internalType": "address",
          "name": "from",
          "type": "address"
        },
        {
          "indexed": false,
          "internalType": "uint256",
          "name": "amount",
          "type": "uint256"
        }
      ],
      "name": "PaymentReceived",
      "type": "event"
    },
    {
      "anonymous": false,
      "inputs": [
        {
          "indexed": false,
          "internalType": "address",
          "name": "to",
          "type": "address"
        },
        {
          "indexed": false,
          "internalType": "uint256",
          "name": "amount",
          "type": "uint256"
        }
      ],
      "name": "PaymentReleased",
      "type": "event"
    },
    {
      "anonymous": false,
      "inputs": [
        {
          "indexed": true,
          "internalType": "address",
          "name": "from",
          "type": "address"
        },
        {
          "indexed": true,
          "internalType": "address",
          "name": "to",
          "type": "address"
        },
        {
          "indexed": true,
          "internalType": "uint256",
          "name": "tokenId",
          "type": "uint256"
        }
      ],
      "name": "Transfer",
      "type": "event"
    },
    {
      "inputs": [
        {
          "internalType": "address",
          "name": "to",
          "type": "address"
        },
        {
          "internalType": "uint256",
          "name": "tokenId",
          "type": "uint256"
        }
      ],
      "name": "approve",
      "outputs": [],
      "stateMutability": "nonpayable",
      "type": "function"
    },
    {
      "inputs": [
        {
          "internalType": "address",
          "name": "owner",
          "type": "address"
        }
      ],
      "name": "balanceOf",
      "outputs": [
        {
          "internalType": "uint256",
          "name": "",
          "type": "uint256"
        }
      ],
      "stateMutability": "view",
      "type": "function"
    },
    {
      "inputs": [],
      "name": "baseURI",
      "outputs": [
        {
          "internalType": "string",
          "name": "",
          "type": "string"
        }
      ],
      "stateMutability": "view",
      "type": "function"
    },
    {
      "inputs": [],
      "name": "contractURI",
      "outputs": [
        {
          "internalType": "string",
          "name": "",
          "type": "string"
        }
      ],
      "stateMutability": "view",
      "type": "function"
    },
    {
      "inputs": [],
      "name": "flipSaleState",
      "outputs": [],
      "stateMutability": "nonpayable",
      "type": "function"
    },
    {
      "inputs": [
        {
          "internalType": "uint256",
          "name": "tokenId",
          "type": "uint256"
        }
      ],
      "name": "getApproved",
      "outputs": [
        {
          "internalType": "address",
          "name": "",
          "type": "address"
        }
      ],
      "stateMutability": "view",
      "type": "function"
    },
    {
      "inputs": [
        {
          "internalType": "address",
          "name": "owner",
          "type": "address"
        },
        {
          "internalType": "address",
          "name": "operator",
          "type": "address"
        }
      ],
      "name": "isApprovedForAll",
      "outputs": [
        {
          "internalType": "bool",
          "name": "",
          "type": "bool"
        }
      ],
      "stateMutability": "view",
      "type": "function"
    },
    {
      "inputs": [
        {
          "internalType": "uint256",
          "name": "numMints",
          "type": "uint256"
        }
      ],
      "name": "mintReserve",
      "outputs": [],
      "stateMutability": "nonpayable",
      "type": "function"
    },
    {
      "inputs": [
        {
          "internalType": "uint256",
          "name": "numMints",
          "type": "uint256"
        },
        {
          "internalType": "address",
          "name": "recipient",
          "type": "address"
        }
      ],
      "name": "mintReserveToAddress",
      "outputs": [],
      "stateMutability": "nonpayable",
      "type": "function"
    },
    {
      "inputs": [],
      "name": "name",
      "outputs": [
        {
          "internalType": "string",
          "name": "",
          "type": "string"
        }
      ],
      "stateMutability": "view",
      "type": "function"
    },
    {
      "inputs": [],
      "name": "owner",
      "outputs": [
        {
          "internalType": "address",
          "name": "",
          "type": "address"
        }
      ],
      "stateMutability": "view",
      "type": "function"
    },
    {
      "inputs": [
        {
          "internalType": "uint256",
          "name": "tokenId",
          "type": "uint256"
        }
      ],
      "name": "ownerOf",
      "outputs": [
        {
          "internalType": "address",
          "name": "",
          "type": "address"
        }
      ],
      "stateMutability": "view",
      "type": "function"
    },
    {
      "inputs": [
        {
          "internalType": "uint256",
          "name": "index",
          "type": "uint256"
        }
      ],
      "name": "payee",
      "outputs": [
        {
          "internalType": "address",
          "name": "",
          "type": "address"
        }
      ],
      "stateMutability": "view",
      "type": "function"
    },
    {
      "inputs": [
        {
          "internalType": "uint256",
          "name": "numMints",
          "type": "uint256"
        }
      ],
      "name": "plunder",
      "outputs": [],
      "stateMutability": "payable",
      "type": "function"
    },
    {
      "inputs": [],
      "name": "price",
      "outputs": [
        {
          "internalType": "uint256",
          "name": "",
          "type": "uint256"
        }
      ],
      "stateMutability": "pure",
      "type": "function"
    },
    {
      "inputs": [
        {
          "internalType": "address payable",
          "name": "account",
          "type": "address"
        }
      ],
      "name": "release",
      "outputs": [],
      "stateMutability": "nonpayable",
      "type": "function"
    },
    {
      "inputs": [
        {
          "internalType": "address",
          "name": "account",
          "type": "address"
        }
      ],
      "name": "released",
      "outputs": [
        {
          "internalType": "uint256",
          "name": "",
          "type": "uint256"
        }
      ],
      "stateMutability": "view",
      "type": "function"
    },
    {
      "inputs": [],
      "name": "renounceOwnership",
      "outputs": [],
      "stateMutability": "nonpayable",
      "type": "function"
    },
    {
      "inputs": [],
      "name": "reserved",
      "outputs": [
        {
          "internalType": "uint256",
          "name": "",
          "type": "uint256"
        }
      ],
      "stateMutability": "view",
      "type": "function"
    },
    {
      "inputs": [
        {
          "internalType": "address",
          "name": "from",
          "type": "address"
        },
        {
          "internalType": "address",
          "name": "to",
          "type": "address"
        },
        {
          "internalType": "uint256",
          "name": "tokenId",
          "type": "uint256"
        }
      ],
      "name": "safeTransferFrom",
      "outputs": [],
      "stateMutability": "nonpayable",
      "type": "function"
    },
    {
      "inputs": [
        {
          "internalType": "address",
          "name": "from",
          "type": "address"
        },
        {
          "internalType": "address",
          "name": "to",
          "type": "address"
        },
        {
          "internalType": "uint256",
          "name": "tokenId",
          "type": "uint256"
        },
        {
          "internalType": "bytes",
          "name": "_data",
          "type": "bytes"
        }
      ],
      "name": "safeTransferFrom",
      "outputs": [],
      "stateMutability": "nonpayable",
      "type": "function"
    },
    {
      "inputs": [
        {
          "internalType": "address",
          "name": "operator",
          "type": "address"
        },
        {
          "internalType": "bool",
          "name": "approved",
          "type": "bool"
        }
      ],
      "name": "setApprovalForAll",
      "outputs": [],
      "stateMutability": "nonpayable",
      "type": "function"
    },
    {
      "inputs": [
        {
          "internalType": "string",
          "name": "__uri",
          "type": "string"
        }
      ],
      "name": "setBaseURI",
      "outputs": [],
      "stateMutability": "nonpayable",
      "type": "function"
    },
    {
      "inputs": [
        {
          "internalType": "string",
          "name": "__contractURI",
          "type": "string"
        }
      ],
      "name": "setContractURI",
      "outputs": [],
      "stateMutability": "nonpayable",
      "type": "function"
    },
    {
      "inputs": [
        {
          "internalType": "address",
          "name": "account",
          "type": "address"
        }
      ],
      "name": "shares",
      "outputs": [
        {
          "internalType": "uint256",
          "name": "",
          "type": "uint256"
        }
      ],
      "stateMutability": "view",
      "type": "function"
    },
    {
      "inputs": [],
      "name": "status",
      "outputs": [
        {
          "internalType": "bool",
          "name": "",
          "type": "bool"
        }
      ],
      "stateMutability": "view",
      "type": "function"
    },
    {
      "inputs": [
        {
          "internalType": "bytes4",
          "name": "interfaceId",
          "type": "bytes4"
        }
      ],
      "name": "supportsInterface",
      "outputs": [
        {
          "internalType": "bool",
          "name": "",
          "type": "bool"
        }
      ],
      "stateMutability": "view",
      "type": "function"
    },
    {
      "inputs": [],
      "name": "symbol",
      "outputs": [
        {
          "internalType": "string",
          "name": "",
          "type": "string"
        }
      ],
      "stateMutability": "view",
      "type": "function"
    },
    {
      "inputs": [
        {
          "internalType": "uint256",
          "name": "index",
          "type": "uint256"
        }
      ],
      "name": "tokenByIndex",
      "outputs": [
        {
          "internalType": "uint256",
          "name": "",
          "type": "uint256"
        }
      ],
      "stateMutability": "view",
      "type": "function"
    },
    {
      "inputs": [
        {
          "internalType": "address",
          "name": "owner",
          "type": "address"
        },
        {
          "internalType": "uint256",
          "name": "index",
          "type": "uint256"
        }
      ],
      "name": "tokenOfOwnerByIndex",
      "outputs": [
        {
          "internalType": "uint256",
          "name": "",
          "type": "uint256"
        }
      ],
      "stateMutability": "view",
      "type": "function"
    },
    {
      "inputs": [
        {
          "internalType": "uint256",
          "name": "tokenId",
          "type": "uint256"
        }
      ],
      "name": "tokenURI",
      "outputs": [
        {
          "internalType": "string",
          "name": "",
          "type": "string"
        }
      ],
      "stateMutability": "view",
      "type": "function"
    },
    {
      "inputs": [
        {
          "internalType": "address",
          "name": "owner",
          "type": "address"
        }
      ],
      "name": "tokensOfOwner",
      "outputs": [
        {
          "internalType": "uint256[]",
          "name": "",
          "type": "uint256[]"
        }
      ],
      "stateMutability": "view",
      "type": "function"
    },
    {
      "inputs": [],
      "name": "totalReleased",
      "outputs": [
        {
          "internalType": "uint256",
          "name": "",
          "type": "uint256"
        }
      ],
      "stateMutability": "view",
      "type": "function"
    },
    {
      "inputs": [],
      "name": "totalShares",
      "outputs": [
        {
          "internalType": "uint256",
          "name": "",
          "type": "uint256"
        }
      ],
      "stateMutability": "view",
      "type": "function"
    },
    {
      "inputs": [],
      "name": "totalSupply",
      "outputs": [
        {
          "internalType": "uint256",
          "name": "",
          "type": "uint256"
        }
      ],
      "stateMutability": "view",
      "type": "function"
    },
    {
      "inputs": [
        {
          "internalType": "address",
          "name": "from",
          "type": "address"
        },
        {
          "internalType": "address",
          "name": "to",
          "type": "address"
        },
        {
          "internalType": "uint256",
          "name": "tokenId",
          "type": "uint256"
        }
      ],
      "name": "transferFrom",
      "outputs": [],
      "stateMutability": "nonpayable",
      "type": "function"
    },
    {
      "inputs": [
        {
          "internalType": "address",
          "name": "newOwner",
          "type": "address"
        }
      ],
      "name": "transferOwnership",
      "outputs": [],
      "stateMutability": "nonpayable",
      "type": "function"
    },
    {
      "stateMutability": "payable",
      "type": "receive"
    }
  ],
  "bytecode": "0x6080604052600f805460ff191690553480156200001b57600080fd5b5060405162002ec538038062002ec58339810160408190526200003e91620006c1565b8383838381600090805190602001906200005a9291906200042b565b508051620000709060019060208401906200042b565b5050506200008d62000087620001e760201b60201c565b620001eb565b60016006558051825114620001045760405162461bcd60e51b815260206004820152603260248201527f5061796d656e7453706c69747465723a2070617965657320616e6420736861726044820152710cae640d8cadccee8d040dad2e6dac2e8c6d60731b60648201526084015b60405180910390fd5b6000825111620001575760405162461bcd60e51b815260206004820152601a60248201527f5061796d656e7453706c69747465723a206e6f207061796565730000000000006044820152606401620000fb565b60005b8251811015620001c357620001ae8382815181106200017d576200017d620007a2565b60200260200101518383815181106200019a576200019a620007a2565b60200260200101516200023d60201b60201c565b80620001ba81620007ce565b9150506200015a565b50508551620001db9150600c9060208801906200042b565b50505050505062000844565b3390565b600580546001600160a01b038381166001600160a01b0319831681179093556040519116919082907f8be0079c531659141344cd1fd0a4f28419497f9722a3daafe3b4186f6b6457e090600090a35050565b6001600160a01b038216620002aa5760405162461bcd60e51b815260206004820152602c60248201527f5061796d656e7453706c69747465723a206163636f756e74206973207468652060448201526b7a65726f206164647265737360a01b6064820152608401620000fb565b60008111620002fc5760405162461bcd60e51b815260206004820152601d60248201527f5061796d656e7453706c69747465723a207368617265732061726520300000006044820152606401620000fb565b6001600160a01b03821660009081526009602052604090205415620003785760405162461bcd60e51b815260206004820152602b60248201527f5061796d656e7453706c69747465723a206163636f756e7420616c726561647960448201526a206861732073686172657360a81b6064820152608401620000fb565b600b8054600181019091557f0175b7a638427703f0dbe7bb9bbf987a2551717b34e79f33b5b1008d1fa01db90180546001600160a01b0319166001600160a01b0384169081179091556000908152600960205260409020819055600754620003e2908290620007ec565b600755604080516001600160a01b0384168152602081018390527f40c340f65e17194d14ddddb073d3c9f888e3cb52b5aae0c6c7706b4fbc905fac910160405180910390a15050565b828054620004399062000807565b90600052602060002090601f0160209004810192826200045d5760008555620004a8565b82601f106200047857805160ff1916838001178555620004a8565b82800160010185558215620004a8579182015b82811115620004a85782518255916020019190600101906200048b565b50620004b6929150620004ba565b5090565b5b80821115620004b65760008155600101620004bb565b634e487b7160e01b600052604160045260246000fd5b604051601f8201601f191681016001600160401b0381118282101715620005125762000512620004d1565b604052919050565b600082601f8301126200052c57600080fd5b81516001600160401b03811115620005485762000548620004d1565b60206200055e601f8301601f19168201620004e7565b82815285828487010111156200057357600080fd5b60005b838110156200059357858101830151828201840152820162000576565b83811115620005a55760008385840101525b5095945050505050565b60006001600160401b03821115620005cb57620005cb620004d1565b5060051b60200190565b600082601f830112620005e757600080fd5b8151602062000600620005fa83620005af565b620004e7565b82815260059290921b840181019181810190868411156200062057600080fd5b8286015b84811015620006545780516001600160a01b0381168114620006465760008081fd5b835291830191830162000624565b509695505050505050565b600082601f8301126200067157600080fd5b8151602062000684620005fa83620005af565b82815260059290921b84018101918181019086841115620006a457600080fd5b8286015b84811015620006545780518352918301918301620006a8565b600080600080600060a08688031215620006da57600080fd5b85516001600160401b0380821115620006f257600080fd5b6200070089838a016200051a565b965060208801519150808211156200071757600080fd5b6200072589838a01620005d5565b955060408801519150808211156200073c57600080fd5b6200074a89838a016200065f565b945060608801519150808211156200076157600080fd5b6200076f89838a016200051a565b935060808801519150808211156200078657600080fd5b5062000795888289016200051a565b9150509295509295909350565b634e487b7160e01b600052603260045260246000fd5b634e487b7160e01b600052601160045260246000fd5b6000600019821415620007e557620007e5620007b8565b5060010190565b60008219821115620008025762000802620007b8565b500190565b600181811c908216806200081c57607f821691505b602082108114156200083e57634e487b7160e01b600052602260045260246000fd5b50919050565b61267180620008546000396000f3fe60806040526004361061021e5760003560e01c8063715018a611610123578063a22cb465116100ab578063e8a3d4851161006f578063e8a3d48514610676578063e985e9c51461068b578063f2fde38b146106d4578063f906751b146106f4578063fe60d12c1461071457600080fd5b8063a22cb465146105cb578063b88d4fde146105eb578063c87b56dd1461060b578063ce7c2ac21461062b578063e33b7de31461066157600080fd5b8063910fc67d116100f2578063910fc67d14610533578063938e3d7b1461054657806395d89b41146105665780639852595c1461057b578063a035b1fe146105b157600080fd5b8063715018a6146104b35780638462151c146104c85780638b83209b146104f55780638da5cb5b1461051557600080fd5b80632f745c59116101a65780634f6ccce7116101755780634f6ccce71461041e57806355f804b31461043e5780636352211e1461045e5780636c0360eb1461047e57806370a082311461049357600080fd5b80632f745c59146103b457806334918dfd146103d45780633a98ef39146103e957806342842e0e146103fe57600080fd5b8063095ea7b3116101ed578063095ea7b31461031d57806318160ddd1461033d578063191655871461035c578063200d2ed21461037c57806323b872dd1461039457600080fd5b806301ffc9a71461026c57806306fdde03146102a157806307e3aa71146102c3578063081812fc146102e557600080fd5b36610267577f6ef95f06320e7a25a04a175ca677b7052bdd97131872c2192525a629f51be77033604080516001600160a01b0390921682523460208301520160405180910390a1005b600080fd5b34801561027857600080fd5b5061028c610287366004611fe6565b610729565b60405190151581526020015b60405180910390f35b3480156102ad57600080fd5b506102b6610754565b604051610298919061205b565b3480156102cf57600080fd5b506102e36102de366004612083565b6107e6565b005b3480156102f157600080fd5b506103056103003660046120b3565b610901565b6040516001600160a01b039091168152602001610298565b34801561032957600080fd5b506102e36103383660046120cc565b61098b565b34801561034957600080fd5b506002545b604051908152602001610298565b34801561036857600080fd5b506102e36103773660046120f8565b610aa1565b34801561038857600080fd5b50600f5460ff1661028c565b3480156103a057600080fd5b506102e36103af366004612115565b610c72565b3480156103c057600080fd5b5061034e6103cf3660046120cc565b610ca3565b3480156103e057600080fd5b506102e3610d52565b3480156103f557600080fd5b5060075461034e565b34801561040a57600080fd5b506102e3610419366004612115565b610d90565b34801561042a57600080fd5b5061034e6104393660046120b3565b610dab565b34801561044a57600080fd5b506102e36104593660046121e2565b610e1d565b34801561046a57600080fd5b506103056104793660046120b3565b610e5e565b34801561048a57600080fd5b506102b6610ef7565b34801561049f57600080fd5b5061034e6104ae3660046120f8565b610f06565b3480156104bf57600080fd5b506102e3610fda565b3480156104d457600080fd5b506104e86104e33660046120f8565b611010565b604051610298919061222b565b34801561050157600080fd5b506103056105103660046120b3565b6110d8565b34801561052157600080fd5b506005546001600160a01b0316610305565b6102e36105413660046120b3565b6110ed565b34801561055257600080fd5b506102e36105613660046121e2565b61133e565b34801561057257600080fd5b506102b661137b565b34801561058757600080fd5b5061034e6105963660046120f8565b6001600160a01b03166000908152600a602052604090205490565b3480156105bd57600080fd5b50669536c70891000061034e565b3480156105d757600080fd5b506102e36105e636600461226f565b61138a565b3480156105f757600080fd5b506102e36106063660046122a2565b611395565b34801561061757600080fd5b506102b66106263660046120b3565b6113c7565b34801561063757600080fd5b5061034e6106463660046120f8565b6001600160a01b031660009081526009602052604090205490565b34801561066d57600080fd5b5060085461034e565b34801561068257600080fd5b506102b6611494565b34801561069757600080fd5b5061028c6106a6366004612322565b6001600160a01b03918216600090815260046020908152604080832093909416825291909152205460ff1690565b3480156106e057600080fd5b506102e36106ef3660046120f8565b6114a3565b34801561070057600080fd5b506102e361070f3660046120b3565b61153e565b34801561072057600080fd5b5061034e611645565b60006001600160e01b0319821663780e9d6360e01b148061074e575061074e82611655565b92915050565b60606000805461076390612350565b80601f016020809104026020016040519081016040528092919081815260200182805461078f90612350565b80156107dc5780601f106107b1576101008083540402835291602001916107dc565b820191906000526020600020905b8154815290600101906020018083116107bf57829003601f168201915b5050505050905090565b6005546001600160a01b031633146108195760405162461bcd60e51b81526004016108109061238b565b60405180910390fd5b6127108261082660025490565b61083091906123d6565b111561084e5760405162461bcd60e51b8152600401610810906123ee565b60648261085a600e5490565b61086491906123d6565b11156108b25760405162461bcd60e51b815260206004820152601f60248201527f4e6577206d696e742065786365656473207265736572766520737570706c79006044820152606401610810565b60006108bd60025490565b905060005b838110156108fb576108d8600e80546001019055565b6108eb836108e683856123d6565b6116a5565b6108f481612425565b90506108c2565b50505050565b600061090e826002541190565b61096f5760405162461bcd60e51b815260206004820152602c60248201527f4552433732313a20617070726f76656420717565727920666f72206e6f6e657860448201526b34b9ba32b73a103a37b5b2b760a11b6064820152608401610810565b506000908152600360205260409020546001600160a01b031690565b600061099682610e5e565b9050806001600160a01b0316836001600160a01b03161415610a045760405162461bcd60e51b815260206004820152602160248201527f4552433732313a20617070726f76616c20746f2063757272656e74206f776e656044820152603960f91b6064820152608401610810565b336001600160a01b0382161480610a205750610a2081336106a6565b610a925760405162461bcd60e51b815260206004820152603860248201527f4552433732313a20617070726f76652063616c6c6572206973206e6f74206f7760448201527f6e6572206e6f7220617070726f76656420666f7220616c6c00000000000000006064820152608401610810565b610a9c83836116bf565b505050565b6001600160a01b038116600090815260096020526040902054610b155760405162461bcd60e51b815260206004820152602660248201527f5061796d656e7453706c69747465723a206163636f756e7420686173206e6f2060448201526573686172657360d01b6064820152608401610810565b600060085447610b2591906123d6565b6001600160a01b0383166000908152600a60209081526040808320546007546009909352908320549394509192610b5c9085612440565b610b669190612475565b610b709190612489565b905080610bd35760405162461bcd60e51b815260206004820152602b60248201527f5061796d656e7453706c69747465723a206163636f756e74206973206e6f742060448201526a191d59481c185e5b595b9d60aa1b6064820152608401610810565b6001600160a01b0383166000908152600a6020526040902054610bf79082906123d6565b6001600160a01b0384166000908152600a6020526040902055600854610c1e9082906123d6565b600855610c2b838261172d565b604080516001600160a01b0385168152602081018390527fdf20fd1e76bc69d672e4814fafb2c449bba3a5369d8359adf9e05e6fde87b056910160405180910390a1505050565b610c7c3382611846565b610c985760405162461bcd60e51b8152600401610810906124a0565b610a9c838383611932565b6000610cae83610f06565b8210610ccc5760405162461bcd60e51b8152600401610810906124f1565b6000805b600254811015610d395760028181548110610ced57610ced612536565b6000918252602090912001546001600160a01b0386811691161415610d295783821415610d1d57915061074e9050565b610d2682612425565b91505b610d3281612425565b9050610cd0565b5060405162461bcd60e51b8152600401610810906124f1565b6005546001600160a01b03163314610d7c5760405162461bcd60e51b81526004016108109061238b565b600f805460ff19811660ff90911615179055565b610a9c83838360405180602001604052806000815250611395565b6000610db8826002541190565b610e195760405162461bcd60e51b815260206004820152602c60248201527f455243373231456e756d657261626c653a20676c6f62616c20696e646578206f60448201526b7574206f6620626f756e647360a01b6064820152608401610810565b5090565b6005546001600160a01b03163314610e475760405162461bcd60e51b81526004016108109061238b565b8051610e5a90600c906020840190611f40565b5050565b6000610e6b826002541190565b610ec95760405162461bcd60e51b815260206004820152602960248201527f4552433732313a206f776e657220717565727920666f72206e6f6e657869737460448201526832b73a103a37b5b2b760b91b6064820152608401610810565b60028281548110610edc57610edc612536565b6000918252602090912001546001600160a01b031692915050565b6060600c805461076390612350565b60006001600160a01b038216610f715760405162461bcd60e51b815260206004820152602a60248201527f4552433732313a2062616c616e636520717565727920666f7220746865207a65604482015269726f206164647265737360b01b6064820152608401610810565b6000805b600254811015610fd357836001600160a01b031660028281548110610f9c57610f9c612536565b6000918252602090912001546001600160a01b03161415610fc357610fc082612425565b91505b610fcc81612425565b9050610f75565b5092915050565b6005546001600160a01b031633146110045760405162461bcd60e51b81526004016108109061238b565b61100e6000611a84565b565b6060600061101d83610f06565b1161103a5760405162461bcd60e51b8152600401610810906124f1565b600061104583610f06565b905060008167ffffffffffffffff81111561106257611062612156565b60405190808252806020026020018201604052801561108b578160200160208202803683370190505b50905060005b828110156110d0576110a38582610ca3565b8282815181106110b5576110b5612536565b60209081029190910101526110c981612425565b9050611091565b509392505050565b6000600b8281548110610edc57610edc612536565b600260065414156111405760405162461bcd60e51b815260206004820152601f60248201527f5265656e7472616e637947756172643a207265656e7472616e742063616c6c006044820152606401610810565b6002600655600f5460ff166111885760405162461bcd60e51b815260206004820152600e60248201526d14d85b19481a5cc81c185d5cd95960921b6044820152606401610810565b61119981669536c708910000612440565b3410156111e05760405162461bcd60e51b8152602060048201526015602482015274139bdd08195b9bdd59da08195d1a195c881cd95b9d605a1b6044820152606401610810565b612710816111ed60025490565b6111f791906123d6565b11156112155760405162461bcd60e51b8152600401610810906123ee565b600e546112256064612710612489565b61122f91906123d6565b8161123960025490565b61124391906123d6565b11156112a35760405162461bcd60e51b815260206004820152602960248201527f4e6577206d696e742065786365656473206d6178696d756d20617661696c61626044820152686c6520737570706c7960b81b6064820152608401610810565b60198111156112fe5760405162461bcd60e51b815260206004820152602160248201527f45786365656473206d6178206d696e747320706572207472616e73616374696f6044820152603760f91b6064820152608401610810565b600061130960025490565b905060005b8281101561133457611324336108e683856123d6565b61132d81612425565b905061130e565b5050600160065550565b6005546001600160a01b031633146113685760405162461bcd60e51b81526004016108109061238b565b8051610e5a90600d906020840190611f40565b60606001805461076390612350565b610e5a338383611ad6565b61139f3383611846565b6113bb5760405162461bcd60e51b8152600401610810906124a0565b6108fb84848484611ba5565b60606113d4826002541190565b6114385760405162461bcd60e51b815260206004820152602f60248201527f4552433732314d657461646174613a2055524920717565727920666f72206e6f60448201526e3732bc34b9ba32b73a103a37b5b2b760891b6064820152608401610810565b6000611442610ef7565b90506000815111611462576040518060200160405280600081525061148d565b8061146c84611bd8565b60405160200161147d92919061254c565b6040516020818303038152906040525b9392505050565b6060600d805461076390612350565b6005546001600160a01b031633146114cd5760405162461bcd60e51b81526004016108109061238b565b6001600160a01b0381166115325760405162461bcd60e51b815260206004820152602660248201527f4f776e61626c653a206e6577206f776e657220697320746865207a65726f206160448201526564647265737360d01b6064820152608401610810565b61153b81611a84565b50565b6005546001600160a01b031633146115685760405162461bcd60e51b81526004016108109061238b565b6127108161157560025490565b61157f91906123d6565b111561159d5760405162461bcd60e51b8152600401610810906123ee565b6064816115a9600e5490565b6115b391906123d6565b11156116015760405162461bcd60e51b815260206004820152601f60248201527f4e6577206d696e742065786365656473207265736572766520737570706c79006044820152606401610810565b600061160c60025490565b905060005b82811015610a9c57611627600e80546001019055565b611635336108e683856123d6565b61163e81612425565b9050611611565b6000611650600e5490565b905090565b60006001600160e01b031982166380ac58cd60e01b148061168657506001600160e01b03198216635b5e139f60e01b145b8061074e57506301ffc9a760e01b6001600160e01b031983161461074e565b610e5a828260405180602001604052806000815250611cd6565b600081815260036020526040902080546001600160a01b0319166001600160a01b03841690811790915581906116f482610e5e565b6001600160a01b03167f8c5be1e5ebec7d5bd14f71427d1e84f3dd0314c0f7b2291e5b200ac8c7c3b92560405160405180910390a45050565b8047101561177d5760405162461bcd60e51b815260206004820152601d60248201527f416464726573733a20696e73756666696369656e742062616c616e63650000006044820152606401610810565b6000826001600160a01b03168260405160006040518083038185875af1925050503d80600081146117ca576040519150601f19603f3d011682016040523d82523d6000602084013e6117cf565b606091505b5050905080610a9c5760405162461bcd60e51b815260206004820152603a60248201527f416464726573733a20756e61626c6520746f2073656e642076616c75652c207260448201527f6563697069656e74206d617920686176652072657665727465640000000000006064820152608401610810565b6000611853826002541190565b6118b45760405162461bcd60e51b815260206004820152602c60248201527f4552433732313a206f70657261746f7220717565727920666f72206e6f6e657860448201526b34b9ba32b73a103a37b5b2b760a11b6064820152608401610810565b60006118bf83610e5e565b9050806001600160a01b0316846001600160a01b031614806118fa5750836001600160a01b03166118ef84610901565b6001600160a01b0316145b8061192a57506001600160a01b0380821660009081526004602090815260408083209388168352929052205460ff165b949350505050565b826001600160a01b031661194582610e5e565b6001600160a01b0316146119a95760405162461bcd60e51b815260206004820152602560248201527f4552433732313a207472616e736665722066726f6d20696e636f72726563742060448201526437bbb732b960d91b6064820152608401610810565b6001600160a01b038216611a0b5760405162461bcd60e51b8152602060048201526024808201527f4552433732313a207472616e7366657220746f20746865207a65726f206164646044820152637265737360e01b6064820152608401610810565b611a166000826116bf565b8160028281548110611a2a57611a2a612536565b6000918252602082200180546001600160a01b0319166001600160a01b03938416179055604051839285811692908716917fddf252ad1be2c89b69c2b068fc378daa952ba7f163c4a11628f55a4df523b3ef9190a4505050565b600580546001600160a01b038381166001600160a01b0319831681179093556040519116919082907f8be0079c531659141344cd1fd0a4f28419497f9722a3daafe3b4186f6b6457e090600090a35050565b816001600160a01b0316836001600160a01b03161415611b385760405162461bcd60e51b815260206004820152601960248201527f4552433732313a20617070726f766520746f2063616c6c6572000000000000006044820152606401610810565b6001600160a01b03838116600081815260046020908152604080832094871680845294825291829020805460ff191686151590811790915591519182527f17307eab39ab6107e8899845ad3d59bd9653f200f220920489ca2b5937696c31910160405180910390a3505050565b611bb0848484611932565b611bbc84848484611d09565b6108fb5760405162461bcd60e51b81526004016108109061257b565b606081611bfc5750506040805180820190915260018152600360fc1b602082015290565b8160005b8115611c265780611c1081612425565b9150611c1f9050600a83612475565b9150611c00565b60008167ffffffffffffffff811115611c4157611c41612156565b6040519080825280601f01601f191660200182016040528015611c6b576020820181803683370190505b5090505b841561192a57611c80600183612489565b9150611c8d600a866125cd565b611c989060306123d6565b60f81b818381518110611cad57611cad612536565b60200101906001600160f81b031916908160001a905350611ccf600a86612475565b9450611c6f565b611ce08383611e16565b611ced6000848484611d09565b610a9c5760405162461bcd60e51b81526004016108109061257b565b60006001600160a01b0384163b15611e0b57604051630a85bd0160e11b81526001600160a01b0385169063150b7a0290611d4d9033908990889088906004016125e1565b602060405180830381600087803b158015611d6757600080fd5b505af1925050508015611d97575060408051601f3d908101601f19168201909252611d949181019061261e565b60015b611df1573d808015611dc5576040519150601f19603f3d011682016040523d82523d6000602084013e611dca565b606091505b508051611de95760405162461bcd60e51b81526004016108109061257b565b805181602001fd5b6001600160e01b031916630a85bd0160e11b14905061192a565b506001949350505050565b6001600160a01b038216611e6c5760405162461bcd60e51b815260206004820181905260248201527f4552433732313a206d696e7420746f20746865207a65726f20616464726573736044820152606401610810565b611e77816002541190565b15611ec45760405162461bcd60e51b815260206004820152601c60248201527f4552433732313a20746f6b656e20616c7265616479206d696e746564000000006044820152606401610810565b6002805460018101825560009182527f405787fa12a823e0f2b7631cc41b3ba8828b3321ca811111fa75cd3aa3bb5ace0180546001600160a01b0319166001600160a01b0385169081179091556040518392907fddf252ad1be2c89b69c2b068fc378daa952ba7f163c4a11628f55a4df523b3ef908290a45050565b828054611f4c90612350565b90600052602060002090601f016020900481019282611f6e5760008555611fb4565b82601f10611f8757805160ff1916838001178555611fb4565b82800160010185558215611fb4579182015b82811115611fb4578251825591602001919060010190611f99565b50610e199291505b80821115610e195760008155600101611fbc565b6001600160e01b03198116811461153b57600080fd5b600060208284031215611ff857600080fd5b813561148d81611fd0565b60005b8381101561201e578181015183820152602001612006565b838111156108fb5750506000910152565b60008151808452612047816020860160208601612003565b601f01601f19169290920160200192915050565b60208152600061148d602083018461202f565b6001600160a01b038116811461153b57600080fd5b6000806040838503121561209657600080fd5b8235915060208301356120a88161206e565b809150509250929050565b6000602082840312156120c557600080fd5b5035919050565b600080604083850312156120df57600080fd5b82356120ea8161206e565b946020939093013593505050565b60006020828403121561210a57600080fd5b813561148d8161206e565b60008060006060848603121561212a57600080fd5b83356121358161206e565b925060208401356121458161206e565b929592945050506040919091013590565b634e487b7160e01b600052604160045260246000fd5b600067ffffffffffffffff8084111561218757612187612156565b604051601f8501601f19908116603f011681019082821181831017156121af576121af612156565b816040528093508581528686860111156121c857600080fd5b858560208301376000602087830101525050509392505050565b6000602082840312156121f457600080fd5b813567ffffffffffffffff81111561220b57600080fd5b8201601f8101841361221c57600080fd5b61192a8482356020840161216c565b6020808252825182820181905260009190848201906040850190845b8181101561226357835183529284019291840191600101612247565b50909695505050505050565b6000806040838503121561228257600080fd5b823561228d8161206e565b9150602083013580151581146120a857600080fd5b600080600080608085870312156122b857600080fd5b84356122c38161206e565b935060208501356122d38161206e565b925060408501359150606085013567ffffffffffffffff8111156122f657600080fd5b8501601f8101871361230757600080fd5b6123168782356020840161216c565b91505092959194509250565b6000806040838503121561233557600080fd5b82356123408161206e565b915060208301356120a88161206e565b600181811c9082168061236457607f821691505b6020821081141561238557634e487b7160e01b600052602260045260246000fd5b50919050565b6020808252818101527f4f776e61626c653a2063616c6c6572206973206e6f7420746865206f776e6572604082015260600190565b634e487b7160e01b600052601160045260246000fd5b600082198211156123e9576123e96123c0565b500190565b6020808252601f908201527f4e6577206d696e742065786365656473206d6178696d756d20737570706c7900604082015260600190565b6000600019821415612439576124396123c0565b5060010190565b600081600019048311821515161561245a5761245a6123c0565b500290565b634e487b7160e01b600052601260045260246000fd5b6000826124845761248461245f565b500490565b60008282101561249b5761249b6123c0565b500390565b60208082526031908201527f4552433732313a207472616e736665722063616c6c6572206973206e6f74206f6040820152701ddb995c881b9bdc88185c1c1c9bdd9959607a1b606082015260800190565b60208082526025908201527f455243373231456e756d3a206f776e657220696e646578206f7574206f6620626040820152646f756e647360d81b606082015260800190565b634e487b7160e01b600052603260045260246000fd5b6000835161255e818460208801612003565b835190830190612572818360208801612003565b01949350505050565b60208082526032908201527f4552433732313a207472616e7366657220746f206e6f6e20455243373231526560408201527131b2b4bb32b91034b6b83632b6b2b73a32b960711b606082015260800190565b6000826125dc576125dc61245f565b500690565b6001600160a01b03858116825284166020820152604081018390526080606082018190526000906126149083018461202f565b9695505050505050565b60006020828403121561263057600080fd5b815161148d81611fd056fea264697066735822122006b1efe5b737a586393f2c6f5eea6c836f1a8cc43a97fc9eaa940c209efbce0464736f6c63430008090033",
  "linkReferences": {},
  "deployedLinkReferences": {}
}