{
  "_format": "hh-sol-artifact-1",
  "contractName": "Treasure",
  "sourceName": "contracts/Treasure.sol",
  "abi": [
    {
      "inputs": [
        {
          "components": [
            {
              "internalType": "string[]",
              "name": "title",
              "type": "string[]"
            },
            {
              "internalType": "uint32[]",
              "name": "weight",
              "type": "uint32[]"
            },
            {
              "internalType": "uint8[][]",
              "name": "extra",
              "type": "uint8[][]"
            },
            {
              "internalType": "uint8[][]",
              "name": "material",
              "type": "uint8[][]"
            }
          ],
          "internalType": "struct TreasureMetadata.Item",
          "name": "__head",
          "type": "tuple"
        },
        {
          "components": [
            {
              "internalType": "string[]",
              "name": "title",
              "type": "string[]"
            },
            {
              "internalType": "uint32[]",
              "name": "weight",
              "type": "uint32[]"
            },
            {
              "internalType": "uint8[][]",
              "name": "extra",
              "type": "uint8[][]"
            },
            {
              "internalType": "uint8[][]",
              "name": "material",
              "type": "uint8[][]"
            }
          ],
          "internalType": "struct TreasureMetadata.Item",
          "name": "__torso",
          "type": "tuple"
        },
        {
          "components": [
            {
              "internalType": "string[]",
              "name": "title",
              "type": "string[]"
            },
            {
              "internalType": "uint32[]",
              "name": "weight",
              "type": "uint32[]"
            },
            {
              "internalType": "uint8[][]",
              "name": "extra",
              "type": "uint8[][]"
            },
            {
              "internalType": "uint8[][]",
              "name": "material",
              "type": "uint8[][]"
            }
          ],
          "internalType": "struct TreasureMetadata.Item",
          "name": "__footwear",
          "type": "tuple"
        },
        {
          "components": [
            {
              "internalType": "string[]",
              "name": "title",
              "type": "string[]"
            },
            {
              "internalType": "uint32[]",
              "name": "weight",
              "type": "uint32[]"
            },
            {
              "internalType": "uint8[][]",
              "name": "extra",
              "type": "uint8[][]"
            },
            {
              "internalType": "uint8[][]",
              "name": "material",
              "type": "uint8[][]"
            }
          ],
          "internalType": "struct TreasureMetadata.Item",
          "name": "__bottoms",
          "type": "tuple"
        },
        {
          "components": [
            {
              "internalType": "string[]",
              "name": "title",
              "type": "string[]"
            },
            {
              "internalType": "uint32[]",
              "name": "weight",
              "type": "uint32[]"
            },
            {
              "internalType": "uint8[][]",
              "name": "extra",
              "type": "uint8[][]"
            },
            {
              "internalType": "uint8[][]",
              "name": "material",
              "type": "uint8[][]"
            }
          ],
          "internalType": "struct TreasureMetadata.Item",
          "name": "__weapon",
          "type": "tuple"
        },
        {
          "components": [
            {
              "internalType": "string[]",
              "name": "title",
              "type": "string[]"
            },
            {
              "internalType": "uint32[]",
              "name": "weight",
              "type": "uint32[]"
            },
            {
              "internalType": "uint8[][]",
              "name": "extra",
              "type": "uint8[][]"
            },
            {
              "internalType": "uint8[][]",
              "name": "material",
              "type": "uint8[][]"
            }
          ],
          "internalType": "struct TreasureMetadata.Item",
          "name": "__shield",
          "type": "tuple"
        },
        {
          "components": [
            {
              "internalType": "string[]",
              "name": "title",
              "type": "string[]"
            },
            {
              "internalType": "uint32[]",
              "name": "weight",
              "type": "uint32[]"
            },
            {
              "internalType": "uint8[][]",
              "name": "extra",
              "type": "uint8[][]"
            },
            {
              "internalType": "uint8[][]",
              "name": "material",
              "type": "uint8[][]"
            }
          ],
          "internalType": "struct TreasureMetadata.Item",
          "name": "__amulet",
          "type": "tuple"
        },
        {
          "components": [
            {
              "internalType": "string[]",
              "name": "title",
              "type": "string[]"
            },
            {
              "internalType": "uint32[]",
              "name": "weight",
              "type": "uint32[]"
            },
            {
              "internalType": "uint8[][]",
              "name": "extra",
              "type": "uint8[][]"
            },
            {
              "internalType": "uint8[][]",
              "name": "material",
              "type": "uint8[][]"
            }
          ],
          "internalType": "struct TreasureMetadata.Item",
          "name": "__possessive",
          "type": "tuple"
        },
        {
          "components": [
            {
              "internalType": "string[]",
              "name": "title",
              "type": "string[]"
            },
            {
              "internalType": "uint32[]",
              "name": "weight",
              "type": "uint32[]"
            },
            {
              "internalType": "uint8[][]",
              "name": "extra",
              "type": "uint8[][]"
            },
            {
              "internalType": "uint8[][]",
              "name": "material",
              "type": "uint8[][]"
            }
          ],
          "internalType": "struct TreasureMetadata.Item",
          "name": "__extra",
          "type": "tuple"
        },
        {
          "components": [
            {
              "internalType": "string[]",
              "name": "title",
              "type": "string[]"
            },
            {
              "internalType": "uint32[]",
              "name": "weight",
              "type": "uint32[]"
            },
            {
              "internalType": "uint8[][]",
              "name": "extra",
              "type": "uint8[][]"
            },
            {
              "internalType": "uint8[][]",
              "name": "material",
              "type": "uint8[][]"
            }
          ],
          "internalType": "struct TreasureMetadata.Item",
          "name": "__material",
          "type": "tuple"
        },
        {
          "components": [
            {
              "internalType": "string[]",
              "name": "title",
              "type": "string[]"
            },
            {
              "internalType": "uint32[]",
              "name": "weight",
              "type": "uint32[]"
            },
            {
              "internalType": "uint8[][]",
              "name": "extra",
              "type": "uint8[][]"
            },
            {
              "internalType": "uint8[][]",
              "name": "material",
              "type": "uint8[][]"
            }
          ],
          "internalType": "struct TreasureMetadata.Item",
          "name": "__tail",
          "type": "tuple"
        }
      ],
      "stateMutability": "nonpayable",
      "type": "constructor"
    },
    {
      "anonymous": false,
      "inputs": [
        {
          "indexed": true,
          "internalType": "address",
          "name": "owner",
          "type": "address"
        },
        {
          "indexed": true,
          "internalType": "address",
          "name": "approved",
          "type": "address"
        },
        {
          "indexed": true,
          "internalType": "uint256",
          "name": "tokenId",
          "type": "uint256"
        }
      ],
      "name": "Approval",
      "type": "event"
    },
    {
      "anonymous": false,
      "inputs": [
        {
          "indexed": true,
          "internalType": "address",
          "name": "owner",
          "type": "address"
        },
        {
          "indexed": true,
          "internalType": "address",
          "name": "operator",
          "type": "address"
        },
        {
          "indexed": false,
          "internalType": "bool",
          "name": "approved",
          "type": "bool"
        }
      ],
      "name": "ApprovalForAll",
      "type": "event"
    },
    {
      "anonymous": false,
      "inputs": [
        {
          "indexed": true,
          "internalType": "address",
          "name": "previousOwner",
          "type": "address"
        },
        {
          "indexed": true,
          "internalType": "address",
          "name": "newOwner",
          "type": "address"
        }
      ],
      "name": "OwnershipTransferred",
      "type": "event"
    },
    {
      "anonymous": false,
      "inputs": [
        {
          "indexed": false,
          "internalType": "address",
          "name": "account",
          "type": "address"
        },
        {
          "indexed": false,
          "internalType": "uint256",
          "name": "shares",
          "type": "uint256"
        }
      ],
      "name": "PayeeAdded",
      "type": "event"
    },
    {
      "anonymous": false,
      "inputs": [
        {
          "indexed": false,
          "internalType": "address",
          "name": "from",
          "type": "address"
        },
        {
          "indexed": false,
          "internalType": "uint256",
          "name": "amount",
          "type": "uint256"
        }
      ],
      "name": "PaymentReceived",
      "type": "event"
    },
    {
      "anonymous": false,
      "inputs": [
        {
          "indexed": false,
          "internalType": "address",
          "name": "to",
          "type": "address"
        },
        {
          "indexed": false,
          "internalType": "uint256",
          "name": "amount",
          "type": "uint256"
        }
      ],
      "name": "PaymentReleased",
      "type": "event"
    },
    {
      "anonymous": false,
      "inputs": [
        {
          "indexed": true,
          "internalType": "address",
          "name": "from",
          "type": "address"
        },
        {
          "indexed": true,
          "internalType": "address",
          "name": "to",
          "type": "address"
        },
        {
          "indexed": true,
          "internalType": "uint256",
          "name": "tokenId",
          "type": "uint256"
        }
      ],
      "name": "Transfer",
      "type": "event"
    },
    {
      "inputs": [
        {
          "internalType": "address",
          "name": "to",
          "type": "address"
        },
        {
          "internalType": "uint256",
          "name": "tokenId",
          "type": "uint256"
        }
      ],
      "name": "approve",
      "outputs": [],
      "stateMutability": "nonpayable",
      "type": "function"
    },
    {
      "inputs": [
        {
          "internalType": "address",
          "name": "owner",
          "type": "address"
        }
      ],
      "name": "balanceOf",
      "outputs": [
        {
          "internalType": "uint256",
          "name": "",
          "type": "uint256"
        }
      ],
      "stateMutability": "view",
      "type": "function"
    },
    {
      "inputs": [],
      "name": "contractURI",
      "outputs": [
        {
          "internalType": "string",
          "name": "",
          "type": "string"
        }
      ],
      "stateMutability": "view",
      "type": "function"
    },
    {
      "inputs": [],
      "name": "flipSaleState",
      "outputs": [],
      "stateMutability": "nonpayable",
      "type": "function"
    },
    {
      "inputs": [
        {
          "internalType": "uint256",
          "name": "tokenId",
          "type": "uint256"
        }
      ],
      "name": "genTraits",
      "outputs": [
        {
          "internalType": "string[]",
          "name": "",
          "type": "string[]"
        }
      ],
      "stateMutability": "view",
      "type": "function"
    },
    {
      "inputs": [
        {
          "internalType": "uint256",
          "name": "tokenId",
          "type": "uint256"
        }
      ],
      "name": "getApproved",
      "outputs": [
        {
          "internalType": "address",
          "name": "",
          "type": "address"
        }
      ],
      "stateMutability": "view",
      "type": "function"
    },
    {
      "inputs": [
        {
          "internalType": "address",
          "name": "owner",
          "type": "address"
        },
        {
          "internalType": "address",
          "name": "operator",
          "type": "address"
        }
      ],
      "name": "isApprovedForAll",
      "outputs": [
        {
          "internalType": "bool",
          "name": "",
          "type": "bool"
        }
      ],
      "stateMutability": "view",
      "type": "function"
    },
    {
      "inputs": [],
      "name": "lockCanvasSize",
      "outputs": [],
      "stateMutability": "nonpayable",
      "type": "function"
    },
    {
      "inputs": [],
      "name": "maxSupply",
      "outputs": [
        {
          "internalType": "uint256",
          "name": "",
          "type": "uint256"
        }
      ],
      "stateMutability": "view",
      "type": "function"
    },
    {
      "inputs": [
        {
          "internalType": "uint256",
          "name": "numMints",
          "type": "uint256"
        }
      ],
      "name": "mintReserve",
      "outputs": [],
      "stateMutability": "nonpayable",
      "type": "function"
    },
    {
      "inputs": [
        {
          "internalType": "uint256",
          "name": "numMints",
          "type": "uint256"
        },
        {
          "internalType": "address",
          "name": "recipient",
          "type": "address"
        }
      ],
      "name": "mintReserveToAddress",
      "outputs": [],
      "stateMutability": "nonpayable",
      "type": "function"
    },
    {
      "inputs": [],
      "name": "name",
      "outputs": [
        {
          "internalType": "string",
          "name": "",
          "type": "string"
        }
      ],
      "stateMutability": "view",
      "type": "function"
    },
    {
      "inputs": [],
      "name": "owner",
      "outputs": [
        {
          "internalType": "address",
          "name": "",
          "type": "address"
        }
      ],
      "stateMutability": "view",
      "type": "function"
    },
    {
      "inputs": [
        {
          "internalType": "uint256",
          "name": "tokenId",
          "type": "uint256"
        }
      ],
      "name": "ownerOf",
      "outputs": [
        {
          "internalType": "address",
          "name": "",
          "type": "address"
        }
      ],
      "stateMutability": "view",
      "type": "function"
    },
    {
      "inputs": [
        {
          "internalType": "uint256",
          "name": "index",
          "type": "uint256"
        }
      ],
      "name": "payee",
      "outputs": [
        {
          "internalType": "address",
          "name": "",
          "type": "address"
        }
      ],
      "stateMutability": "view",
      "type": "function"
    },
    {
      "inputs": [
        {
          "internalType": "uint256",
          "name": "numMints",
          "type": "uint256"
        }
      ],
      "name": "plunder",
      "outputs": [],
      "stateMutability": "payable",
      "type": "function"
    },
    {
      "inputs": [],
      "name": "price",
      "outputs": [
        {
          "internalType": "uint256",
          "name": "",
          "type": "uint256"
        }
      ],
      "stateMutability": "pure",
      "type": "function"
    },
    {
      "inputs": [
        {
          "internalType": "address payable",
          "name": "account",
          "type": "address"
        }
      ],
      "name": "release",
      "outputs": [],
      "stateMutability": "nonpayable",
      "type": "function"
    },
    {
      "inputs": [
        {
          "internalType": "address",
          "name": "account",
          "type": "address"
        }
      ],
      "name": "released",
      "outputs": [
        {
          "internalType": "uint256",
          "name": "",
          "type": "uint256"
        }
      ],
      "stateMutability": "view",
      "type": "function"
    },
    {
      "inputs": [],
      "name": "renounceOwnership",
      "outputs": [],
      "stateMutability": "nonpayable",
      "type": "function"
    },
    {
      "inputs": [],
      "name": "reserved",
      "outputs": [
        {
          "internalType": "uint256",
          "name": "",
          "type": "uint256"
        }
      ],
      "stateMutability": "view",
      "type": "function"
    },
    {
      "inputs": [
        {
          "internalType": "address",
          "name": "from",
          "type": "address"
        },
        {
          "internalType": "address",
          "name": "to",
          "type": "address"
        },
        {
          "internalType": "uint256",
          "name": "tokenId",
          "type": "uint256"
        }
      ],
      "name": "safeTransferFrom",
      "outputs": [],
      "stateMutability": "nonpayable",
      "type": "function"
    },
    {
      "inputs": [
        {
          "internalType": "address",
          "name": "from",
          "type": "address"
        },
        {
          "internalType": "address",
          "name": "to",
          "type": "address"
        },
        {
          "internalType": "uint256",
          "name": "tokenId",
          "type": "uint256"
        },
        {
          "internalType": "bytes",
          "name": "_data",
          "type": "bytes"
        }
      ],
      "name": "safeTransferFrom",
      "outputs": [],
      "stateMutability": "nonpayable",
      "type": "function"
    },
    {
      "inputs": [
        {
          "internalType": "address",
          "name": "operator",
          "type": "address"
        },
        {
          "internalType": "bool",
          "name": "approved",
          "type": "bool"
        }
      ],
      "name": "setApprovalForAll",
      "outputs": [],
      "stateMutability": "nonpayable",
      "type": "function"
    },
    {
      "inputs": [
        {
          "internalType": "uint256",
          "name": "newSize",
          "type": "uint256"
        }
      ],
      "name": "setCanvasSize",
      "outputs": [],
      "stateMutability": "nonpayable",
      "type": "function"
    },
    {
      "inputs": [
        {
          "internalType": "string",
          "name": "__contractURI",
          "type": "string"
        }
      ],
      "name": "setContractURI",
      "outputs": [],
      "stateMutability": "nonpayable",
      "type": "function"
    },
    {
      "inputs": [
        {
          "internalType": "address",
          "name": "account",
          "type": "address"
        }
      ],
      "name": "shares",
      "outputs": [
        {
          "internalType": "uint256",
          "name": "",
          "type": "uint256"
        }
      ],
      "stateMutability": "view",
      "type": "function"
    },
    {
      "inputs": [],
      "name": "status",
      "outputs": [
        {
          "internalType": "bool",
          "name": "",
          "type": "bool"
        }
      ],
      "stateMutability": "view",
      "type": "function"
    },
    {
      "inputs": [
        {
          "internalType": "bytes4",
          "name": "interfaceId",
          "type": "bytes4"
        }
      ],
      "name": "supportsInterface",
      "outputs": [
        {
          "internalType": "bool",
          "name": "",
          "type": "bool"
        }
      ],
      "stateMutability": "view",
      "type": "function"
    },
    {
      "inputs": [],
      "name": "symbol",
      "outputs": [
        {
          "internalType": "string",
          "name": "",
          "type": "string"
        }
      ],
      "stateMutability": "view",
      "type": "function"
    },
    {
      "inputs": [
        {
          "internalType": "uint256",
          "name": "tokenId",
          "type": "uint256"
        }
      ],
      "name": "tokenURI",
      "outputs": [
        {
          "internalType": "string",
          "name": "",
          "type": "string"
        }
      ],
      "stateMutability": "view",
      "type": "function"
    },
    {
      "inputs": [],
      "name": "totalReleased",
      "outputs": [
        {
          "internalType": "uint256",
          "name": "",
          "type": "uint256"
        }
      ],
      "stateMutability": "view",
      "type": "function"
    },
    {
      "inputs": [],
      "name": "totalShares",
      "outputs": [
        {
          "internalType": "uint256",
          "name": "",
          "type": "uint256"
        }
      ],
      "stateMutability": "view",
      "type": "function"
    },
    {
      "inputs": [],
      "name": "totalSupply",
      "outputs": [
        {
          "internalType": "uint256",
          "name": "",
          "type": "uint256"
        }
      ],
      "stateMutability": "view",
      "type": "function"
    },
    {
      "inputs": [
        {
          "internalType": "address",
          "name": "from",
          "type": "address"
        },
        {
          "internalType": "address",
          "name": "to",
          "type": "address"
        },
        {
          "internalType": "uint256",
          "name": "tokenId",
          "type": "uint256"
        }
      ],
      "name": "transferFrom",
      "outputs": [],
      "stateMutability": "nonpayable",
      "type": "function"
    },
    {
      "inputs": [
        {
          "internalType": "address",
          "name": "newOwner",
          "type": "address"
        }
      ],
      "name": "transferOwnership",
      "outputs": [],
      "stateMutability": "nonpayable",
      "type": "function"
    },
    {
      "stateMutability": "payable",
      "type": "receive"
    }
  ],
  "bytecode": "0x6010805462ffffff19166102bc179055610200604052630306592360a0908152630ae7953c60c052631c260e3d60e052633b1e04ac610100526366333f066101205263973d64d06101405263c2529f2a6101605263e14a95996101805263f2890e9a6101a05263fa6a4ab36101c05263fd70a3d66101e0526200008790601190600b62000e76565b506040805160a0810182526227ed32815263067df14b60208201526332d80df79181019190915263be147ae1606082015263fd70a3d66080820152620000d290601290600562000e76565b506040805160e0810182526311006df3815263268a9159602082015263620817b091810191909152638a70132a606082015263e98c37c8608082015263f97627d260a082015263fd70a3d560c08201526200013290601390600762000e76565b5060408051608081018252734f65cdffe6c48ad287f005ad14e78ff6433c8d6781527349b621d1cc662ce293779ec775573d0568a0c7136020820152737db44f46ee7385ad0fd23bd6323f8bd80cf7fe9291810191909152733b20f287b08f39c21d695500e08268c87ecaeb376060820152620001b490601490600462000f2c565b506040805160808101825260148152600e602082015260219181018290526060810191909152620001ea90601590600462000f84565b506017805460ff1916905560006018553480156200020757600080fd5b50604051620067e4380380620067e48339810160408190526200022a916200165e565b8a8a8a8a8a8a8a8a8a8a8a60148054806020026020016040519081016040528092919081815260200182805480156200028d57602002820191906000526020600020905b81546001600160a01b031681526001909101906020018083116200026e575b50505050506015805480602002602001604051908101604052809291908181526020018280548015620002e057602002820191906000526020600020905b815481526020019060010190808311620002cb575b5050604080518082018252601781527f54726561737572652028666f722057617272696f72732900000000000000000060208083019182528351808501909452600384526254345760e81b90840152815191955091935061271092506200034a9160009162000fc7565b5081516200036090600190602085019062000fc7565b506080819052600355506200037790503362000bce565b60016009558051825114620003ee5760405162461bcd60e51b815260206004820152603260248201527f5061796d656e7453706c69747465723a2070617965657320616e6420736861726044820152710cae640d8cadccee8d040dad2e6dac2e8c6d60731b60648201526084015b60405180910390fd5b6000825111620004415760405162461bcd60e51b815260206004820152601a60248201527f5061796d656e7453706c69747465723a206e6f207061796565730000000000006044820152606401620003e5565b60005b8251811015620004ad57620004988382815181106200046757620004676200187e565b60200260200101518383815181106200048457620004846200187e565b602002602001015162000c2060201b60201c565b80620004a481620018aa565b91505062000444565b505050620004c18b62000e0e60201b60201c565b620004cc8a62000e0e565b620004d78962000e0e565b620004e28862000e0e565b620004ed8762000e0e565b620004f88662000e0e565b620005038562000e0e565b6200050e8462000e0e565b620005198362000e0e565b620005248262000e0e565b6200052f8162000e0e565b8a600f6040516200054a90631211505160e21b815260040190565b908152602001604051809103902060008201518160000190805190602001906200057692919062001044565b50602082810151805162000591926001850192019062000e76565b5060408201518051620005af916002840191602090910190620010a4565b5060608201518051620005cd916003840191602090910190620010a4565b50506040805164544f52534f60d81b8152600f600582015290519081900360250190208b5180518d93506200060b9183916020919091019062001044565b50602082810151805162000626926001850192019062000e76565b506040820151805162000644916002840191602090910190620010a4565b506060820151805162000662916003840191602090910190620010a4565b505060408051672327a7aa2ba2a0a960c11b8152600f600882015290519081900360280190208a5180518c9350620006a39183916020919091019062001044565b506020828101518051620006be926001850192019062000e76565b5060408201518051620006dc916002840191602090910190620010a4565b5060608201518051620006fa916003840191602090910190620010a4565b50506040805166424f54544f4d5360c81b8152600f60078201529051908190036027019020895180518b93506200073a9183916020919091019062001044565b50602082810151805162000755926001850192019062000e76565b506040820151805162000773916002840191602090910190620010a4565b506060820151805162000791916003840191602090910190620010a4565b505060408051652ba2a0a827a760d11b8152600f60068201529051908190036026019020885180518a9350620007d09183916020919091019062001044565b506020828101518051620007eb926001850192019062000e76565b506040820151805162000809916002840191602090910190620010a4565b506060820151805162000827916003840191602090910190620010a4565b5050604080516514d21251531160d21b8152600f6006820152905190819003602601902087518051899350620008669183916020919091019062001044565b50602082810151805162000881926001850192019062000e76565b50604082015180516200089f916002840191602090910190620010a4565b5060608201518051620008bd916003840191602090910190620010a4565b5050604080516510535553115560d21b8152600f6006820152905190819003602601902086518051889350620008fc9183916020919091019062001044565b50602082810151805162000917926001850192019062000e76565b506040820151805162000935916002840191602090910190620010a4565b506060820151805162000953916003840191602090910190620010a4565b50506040805169504f535345535349564560b01b8152600f600a820152905190819003602a01902085518051879350620009969183916020919091019062001044565b506020828101518051620009b1926001850192019062000e76565b5060408201518051620009cf916002840191602090910190620010a4565b5060608201518051620009ed916003840191602090910190620010a4565b50506040805164455854524160d81b8152600f600582015290519081900360250190208451805186935062000a2b9183916020919091019062001044565b50602082810151805162000a46926001850192019062000e76565b506040820151805162000a64916002840191602090910190620010a4565b506060820151805162000a82916003840191602090910190620010a4565b50506040805167135055115492505360c21b8152600f600882015290519081900360280190208351805185935062000ac39183916020919091019062001044565b50602082810151805162000ade926001850192019062000e76565b506040820151805162000afc916002840191602090910190620010a4565b506060820151805162000b1a916003840191602090910190620010a4565b505060408051631510525360e21b8152600f600482015290519081900360240190208251805184935062000b579183916020919091019062001044565b50602082810151805162000b72926001850192019062000e76565b506040820151805162000b90916002840191602090910190620010a4565b506060820151805162000bae916003840191602090910190620010a4565b50905050505050505050505050505050505050505050505050506200191d565b600880546001600160a01b038381166001600160a01b0319831681179093556040519116919082907f8be0079c531659141344cd1fd0a4f28419497f9722a3daafe3b4186f6b6457e090600090a35050565b6001600160a01b03821662000c8d5760405162461bcd60e51b815260206004820152602c60248201527f5061796d656e7453706c69747465723a206163636f756e74206973207468652060448201526b7a65726f206164647265737360a01b6064820152608401620003e5565b6000811162000cdf5760405162461bcd60e51b815260206004820152601d60248201527f5061796d656e7453706c69747465723a207368617265732061726520300000006044820152606401620003e5565b6001600160a01b0382166000908152600c60205260409020541562000d5b5760405162461bcd60e51b815260206004820152602b60248201527f5061796d656e7453706c69747465723a206163636f756e7420616c726561647960448201526a206861732073686172657360a81b6064820152608401620003e5565b600e8054600181019091557fbb7b4a454dc3493923482f07822329ed19e8244eff582cc204f8554c3620c3fd0180546001600160a01b0319166001600160a01b0384169081179091556000908152600c60205260409020819055600a5462000dc5908290620018c6565b600a55604080516001600160a01b0384168152602081018390527f40c340f65e17194d14ddddb073d3c9f888e3cb52b5aae0c6c7706b4fbc905fac910160405180910390a15050565b8051511580159062000e265750602081015151815151145b801562000e69575080515160408201515114801562000e4b5750805151606082015151145b8062000e69575060408101515115801562000e695750606081015151155b62000e7357600080fd5b50565b8280548282559060005260206000209060070160089004810192821562000f1a5791602002820160005b8382111562000ee657835183826101000a81548163ffffffff021916908363ffffffff160217905550926020019260040160208160030104928301926001030262000ea0565b801562000f185782816101000a81549063ffffffff021916905560040160208160030104928301926001030262000ee6565b505b5062000f2892915062001104565b5090565b82805482825590600052602060002090810192821562000f1a579160200282015b8281111562000f1a57825182546001600160a01b0319166001600160a01b0390911617825560209092019160019091019062000f4d565b82805482825590600052602060002090810192821562000f1a579160200282015b8281111562000f1a578251829060ff1690559160200191906001019062000fa5565b82805462000fd590620018e1565b90600052602060002090601f01602090048101928262000ff9576000855562000f1a565b82601f106200101457805160ff191683800117855562000f1a565b8280016001018555821562000f1a579182015b8281111562000f1a57825182559160200191906001019062001027565b82805482825590600052602060002090810192821562001096579160200282015b828111156200109657825180516200108591849160209091019062000fc7565b509160200191906001019062001065565b5062000f289291506200111b565b828054828255906000526020600020908101928215620010f6579160200282015b82811115620010f65782518051620010e59184916020909101906200113c565b5091602001919060010190620010c5565b5062000f28929150620011d5565b5b8082111562000f28576000815560010162001105565b8082111562000f28576000620011328282620011f6565b506001016200111b565b82805482825590600052602060002090601f0160209004810192821562000f1a5791602002820160005b83821115620011a657835183826101000a81548160ff021916908360ff160217905550926020019260010160208160000104928301926001030262001166565b801562000f185782816101000a81549060ff0219169055600101602081600001049283019260010302620011a6565b8082111562000f28576000620011ec828262001235565b50600101620011d5565b5080546200120490620018e1565b6000825580601f1062001215575050565b601f01602090049060005260206000209081019062000e73919062001104565b50805460008255601f01602090049060005260206000209081019062000e73919062001104565b634e487b7160e01b600052604160045260246000fd5b604051608081016001600160401b03811182821017156200129757620012976200125c565b60405290565b604051601f8201601f191681016001600160401b0381118282101715620012c857620012c86200125c565b604052919050565b60006001600160401b03821115620012ec57620012ec6200125c565b5060051b60200190565b6000601f83818401126200130957600080fd5b82516020620013226200131c83620012d0565b6200129d565b82815260059290921b850181019181810190878411156200134257600080fd5b8287015b84811015620014065780516001600160401b0380821115620013685760008081fd5b818a0191508a603f8301126200137e5760008081fd5b85820151818111156200139557620013956200125c565b620013a8818a01601f191688016200129d565b915080825260408c81838601011115620013c25760008081fd5b60005b82811015620013e2578481018201518482018a01528801620013c5565b82811115620013f45760008984860101525b50505084525091830191830162001346565b50979650505050505050565b600082601f8301126200142457600080fd5b81516020620014376200131c83620012d0565b82815260059290921b840181019181810190868411156200145757600080fd5b8286015b848110156200148857805163ffffffff811681146200147a5760008081fd5b83529183019183016200145b565b509695505050505050565b600082601f830112620014a557600080fd5b81516020620014b86200131c83620012d0565b828152600592831b8501820192828201919087851115620014d857600080fd5b8387015b85811015620015895780516001600160401b03811115620014fd5760008081fd5b8801603f81018a13620015105760008081fd5b858101516040620015256200131c83620012d0565b82815291851b8301810191888101908d841115620015435760008081fd5b938201935b8385101562001577578451925060ff83168314620015665760008081fd5b828252938901939089019062001548565b885250505093850193508401620014dc565b5090979650505050505050565b600060808284031215620015a957600080fd5b620015b362001272565b82519091506001600160401b0380821115620015ce57600080fd5b620015dc85838601620012f6565b83526020840151915080821115620015f357600080fd5b620016018583860162001412565b602084015260408401519150808211156200161b57600080fd5b620016298583860162001493565b604084015260608401519150808211156200164357600080fd5b50620016528482850162001493565b60608301525092915050565b60008060008060008060008060008060006101608c8e0312156200168157600080fd5b8b516001600160401b038111156200169857600080fd5b620016a68e828f0162001596565b60208e0151909c5090506001600160401b03811115620016c557600080fd5b620016d38e828f0162001596565b60408e0151909b5090506001600160401b03811115620016f257600080fd5b620017008e828f0162001596565b60608e0151909a5090506001600160401b038111156200171f57600080fd5b6200172d8e828f0162001596565b60808e015190995090506001600160401b038111156200174c57600080fd5b6200175a8e828f0162001596565b60a08e015190985090506001600160401b038111156200177957600080fd5b620017878e828f0162001596565b60c08e015190975090506001600160401b03811115620017a657600080fd5b620017b48e828f0162001596565b60e08e015190965090506001600160401b03811115620017d357600080fd5b620017e18e828f0162001596565b6101008e015190955090506001600160401b038111156200180157600080fd5b6200180f8e828f0162001596565b6101208e015190945090506001600160401b038111156200182f57600080fd5b6200183d8e828f0162001596565b6101408e015190935090506001600160401b038111156200185d57600080fd5b6200186b8e828f0162001596565b9150509295989b509295989b9093969950565b634e487b7160e01b600052603260045260246000fd5b634e487b7160e01b600052601160045260246000fd5b600060018201620018bf57620018bf62001894565b5060010190565b60008219821115620018dc57620018dc62001894565b500190565b600181811c90821680620018f657607f821691505b6020821081036200191757634e487b7160e01b600052602260045260246000fd5b50919050565b608051614ea462001940600039600081816106290152610a6c0152614ea46000f3fe6080604052600436106102135760003560e01c80638da5cb5b11610118578063c87b56dd116100a0578063e8a3d4851161006f578063e8a3d48514610662578063e985e9c514610677578063f2fde38b14610697578063f906751b146106b7578063fe60d12c146106d757600080fd5b8063c87b56dd146105c4578063ce7c2ac2146105e4578063d5abeb011461061a578063e33b7de31461064d57600080fd5b80639852595c116100e75780639852595c14610507578063a035b1fe1461053d578063a22cb46514610557578063b88d4fde14610577578063c05702cb1461059757600080fd5b80638da5cb5b146104a1578063910fc67d146104bf578063938e3d7b146104d257806395d89b41146104f257600080fd5b806323b872dd1161019b5780634e8c5e261161016a5780634e8c5e261461040c5780636352211e1461042c57806370a082311461044c578063715018a61461046c5780638b83209b1461048157600080fd5b806323b872dd146103a257806334918dfd146103c25780633a98ef39146103d757806342842e0e146103ec57600080fd5b8063095ea7b3116101e2578063095ea7b31461031257806318160ddd14610332578063191655871461035557806319dc2c9014610375578063200d2ed21461038a57600080fd5b806301ffc9a71461026157806306fdde031461029657806307e3aa71146102b8578063081812fc146102da57600080fd5b3661025c577f6ef95f06320e7a25a04a175ca677b7052bdd97131872c2192525a629f51be77033604080516001600160a01b0390921682523460208301520160405180910390a1005b600080fd5b34801561026d57600080fd5b5061028161027c366004613f79565b6106ec565b60405190151581526020015b60405180910390f35b3480156102a257600080fd5b506102ab61073e565b60405161028d9190613fee565b3480156102c457600080fd5b506102d86102d3366004614016565b6107d0565b005b3480156102e657600080fd5b506102fa6102f5366004614046565b6108bb565b6040516001600160a01b03909116815260200161028d565b34801561031e57600080fd5b506102d861032d36600461405f565b610950565b34801561033e57600080fd5b50610347610a65565b60405190815260200161028d565b34801561036157600080fd5b506102d861037036600461408b565b610a9a565b34801561038157600080fd5b506102d8610c6e565b34801561039657600080fd5b5060175460ff16610281565b3480156103ae57600080fd5b506102d86103bd3660046140a8565b610cab565b3480156103ce57600080fd5b506102d8610cdc565b3480156103e357600080fd5b50600a54610347565b3480156103f857600080fd5b506102d86104073660046140a8565b610d1a565b34801561041857600080fd5b506102d8610427366004614046565b610d35565b34801561043857600080fd5b506102fa610447366004614046565b610e08565b34801561045857600080fd5b5061034761046736600461408b565b610e7f565b34801561047857600080fd5b506102d8610f06565b34801561048d57600080fd5b506102fa61049c366004614046565b610f3c565b3480156104ad57600080fd5b506008546001600160a01b03166102fa565b6102d86104cd366004614046565b610f6c565b3480156104de57600080fd5b506102d86104ed366004614174565b61118c565b3480156104fe57600080fd5b506102ab6111c9565b34801561051357600080fd5b5061034761052236600461408b565b6001600160a01b03166000908152600d602052604090205490565b34801561054957600080fd5b50669536c708910000610347565b34801561056357600080fd5b506102d86105723660046141bc565b6111d8565b34801561058357600080fd5b506102d86105923660046141ef565b6111e3565b3480156105a357600080fd5b506105b76105b2366004614046565b61121b565b60405161028d919061426e565b3480156105d057600080fd5b506102ab6105df366004614046565b6112dd565b3480156105f057600080fd5b506103476105ff36600461408b565b6001600160a01b03166000908152600c602052604090205490565b34801561062657600080fd5b507f0000000000000000000000000000000000000000000000000000000000000000610347565b34801561065957600080fd5b50600b54610347565b34801561066e57600080fd5b506102ab61134d565b34801561068357600080fd5b506102816106923660046142d0565b61135c565b3480156106a357600080fd5b506102d86106b236600461408b565b61138a565b3480156106c357600080fd5b506102d86106d2366004614046565b611425565b3480156106e357600080fd5b50601854610347565b60006001600160e01b031982166380ac58cd60e01b148061071d57506001600160e01b03198216635b5e139f60e01b145b8061073857506301ffc9a760e01b6001600160e01b03198316145b92915050565b60606000805461074d906142fe565b80601f0160208091040260200160405190810160405280929190818152602001828054610779906142fe565b80156107c65780601f1061079b576101008083540402835291602001916107c6565b820191906000526020600020905b8154815290600101906020018083116107a957829003601f168201915b5050505050905090565b6008546001600160a01b031633146108035760405162461bcd60e51b81526004016107fa90614338565b60405180910390fd5b6127108261080f610a65565b6108199190614383565b11156108375760405162461bcd60e51b81526004016107fa9061439b565b60fa826018546108479190614383565b11156108955760405162461bcd60e51b815260206004820152601f60248201527f4e6577206d696e742065786365656473207265736572766520737570706c790060448201526064016107fa565b81601860008282546108a79190614383565b909155506108b7905081836114ff565b5050565b6000818152600460205260408120546001600160a01b03166109345760405162461bcd60e51b815260206004820152602c60248201527f4552433732313a20617070726f76656420717565727920666f72206e6f6e657860448201526b34b9ba32b73a103a37b5b2b760a11b60648201526084016107fa565b506000908152600660205260409020546001600160a01b031690565b600061095b82610e08565b9050806001600160a01b0316836001600160a01b0316036109c85760405162461bcd60e51b815260206004820152602160248201527f4552433732313a20617070726f76616c20746f2063757272656e74206f776e656044820152603960f91b60648201526084016107fa565b336001600160a01b03821614806109e457506109e4813361135c565b610a565760405162461bcd60e51b815260206004820152603860248201527f4552433732313a20617070726f76652063616c6c6572206973206e6f74206f7760448201527f6e6572206e6f7220617070726f76656420666f7220616c6c000000000000000060648201526084016107fa565b610a6083836116de565b505050565b60006003547f0000000000000000000000000000000000000000000000000000000000000000610a9591906143d2565b905090565b6001600160a01b0381166000908152600c6020526040902054610b0e5760405162461bcd60e51b815260206004820152602660248201527f5061796d656e7453706c69747465723a206163636f756e7420686173206e6f2060448201526573686172657360d01b60648201526084016107fa565b6000600b5447610b1e9190614383565b6001600160a01b0383166000908152600d6020908152604080832054600a54600c909352908320549394509192610b5590856143e9565b610b5f919061441e565b610b6991906143d2565b905080600003610bcf5760405162461bcd60e51b815260206004820152602b60248201527f5061796d656e7453706c69747465723a206163636f756e74206973206e6f742060448201526a191d59481c185e5b595b9d60aa1b60648201526084016107fa565b6001600160a01b0383166000908152600d6020526040902054610bf3908290614383565b6001600160a01b0384166000908152600d6020526040902055600b54610c1a908290614383565b600b55610c27838261174c565b604080516001600160a01b0385168152602081018390527fdf20fd1e76bc69d672e4814fafb2c449bba3a5369d8359adf9e05e6fde87b056910160405180910390a1505050565b6008546001600160a01b03163314610c985760405162461bcd60e51b81526004016107fa90614338565b6010805462ff0000191662010000179055565b610cb53382611865565b610cd15760405162461bcd60e51b81526004016107fa90614432565b610a6083838361193c565b6008546001600160a01b03163314610d065760405162461bcd60e51b81526004016107fa90614338565b6017805460ff19811660ff90911615179055565b610a60838383604051806020016040528060008152506111e3565b6008546001600160a01b03163314610d5f5760405162461bcd60e51b81526004016107fa90614338565b60105462010000900460ff1615610dad5760405162461bcd60e51b815260206004820152601260248201527110d85b9d985cc81cda5e99481b1bd8dad95960721b60448201526064016107fa565b61ffff8110610df05760405162461bcd60e51b815260206004820152600f60248201526e56616c756520746f6f206c6172676560881b60448201526064016107fa565b6010805461ffff191661ffff92909216919091179055565b6000818152600460205260408120546001600160a01b0316806107385760405162461bcd60e51b815260206004820152602960248201527f4552433732313a206f776e657220717565727920666f72206e6f6e657869737460448201526832b73a103a37b5b2b760b91b60648201526084016107fa565b60006001600160a01b038216610eea5760405162461bcd60e51b815260206004820152602a60248201527f4552433732313a2062616c616e636520717565727920666f7220746865207a65604482015269726f206164647265737360b01b60648201526084016107fa565b506001600160a01b031660009081526005602052604090205490565b6008546001600160a01b03163314610f305760405162461bcd60e51b81526004016107fa90614338565b610f3a6000611ad8565b565b6000600e8281548110610f5157610f51614483565b6000918252602090912001546001600160a01b031692915050565b600260095403610fbe5760405162461bcd60e51b815260206004820152601f60248201527f5265656e7472616e637947756172643a207265656e7472616e742063616c6c0060448201526064016107fa565b600260095560175460ff166110065760405162461bcd60e51b815260206004820152600e60248201526d14d85b19481a5cc81c185d5cd95960921b60448201526064016107fa565b61101781669536c7089100006143e9565b34101561105e5760405162461bcd60e51b8152602060048201526015602482015274139bdd08195b9bdd59da08195d1a195c881cd95b9d605a1b60448201526064016107fa565b6127108161106a610a65565b6110749190614383565b11156110925760405162461bcd60e51b81526004016107fa9061439b565b6018546110a260fa6127106143d2565b6110ac9190614383565b816110b5610a65565b6110bf9190614383565b111561111f5760405162461bcd60e51b815260206004820152602960248201527f4e6577206d696e742065786365656473206d6178696d756d20617661696c61626044820152686c6520737570706c7960b81b60648201526084016107fa565b601981111561117a5760405162461bcd60e51b815260206004820152602160248201527f45786365656473206d6178206d696e747320706572207472616e73616374696f6044820152603760f91b60648201526084016107fa565b61118433826114ff565b506001600955565b6008546001600160a01b031633146111b65760405162461bcd60e51b81526004016107fa90614338565b80516108b7906016906020840190613eca565b60606001805461074d906142fe565b6108b7338383611b2a565b6111ed3383611865565b6112095760405162461bcd60e51b81526004016107fa90614432565b61121584848484611bf8565b50505050565b6060600061122883611c2b565b9050600081516001600160401b03811115611245576112456140e9565b60405190808252806020026020018201604052801561127857816020015b60608152602001906001900390816112635790505b50905060005b82518110156112d55782818151811061129957611299614483565b6020026020010151600001518282815181106112b7576112b7614483565b602002602001018190525080806112cd90614499565b91505061127e565b509392505050565b6000818152600460205260409020546060906001600160a01b03166113445760405162461bcd60e51b815260206004820152601b60248201527f517565727920666f72206e6f6e6578697374616e7420746f6b656e000000000060448201526064016107fa565b61073882612025565b60606016805461074d906142fe565b6001600160a01b03918216600090815260076020908152604080832093909416825291909152205460ff1690565b6008546001600160a01b031633146113b45760405162461bcd60e51b81526004016107fa90614338565b6001600160a01b0381166114195760405162461bcd60e51b815260206004820152602660248201527f4f776e61626c653a206e6577206f776e657220697320746865207a65726f206160448201526564647265737360d01b60648201526084016107fa565b61142281611ad8565b50565b6008546001600160a01b0316331461144f5760405162461bcd60e51b81526004016107fa90614338565b6127108161145b610a65565b6114659190614383565b11156114835760405162461bcd60e51b81526004016107fa9061439b565b60fa816018546114939190614383565b11156114e15760405162461bcd60e51b815260206004820152601f60248201527f4e6577206d696e742065786365656473207265736572766520737570706c790060448201526064016107fa565b80601860008282546114f39190614383565b90915550611422905033825b3332146115465760405162461bcd60e51b815260206004820152601560248201527410dbdb9d1c9858dd1cc818d85b9b9bdd081b5a5b9d605a1b60448201526064016107fa565b6001600160a01b03821661159c5760405162461bcd60e51b815260206004820181905260248201527f4552433732313a206d696e7420746f20746865207a65726f206164647265737360448201526064016107fa565b600081116115fd5760405162461bcd60e51b815260206004820152602860248201527f455243373231723a206e65656420746f206d696e74206174206c65617374206f6044820152673732903a37b5b2b760c11b60648201526084016107fa565b8060035410156116635760405162461bcd60e51b815260206004820152602b60248201527f455243373231723a206d696e74696e67206d6f726520746f6b656e732074686160448201526a6e20617661696c61626c6560a81b60648201526084016107fa565b60035460005b828110156116a657600061167d8584612464565b905061168985826124f6565b611692836144b2565b9250508061169f90614499565b9050611669565b5060038190556001600160a01b038316600090815260056020526040812080548492906116d4908490614383565b9091555050505050565b600081815260066020526040902080546001600160a01b0319166001600160a01b038416908117909155819061171382610e08565b6001600160a01b03167f8c5be1e5ebec7d5bd14f71427d1e84f3dd0314c0f7b2291e5b200ac8c7c3b92560405160405180910390a45050565b8047101561179c5760405162461bcd60e51b815260206004820152601d60248201527f416464726573733a20696e73756666696369656e742062616c616e636500000060448201526064016107fa565b6000826001600160a01b03168260405160006040518083038185875af1925050503d80600081146117e9576040519150601f19603f3d011682016040523d82523d6000602084013e6117ee565b606091505b5050905080610a605760405162461bcd60e51b815260206004820152603a60248201527f416464726573733a20756e61626c6520746f2073656e642076616c75652c207260448201527f6563697069656e74206d6179206861766520726576657274656400000000000060648201526084016107fa565b6000818152600460205260408120546001600160a01b03166118de5760405162461bcd60e51b815260206004820152602c60248201527f4552433732313a206f70657261746f7220717565727920666f72206e6f6e657860448201526b34b9ba32b73a103a37b5b2b760a11b60648201526084016107fa565b60006118e983610e08565b9050806001600160a01b0316846001600160a01b031614806119245750836001600160a01b0316611919846108bb565b6001600160a01b0316145b806119345750611934818561135c565b949350505050565b826001600160a01b031661194f82610e08565b6001600160a01b0316146119b35760405162461bcd60e51b815260206004820152602560248201527f4552433732313a207472616e736665722066726f6d20696e636f72726563742060448201526437bbb732b960d91b60648201526084016107fa565b6001600160a01b038216611a155760405162461bcd60e51b8152602060048201526024808201527f4552433732313a207472616e7366657220746f20746865207a65726f206164646044820152637265737360e01b60648201526084016107fa565b611a206000826116de565b6001600160a01b0383166000908152600560205260408120805460019290611a499084906143d2565b90915550506001600160a01b0382166000908152600560205260408120805460019290611a77908490614383565b909155505060008181526004602052604080822080546001600160a01b0319166001600160a01b0386811691821790925591518493918716917fddf252ad1be2c89b69c2b068fc378daa952ba7f163c4a11628f55a4df523b3ef91a4505050565b600880546001600160a01b038381166001600160a01b0319831681179093556040519116919082907f8be0079c531659141344cd1fd0a4f28419497f9722a3daafe3b4186f6b6457e090600090a35050565b816001600160a01b0316836001600160a01b031603611b8b5760405162461bcd60e51b815260206004820152601960248201527f4552433732313a20617070726f766520746f2063616c6c65720000000000000060448201526064016107fa565b6001600160a01b03838116600081815260076020908152604080832094871680845294825291829020805460ff191686151590811790915591519182527f17307eab39ab6107e8899845ad3d59bd9653f200f220920489ca2b5937696c31910160405180910390a3505050565b611c0384848461193c565b611c0f8484848461254f565b6112155760405162461bcd60e51b81526004016107fa906144c9565b60606000611cdf6011805480602002602001604051908101604052809291908181526020018280548015611caa57602002820191906000526020600020906000905b82829054906101000a900463ffffffff1663ffffffff1681526020019060040190602082600301049283019260010382029150808411611c6d5790505b5050505050611cd86000604051806040016040528060058152602001644954454d5360d81b81525087612650565b60006126b7565b611cea906008614383565b90506000611cf88483612822565b905081815114611d405760405162461bcd60e51b815260206004820152601360248201527209ac2d2dc40d2e8cadae640dad2e6dac2e8c6d606b1b60448201526064016107fa565b6000826001600160401b03811115611d5a57611d5a6140e9565b604051908082528060200260200182016040528015611d9f57816020015b6040805180820190915260608082526020820152815260200190600190039081611d785790505b50905060005b8381101561201c57828181518110611dbf57611dbf614483565b6020026020010151600003611e1f57611dfd611ddb878361295e565b604051806040016040528060048152602001631219585960e21b815250612987565b828281518110611e0f57611e0f614483565b602002602001018190525061200a565b828181518110611e3157611e31614483565b6020026020010151600103611e7057611dfd611e4d87836129d4565b60405180604001604052806005815260200164546f72736f60d81b815250612987565b828181518110611e8257611e82614483565b6020026020010151600203611ec457611dfd611e9e87836129fe565b604051806040016040528060088152602001672337b7ba3bb2b0b960c11b815250612987565b828181518110611ed657611ed6614483565b6020026020010151600303611f1757611dfd611ef28783612a2b565b60405180604001604052806007815260200166426f74746f6d7360c81b815250612987565b828181518110611f2957611f29614483565b6020026020010151600403611f6957611dfd611f458783612a57565b604051806040016040528060068152602001652bb2b0b837b760d11b815250612987565b828181518110611f7b57611f7b614483565b6020026020010151600503611fbb57611dfd611f978783612a82565b6040518060400160405280600681526020016514da1a595b1960d21b815250612987565b611fec611fc88783612aad565b60405180604001604052806006815260200165105b5d5b195d60d21b815250612987565b828281518110611ffe57611ffe614483565b60200260200101819052505b8061201481614499565b915050611da5565b50949350505050565b6060600061203283611c2b565b905060008151600261204491906143e9565b61204f906001614383565b6001600160401b03811115612066576120666140e9565b60405190808252806020026020018201604052801561209957816020015b60608152602001906001900390816120845790505b506010549091506120ad9061ffff16612ad8565b6010546120bd9061ffff16612ad8565b6040516020016120ce929190614537565b604051602081830303815290604052816000815181106120f0576120f0614483565b602090810291909101015260015b82518110156121dc57826121136001836143d2565b8151811061212357612123614483565b60200260200101516000015182600183600261213f91906143e9565b61214991906143d2565b8151811061215957612159614483565b60209081029190910101526121826121728260226143e9565b61217d906022614383565b612ad8565b604051602001612192919061471f565b60408051601f19818403018152919052826121ae8360026143e9565b815181106121be576121be614483565b602002602001018190525080806121d490614499565b9150506120fe565b5081600183516121ec91906143d2565b815181106121fc576121fc614483565b602002602001015160000151816002835161221791906143d2565b8151811061222757612227614483565b60209081029190910101526010546122539061224a9061014a9061ffff1661477d565b61ffff16612ad8565b60105461226a9061224a90601e9061ffff1661477d565b60405160200161227b9291906147a0565b604051602081830303815290604052816001835161229991906143d2565b815181106122a9576122a9614483565b6020026020010181905250600060405180602001604052806000815250905060005b825181101561232457818382815181106122e7576122e7614483565b6020026020010151604051602001612300929190614845565b6040516020818303038152906040529150808061231c90614499565b9150506122cb565b506040805180820190915260018152605b60f81b602082015260005b6001855161234e91906143d2565b8110156123a9578185828151811061236857612368614483565b602002602001015160200151604051602001612385929190614874565b604051602081830303815290604052915080806123a190614499565b915050612340565b508084600186516123ba91906143d2565b815181106123ca576123ca614483565b6020026020010151602001516040516020016123e7929190614845565b6040516020818303038152906040529050600061243661240688612ad8565b8361241086612bd8565b604051602001612422939291906148af565b604051602081830303815290604052612bd8565b9050806040516020016124499190614ab0565b60408051601f19818403018152919052979650505050505050565b600080833a4342446124776001846143d2565b604080516001600160a01b0390971660208801528601949094526060850192909252608084015260a08301524060c08201523060e082015261010081018490526101200160408051601f198184030181529190528051602090910120905060006124e18483614af5565b90506124ed8185612d2a565b95945050505050565b60008181526004602052604080822080546001600160a01b0319166001600160a01b03861690811790915590518392907fddf252ad1be2c89b69c2b068fc378daa952ba7f163c4a11628f55a4df523b3ef908290a45050565b60006001600160a01b0384163b1561264557604051630a85bd0160e11b81526001600160a01b0385169063150b7a0290612593903390899088908890600401614b09565b6020604051808303816000875af19250505080156125ce575060408051601f3d908101601f191682019092526125cb91810190614b3c565b60015b61262b573d8080156125fc576040519150601f19603f3d011682016040523d82523d6000602084013e612601565b606091505b5080516000036126235760405162461bcd60e51b81526004016107fa906144c9565b805181602001fd5b6001600160e01b031916630a85bd0160e11b149050611934565b506001949350505050565b600061265b84612ad8565b8361266584612ad8565b60405160200161267793929190614b59565b60408051601f198184030181529082905261269491602001614b9c565b6040516020818303038152906040528051906020012060001c90505b9392505050565b600060128211806126c85750600882105b6126d257816126d5565b60125b915060005b84518110156126f557806126ed81614499565b9150506126da565b506000846001865161270791906143d2565b8151811061271757612717614483565b602002602001015163ffffffff16905060006010600285601261273a91906143d2565b6127449190614c9c565b61274f60a98561441e565b61275991906143e9565b901c9050600086518261276c91906143e9565b6127769084614383565b6127809087614af5565b905060005b87518110156127f157612799816001614383565b6127a390846143e9565b8882815181106127b5576127b5614483565b602002602001015163ffffffff166127cd9190614383565b8210156127df5793506126b092505050565b806127e981614499565b915050612785565b5060405162461bcd60e51b815260206004820152600560248201526422a92927a960d91b60448201526064016107fa565b60606000826001600160401b0381111561283e5761283e6140e9565b604051908082528060200260200182016040528015612867578160200160208202803683370190505b50905060005b838110156112d557600061292b60138054806020026020016040519081016040528092919081815260200182805480156128f257602002820191906000526020600020906000905b82829054906101000a900463ffffffff1663ffffffff16815260200190600401906020826003010492830192600103820291508084116128b55790505b5050505050611cd88460016129079190614383565b604051806040016040528060058152602001644d41494e5360d81b8152508a612650565b90508083838151811061294057612940614483565b6020908102919091010152508061295681614499565b91505061286d565b60606126b08383604051806040016040528060048152602001631211505160e21b815250612db1565b6040805180820190915260608082526020820152600082846040516020016129b0929190614cab565b60408051601f19818403018152828201909152858252602082015291505092915050565b60606126b0838360405180604001604052806005815260200164544f52534f60d81b815250612db1565b60606126b08383604051806040016040528060088152602001672327a7aa2ba2a0a960c11b815250612db1565b60606126b0838360405180604001604052806007815260200166424f54544f4d5360c81b815250612db1565b60606126b08383604051806040016040528060068152602001652ba2a0a827a760d11b815250612db1565b60606126b083836040518060400160405280600681526020016514d21251531160d21b815250612db1565b60606126b083836040518060400160405280600681526020016510535553115560d21b815250612db1565b606081600003612aff5750506040805180820190915260018152600360fc1b602082015290565b8160005b8115612b295780612b1381614499565b9150612b229050600a8361441e565b9150612b03565b6000816001600160401b03811115612b4357612b436140e9565b6040519080825280601f01601f191660200182016040528015612b6d576020820181803683370190505b5090505b841561193457612b826001836143d2565b9150612b8f600a86614af5565b612b9a906030614383565b60f81b818381518110612baf57612baf614483565b60200101906001600160f81b031916908160001a905350612bd1600a8661441e565b9450612b71565b60608151600003612bf757505060408051602081019091526000815290565b6000604051806060016040528060408152602001614e2f6040913990506000600384516002612c269190614383565b612c30919061441e565b612c3b9060046143e9565b6001600160401b03811115612c5257612c526140e9565b6040519080825280601f01601f191660200182016040528015612c7c576020820181803683370190505b509050600182016020820185865187015b80821015612ce8576003820191508151603f8160121c168501518453600184019350603f81600c1c168501518453600184019350603f8160061c168501518453600184019350603f8116850151845350600183019250612c8d565b5050600386510660018114612d045760028114612d1757612d1f565b603d6001830353603d6002830353612d1f565b603d60018303535b509195945050505050565b60008281526002602052604081205481818103612d48575083612d4b565b50805b6000612d586001866143d2565b905080861461201c5760008181526002602052604081205490819003612d8e576000878152600260205260409020829055612da7565b6000878152600260205260408082208390558382528120555b5050949350505050565b60606000612e5e6011805480602002602001604051908101604052809291908181526020018280548015612e3057602002820191906000526020600020906000905b82829054906101000a900463ffffffff1663ffffffff1681526020019060040190602082600301049283019260010382029150808411612df35790505b5050505050611cd86000604051806040016040528060058152602001644954454d5360d81b81525089612650565b612e69906008614383565b90506000612e78858588612650565b90506000612ea9866040518060400160405280600a815260200169504f535345535349564560b01b81525089612650565b90506000612ed58760405180604001604052806005815260200164455854524160d81b8152508a612650565b90506000612f048860405180604001604052806008815260200167135055115492505360c21b8152508b612650565b90506000612f2f89604051806040016040528060048152602001631510525360e21b8152508c612650565b90506000612fd3600f8a604051612f469190614b9c565b9081526040805191829003602090810183206001018054808302850183019093528284529190830182828015612fc757602002820191906000526020600020906000905b82829054906101000a900463ffffffff1663ffffffff1681526020019060040190602082600301049283019260010382029150808411612f8a5790505b505050505087896126b7565b90506000600f8a604051612fe79190614b9c565b9081526020016040518091039020600001828154811061300957613009614483565b90600052602060002001805461301e906142fe565b80601f016020809104026020016040519081016040528092919081815260200182805461304a906142fe565b80156130975780601f1061306c57610100808354040283529160200191613097565b820191906000526020600020905b81548152906001019060200180831161307a57829003601f168201915b5050505050905060006130ab8b8e8e6135d7565b905080516000036130c6575097506126b09650505050505050565b60408051600580825260c08201909252600091816020015b60608152602001906001900390816130de579050509050828160038151811061310957613109614483565b602002602001018190525060005b82518110156135365782818151811061313257613132614483565b602002602001015160070361326d5760405169504f535345535349564560b01b8152600f90600a0190815260405190819003602001812069504f535345535349564560b01b82529061321190600f90600a01908152604080519182900360209081018320600101805480830285018301909352828452919083018282801561320557602002820191906000526020600020906000905b82829054906101000a900463ffffffff1663ffffffff16815260200190600401906020826003010492830192600103820291508084116131c85790505b50505050508b8e6126b7565b8154811061322157613221614483565b9060005260206000200160405160200161323b9190614db7565b6040516020818303038152906040528260008151811061325d5761325d614483565b6020026020010181905250613524565b82818151811061327f5761327f614483565b60200260200101516008036133315760006132b88e60405180604001604052806005815260200164455854524160d81b8152508861393a565b905080600001516132d66132cf8360200151613d51565b8b8f6126b7565b815181106132e6576132e6614483565b60200260200101516040516020016132fe9190614dd4565b6040516020818303038152906040528360018151811061332057613320614483565b602002602001018190525050613524565b82818151811061334357613343614483565b60200260200101516009036133e757600061337f8e60405180604001604052806008815260200167135055115492505360c21b8152508861393a565b9050806000015161339d6133968360200151613d51565b8a8f6126b7565b815181106133ad576133ad614483565b60200260200101516040516020016133c59190614dd4565b6040516020818303038152906040528360028151811061332057613320614483565b8281815181106133f9576133f9614483565b6020026020010151600a0361352457604051631510525360e21b8152600f90600401908152604051908190036020018120631510525360e21b8252906134cc90600f9060040190815260408051918290036020908101832060010180548083028501830190935282845291908301828280156134c057602002820191906000526020600020906000905b82829054906101000a900463ffffffff1663ffffffff16815260200190600401906020826003010492830192600103820291508084116134835790505b5050505050888e6126b7565b815481106134dc576134dc614483565b906000526020600020016040516020016134f69190614df9565b6040516020818303038152906040528260048151811061351857613518614483565b60200260200101819052505b8061352e81614499565b915050613117565b50604080516020810190915260008082525b82518110156135c457600083828151811061356557613565614483565b60200260200101515111156135b2578183828151811061358757613587614483565b60200260200101516040516020016135a0929190614845565b60405160208183030381529060405291505b806135bc81614499565b915050613548565b509e9d5050505050505050505050505050565b60606000613682601280548060200260200160405190810160405280929190818152602001828054801561365657602002820191906000526020600020906000905b82829054906101000a900463ffffffff1663ffffffff16815260200190600401906020826003010492830192600103820291508084116136195790505b5050505050611cd885604051806040016040528060048152602001634d4f445360e01b81525088612650565b90506000816001600160401b0381111561369e5761369e6140e9565b6040519080825280602002602001820160405280156136c7578160200160208202803683370190505b5060408051600480825260a082019092529192506000919060208201608080368337019050509050600f60405161370e9069504f535345535349564560b01b8152600a0190565b9081526040519081900360200190206001015461372e90620f42406143e9565b8160008151811061374157613741614483565b602002602001019063ffffffff16908163ffffffff1681525050600f8760405161376b9190614b9c565b9081526040519081900360200190206002015461378b90620f42406143e9565b8160018151811061379e5761379e614483565b602002602001019063ffffffff16908163ffffffff1681525050600f876040516137c89190614b9c565b908152604051908190036020019020600301546137e890620f42406143e9565b816002815181106137fb576137fb614483565b63ffffffff90921660209283029190910190910152604051631510525360e21b8152600f906004019081526040519081900360200190206001015461384390620f42406143e9565b8160038151811061385657613856614483565b602002602001019063ffffffff16908163ffffffff168152505060005b8381101561392e5760006138b261388b836001614383565b6040518060400160405280600881526020016726a7a224a324a2a960c11b8152508a612650565b905060006138ca6138c285613d51565b8360006126b7565b90506138d7816007614383565b8584815181106138e9576138e9614483565b60200260200101818152505083818151811061390757613907614483565b60200260200101600063ffffffff168152505050808061392690614499565b915050613873565b50909695505050505050565b6139656040518060800160405280606081526020016060815260200160608152602001606081525090565b600061398e8460405180604001604052806005815260200164455854524160d81b815250613e71565b6139d357600f856040516139a29190614b9c565b908152602001604051809103902060030183815481106139c4576139c4614483565b90600052602060002001613a10565b600f856040516139e39190614b9c565b90815260200160405180910390206002018381548110613a0557613a05614483565b906000526020600020015b805480602002602001604051908101604052809291908181526020018280548015613a7857602002820191906000526020600020906000905b825461010083900a900460ff16815260206001928301818104948501949093039092029101808411613a495790505b505050505090506000604051806080016040528083516001600160401b03811115613aa557613aa56140e9565b604051908082528060200260200182016040528015613ad857816020015b6060815260200190600190039081613ac35790505b50815260200183516001600160401b03811115613af757613af76140e9565b604051908082528060200260200182016040528015613b20578160200160208202803683370190505b5081526020016000604051908082528060200260200182016040528015613b5b57816020015b6060815260200190600190039081613b465790505b5081526020016000604051908082528060200260200182016040528015613b9657816020015b6060815260200190600190039081613b815790505b509052905060005b8251811015613d47576000838281518110613bbb57613bbb614483565b60200260200101519050600f87604051613bd59190614b9c565b90815260200160405180910390206000018160ff1681548110613bfa57613bfa614483565b906000526020600020018054613c0f906142fe565b80601f0160208091040260200160405190810160405280929190818152602001828054613c3b906142fe565b8015613c885780601f10613c5d57610100808354040283529160200191613c88565b820191906000526020600020905b815481529060010190602001808311613c6b57829003601f168201915b505050505083600001518381518110613ca357613ca3614483565b6020026020010181905250600f87604051613cbe9190614b9c565b90815260200160405180910390206001018160ff1681548110613ce357613ce3614483565b90600052602060002090600891828204019190066004029054906101000a900463ffffffff1683602001518381518110613d1f57613d1f614483565b63ffffffff909216602092830291909101909101525080613d3f81614499565b915050613b9e565b5095945050505050565b606060008083516001600160401b03811115613d6f57613d6f6140e9565b604051908082528060200260200182016040528015613d98578160200160208202803683370190505b50905060005b84518110156112d55763ffffffff8016858281518110613dc057613dc0614483565b602002602001015184613dd39190614e0f565b63ffffffff1610613e105760405162461bcd60e51b8152602060048201526007602482015266546f6f2042696760c81b60448201526064016107fa565b848181518110613e2257613e22614483565b602002602001015183613e359190614e0f565b925082828281518110613e4a57613e4a614483565b63ffffffff9092166020928302919091019091015280613e6981614499565b915050613d9e565b600081604051602001613e849190614b9c565b6040516020818303038152906040528051906020012083604051602001613eab9190614b9c565b6040516020818303038152906040528051906020012014905092915050565b828054613ed6906142fe565b90600052602060002090601f016020900481019282613ef85760008555613f3e565b82601f10613f1157805160ff1916838001178555613f3e565b82800160010185558215613f3e579182015b82811115613f3e578251825591602001919060010190613f23565b50613f4a929150613f4e565b5090565b5b80821115613f4a5760008155600101613f4f565b6001600160e01b03198116811461142257600080fd5b600060208284031215613f8b57600080fd5b81356126b081613f63565b60005b83811015613fb1578181015183820152602001613f99565b838111156112155750506000910152565b60008151808452613fda816020860160208601613f96565b601f01601f19169290920160200192915050565b6020815260006126b06020830184613fc2565b6001600160a01b038116811461142257600080fd5b6000806040838503121561402957600080fd5b82359150602083013561403b81614001565b809150509250929050565b60006020828403121561405857600080fd5b5035919050565b6000806040838503121561407257600080fd5b823561407d81614001565b946020939093013593505050565b60006020828403121561409d57600080fd5b81356126b081614001565b6000806000606084860312156140bd57600080fd5b83356140c881614001565b925060208401356140d881614001565b929592945050506040919091013590565b634e487b7160e01b600052604160045260246000fd5b60006001600160401b0380841115614119576141196140e9565b604051601f8501601f19908116603f01168101908282118183101715614141576141416140e9565b8160405280935085815286868601111561415a57600080fd5b858560208301376000602087830101525050509392505050565b60006020828403121561418657600080fd5b81356001600160401b0381111561419c57600080fd5b8201601f810184136141ad57600080fd5b611934848235602084016140ff565b600080604083850312156141cf57600080fd5b82356141da81614001565b91506020830135801515811461403b57600080fd5b6000806000806080858703121561420557600080fd5b843561421081614001565b9350602085013561422081614001565b92506040850135915060608501356001600160401b0381111561424257600080fd5b8501601f8101871361425357600080fd5b614262878235602084016140ff565b91505092959194509250565b6000602080830181845280855180835260408601915060408160051b870101925083870160005b828110156142c357603f198886030184526142b1858351613fc2565b94509285019290850190600101614295565b5092979650505050505050565b600080604083850312156142e357600080fd5b82356142ee81614001565b9150602083013561403b81614001565b600181811c9082168061431257607f821691505b60208210810361433257634e487b7160e01b600052602260045260246000fd5b50919050565b6020808252818101527f4f776e61626c653a2063616c6c6572206973206e6f7420746865206f776e6572604082015260600190565b634e487b7160e01b600052601160045260246000fd5b600082198211156143965761439661436d565b500190565b6020808252601f908201527f4e6577206d696e742065786365656473206d6178696d756d20737570706c7900604082015260600190565b6000828210156143e4576143e461436d565b500390565b60008160001904831182151516156144035761440361436d565b500290565b634e487b7160e01b600052601260045260246000fd5b60008261442d5761442d614408565b500490565b60208082526031908201527f4552433732313a207472616e736665722063616c6c6572206973206e6f74206f6040820152701ddb995c881b9bdc88185c1c1c9bdd9959607a1b606082015260800190565b634e487b7160e01b600052603260045260246000fd5b6000600182016144ab576144ab61436d565b5060010190565b6000816144c1576144c161436d565b506000190190565b60208082526032908201527f4552433732313a207472616e7366657220746f206e6f6e20455243373231526560408201527131b2b4bb32b91034b6b83632b6b2b73a32b960711b606082015260800190565b6000815161452d818560208601613f96565b9290920192915050565b7f3c73766720786d6c6e733d22687474703a2f2f7777772e77332e6f72672f323081527f30302f73766722207072657365727665417370656374526174696f3d22784d6960208201527f6e594d696e206d656574222076696577426f783d2230203020000000000000006040820152600083516145bb816059850160208801613f96565b600160fd1b60599184019182015283516145dc81605a840160208801613f96565b7f223e3c7374796c653e2e62617365207b2066696c6c3a20626c61636b3b20666f605a92909101918201527f6e742d66616d696c793a20616c656f3b20666f6e742d73697a653a2031397078607a8201527f3b207d3c2f7374796c653e3c7374796c653e2e7469746c65207b2066696c6c3a609a8201527f20626c61636b3b20666f6e742d66616d696c793a20616c656f3b20666f6e742d60ba8201527f73697a653a20323870783b20666f6e742d7374796c653a20626f6c643b207d3c60da8201527f2f7374796c653e3c726563742077696474683d2231303025222068656967687460fa8201527f3d2231303025222066696c6c3d222346463846303022202f3e3c74657874207861011a8201527f3d2233342220793d2233342220636c6173733d2262617365223e00000000000061013a82015261015401949350505050565b7f3c2f746578743e3c7465787420783d2233342220793d22000000000000000000815260008251614757816017850160208701613f96565b6e111031b630b9b99e913130b9b2911f60891b6017939091019283015250602601919050565b600061ffff838116908316818110156147985761479861436d565b039392505050565b6f1e17ba32bc3a1f1e3a32bc3a103c1e9160811b815282516000906147cc816010850160208801613f96565b6411103c9e9160d91b60109184019182015283516147f1816015840160208801613f96565b7f2220636c6173733d227469746c65223e54726561737572652e2028466f722057601592909101918201527430b93934b7b939949e17ba32bc3a1f1e17b9bb339f60591b6035820152604a01949350505050565b60008351614857818460208801613f96565b83519083019061486b818360208801613f96565b01949350505050565b60008351614886818460208801613f96565b83519083019061489a818360208801613f96565b600b60fa1b9101908152600101949350505050565b707b226e616d65223a20224368657374202360781b815283516000906148dc816011850160208901613f96565b7001116101130ba3a3934b13aba32b9911d1607d1b601191840191820152845161490d816022840160208901613f96565b7f5d2c20226465736372697074696f6e223a202254726561737572652069732072602292909101918201527f616e646f6d697a656420626174746c6520676561722067656e6572617465642060428201527f616e642073746f726564206f6e20636861696e2e20456163682074726561737560628201527f726520636865737420636f6e7461696e7320612076617269657479206f66206760828201527f65617220746861742077617272696f72732077696c6c2075736520696e20626160a28201527f74746c652e2052616e67696e672066726f6d2061726d6f75722c20746f20776560c28201527f61706f6e7320616e6420737572766976616c20676561722e204665656c20667260e28201527f656520746f2075736520796f757220747265617375726520696e20616e7920776101028201527f617920796f752077616e742e222c2022696d616765223a2022646174613a696d610122820152721859d94bdcdd99cade1b5b0ed8985cd94d8d0b606a1b610142820152614aa6614a9861015583018661451b565b61227d60f01b815260020190565b9695505050505050565b7f646174613a6170706c69636174696f6e2f6a736f6e3b6261736536342c000000815260008251614ae881601d850160208701613f96565b91909101601d0192915050565b600082614b0457614b04614408565b500690565b6001600160a01b0385811682528416602082015260408101839052608060608201819052600090614aa690830184613fc2565b600060208284031215614b4e57600080fd5b81516126b081613f63565b60008451614b6b818460208901613f96565b845190830190614b7f818360208901613f96565b8451910190614b92818360208801613f96565b0195945050505050565b60008251614bae818460208701613f96565b9190910192915050565b600181815b80851115614bf3578160001904821115614bd957614bd961436d565b80851615614be657918102915b93841c9390800290614bbd565b509250929050565b600082614c0a57506001610738565b81614c1757506000610738565b8160018114614c2d5760028114614c3757614c53565b6001915050610738565b60ff841115614c4857614c4861436d565b50506001821b610738565b5060208310610133831016604e8410600b8410161715614c76575081810a610738565b614c808383614bb8565b8060001904821115614c9457614c9461436d565b029392505050565b60006126b060ff841683614bfb565b6f3d913a3930b4ba2fba3cb832911d101160811b81528251600090614cd7816010850160208801613f96565b6b1116113b30b63ab2911d101160a11b6010918401918201528351614d0381601c840160208801613f96565b61227d60f01b601c9290910191820152601e01949350505050565b8054600090600181811c9080831680614d3857607f831692505b60208084108203614d5957634e487b7160e01b600052602260045260246000fd5b818015614d6d5760018114614d7e57614dab565b60ff19861689528489019650614dab565b60008881526020902060005b86811015614da35781548b820152908501908301614d8a565b505084890196505b50505050505092915050565b6000614dc38284614d1e565b600160fd1b81526001019392505050565b60008251614de6818460208701613f96565b600160fd1b920191825250600101919050565b600160fd1b815260006126b06001830184614d1e565b600063ffffffff80831681851680830382111561486b5761486b61436d56fe4142434445464748494a4b4c4d4e4f505152535455565758595a6162636465666768696a6b6c6d6e6f707172737475767778797a303132333435363738392b2fa2646970667358221220f5cf229e2b0200706b1dda198b64f653c913cc4b955fed01980925cf08688fee64736f6c634300080d0033",
  "linkReferences": {},
  "deployedLinkReferences": {}
}