{
  "_format": "hh-sol-artifact-1",
  "contractName": "ERC721R",
  "sourceName": "contracts/ERC721R.sol",
  "abi": [
    {
      "inputs": [
        {
          "internalType": "string",
          "name": "name_",
          "type": "string"
        },
        {
          "internalType": "string",
          "name": "symbol_",
          "type": "string"
        },
        {
          "internalType": "uint256",
          "name": "maxSupply_",
          "type": "uint256"
        }
      ],
      "stateMutability": "nonpayable",
      "type": "constructor"
    },
    {
      "anonymous": false,
      "inputs": [
        {
          "indexed": true,
          "internalType": "address",
          "name": "owner",
          "type": "address"
        },
        {
          "indexed": true,
          "internalType": "address",
          "name": "approved",
          "type": "address"
        },
        {
          "indexed": true,
          "internalType": "uint256",
          "name": "tokenId",
          "type": "uint256"
        }
      ],
      "name": "Approval",
      "type": "event"
    },
    {
      "anonymous": false,
      "inputs": [
        {
          "indexed": true,
          "internalType": "address",
          "name": "owner",
          "type": "address"
        },
        {
          "indexed": true,
          "internalType": "address",
          "name": "operator",
          "type": "address"
        },
        {
          "indexed": false,
          "internalType": "bool",
          "name": "approved",
          "type": "bool"
        }
      ],
      "name": "ApprovalForAll",
      "type": "event"
    },
    {
      "anonymous": false,
      "inputs": [
        {
          "indexed": true,
          "internalType": "address",
          "name": "from",
          "type": "address"
        },
        {
          "indexed": true,
          "internalType": "address",
          "name": "to",
          "type": "address"
        },
        {
          "indexed": true,
          "internalType": "uint256",
          "name": "tokenId",
          "type": "uint256"
        }
      ],
      "name": "Transfer",
      "type": "event"
    },
    {
      "inputs": [
        {
          "internalType": "address",
          "name": "to",
          "type": "address"
        },
        {
          "internalType": "uint256",
          "name": "tokenId",
          "type": "uint256"
        }
      ],
      "name": "approve",
      "outputs": [],
      "stateMutability": "nonpayable",
      "type": "function"
    },
    {
      "inputs": [
        {
          "internalType": "address",
          "name": "owner",
          "type": "address"
        }
      ],
      "name": "balanceOf",
      "outputs": [
        {
          "internalType": "uint256",
          "name": "",
          "type": "uint256"
        }
      ],
      "stateMutability": "view",
      "type": "function"
    },
    {
      "inputs": [
        {
          "internalType": "uint256",
          "name": "tokenId",
          "type": "uint256"
        }
      ],
      "name": "getApproved",
      "outputs": [
        {
          "internalType": "address",
          "name": "",
          "type": "address"
        }
      ],
      "stateMutability": "view",
      "type": "function"
    },
    {
      "inputs": [
        {
          "internalType": "address",
          "name": "owner",
          "type": "address"
        },
        {
          "internalType": "address",
          "name": "operator",
          "type": "address"
        }
      ],
      "name": "isApprovedForAll",
      "outputs": [
        {
          "internalType": "bool",
          "name": "",
          "type": "bool"
        }
      ],
      "stateMutability": "view",
      "type": "function"
    },
    {
      "inputs": [],
      "name": "maxSupply",
      "outputs": [
        {
          "internalType": "uint256",
          "name": "",
          "type": "uint256"
        }
      ],
      "stateMutability": "view",
      "type": "function"
    },
    {
      "inputs": [],
      "name": "name",
      "outputs": [
        {
          "internalType": "string",
          "name": "",
          "type": "string"
        }
      ],
      "stateMutability": "view",
      "type": "function"
    },
    {
      "inputs": [
        {
          "internalType": "uint256",
          "name": "tokenId",
          "type": "uint256"
        }
      ],
      "name": "ownerOf",
      "outputs": [
        {
          "internalType": "address",
          "name": "",
          "type": "address"
        }
      ],
      "stateMutability": "view",
      "type": "function"
    },
    {
      "inputs": [
        {
          "internalType": "address",
          "name": "from",
          "type": "address"
        },
        {
          "internalType": "address",
          "name": "to",
          "type": "address"
        },
        {
          "internalType": "uint256",
          "name": "tokenId",
          "type": "uint256"
        }
      ],
      "name": "safeTransferFrom",
      "outputs": [],
      "stateMutability": "nonpayable",
      "type": "function"
    },
    {
      "inputs": [
        {
          "internalType": "address",
          "name": "from",
          "type": "address"
        },
        {
          "internalType": "address",
          "name": "to",
          "type": "address"
        },
        {
          "internalType": "uint256",
          "name": "tokenId",
          "type": "uint256"
        },
        {
          "internalType": "bytes",
          "name": "_data",
          "type": "bytes"
        }
      ],
      "name": "safeTransferFrom",
      "outputs": [],
      "stateMutability": "nonpayable",
      "type": "function"
    },
    {
      "inputs": [
        {
          "internalType": "address",
          "name": "operator",
          "type": "address"
        },
        {
          "internalType": "bool",
          "name": "approved",
          "type": "bool"
        }
      ],
      "name": "setApprovalForAll",
      "outputs": [],
      "stateMutability": "nonpayable",
      "type": "function"
    },
    {
      "inputs": [
        {
          "internalType": "bytes4",
          "name": "interfaceId",
          "type": "bytes4"
        }
      ],
      "name": "supportsInterface",
      "outputs": [
        {
          "internalType": "bool",
          "name": "",
          "type": "bool"
        }
      ],
      "stateMutability": "view",
      "type": "function"
    },
    {
      "inputs": [],
      "name": "symbol",
      "outputs": [
        {
          "internalType": "string",
          "name": "",
          "type": "string"
        }
      ],
      "stateMutability": "view",
      "type": "function"
    },
    {
      "inputs": [
        {
          "internalType": "uint256",
          "name": "tokenId",
          "type": "uint256"
        }
      ],
      "name": "tokenURI",
      "outputs": [
        {
          "internalType": "string",
          "name": "",
          "type": "string"
        }
      ],
      "stateMutability": "view",
      "type": "function"
    },
    {
      "inputs": [],
      "name": "totalSupply",
      "outputs": [
        {
          "internalType": "uint256",
          "name": "",
          "type": "uint256"
        }
      ],
      "stateMutability": "view",
      "type": "function"
    },
    {
      "inputs": [
        {
          "internalType": "address",
          "name": "from",
          "type": "address"
        },
        {
          "internalType": "address",
          "name": "to",
          "type": "address"
        },
        {
          "internalType": "uint256",
          "name": "tokenId",
          "type": "uint256"
        }
      ],
      "name": "transferFrom",
      "outputs": [],
      "stateMutability": "nonpayable",
      "type": "function"
    }
  ],
  "bytecode": "0x60a06040523480156200001157600080fd5b506040516200158c3803806200158c8339810160408190526200003491620001e4565b82516200004990600090602086019062000071565b5081516200005f90600190602085019062000071565b50608081905260035550620002939050565b8280546200007f9062000257565b90600052602060002090601f016020900481019282620000a35760008555620000ee565b82601f10620000be57805160ff1916838001178555620000ee565b82800160010185558215620000ee579182015b82811115620000ee578251825591602001919060010190620000d1565b50620000fc92915062000100565b5090565b5b80821115620000fc576000815560010162000101565b634e487b7160e01b600052604160045260246000fd5b600082601f8301126200013f57600080fd5b81516001600160401b03808211156200015c576200015c62000117565b604051601f8301601f19908116603f0116810190828211818310171562000187576200018762000117565b81604052838152602092508683858801011115620001a457600080fd5b600091505b83821015620001c85785820183015181830184015290820190620001a9565b83821115620001da5760008385830101525b9695505050505050565b600080600060608486031215620001fa57600080fd5b83516001600160401b03808211156200021257600080fd5b62000220878388016200012d565b945060208601519150808211156200023757600080fd5b5062000246868287016200012d565b925050604084015190509250925092565b600181811c908216806200026c57607f821691505b6020821081036200028d57634e487b7160e01b600052602260045260246000fd5b50919050565b6080516112d6620002b66000396000818161021c015261051601526112d66000f3fe608060405234801561001057600080fd5b50600436106100f55760003560e01c80636352211e11610097578063b88d4fde11610066578063b88d4fde146101f4578063c87b56dd14610207578063d5abeb011461021a578063e985e9c51461024057600080fd5b80636352211e146101b357806370a08231146101c657806395d89b41146101d9578063a22cb465146101e157600080fd5b8063095ea7b3116100d3578063095ea7b31461016257806318160ddd1461017757806323b872dd1461018d57806342842e0e146101a057600080fd5b806301ffc9a7146100fa57806306fdde0314610122578063081812fc14610137575b600080fd5b61010d610108366004610de9565b61027c565b60405190151581526020015b60405180910390f35b61012a6102ce565b6040516101199190610e5e565b61014a610145366004610e71565b610360565b6040516001600160a01b039091168152602001610119565b610175610170366004610ea6565b6103fa565b005b61017f61050f565b604051908152602001610119565b61017561019b366004610ed0565b610544565b6101756101ae366004610ed0565b610575565b61014a6101c1366004610e71565b610590565b61017f6101d4366004610f0c565b610607565b61012a61068e565b6101756101ef366004610f27565b61069d565b610175610202366004610f79565b6106ac565b61012a610215366004610e71565b6106e4565b7f000000000000000000000000000000000000000000000000000000000000000061017f565b61010d61024e366004611055565b6001600160a01b03918216600090815260076020908152604080832093909416825291909152205460ff1690565b60006001600160e01b031982166380ac58cd60e01b14806102ad57506001600160e01b03198216635b5e139f60e01b145b806102c857506301ffc9a760e01b6001600160e01b03198316145b92915050565b6060600080546102dd90611088565b80601f016020809104026020016040519081016040528092919081815260200182805461030990611088565b80156103565780601f1061032b57610100808354040283529160200191610356565b820191906000526020600020905b81548152906001019060200180831161033957829003601f168201915b5050505050905090565b6000818152600460205260408120546001600160a01b03166103de5760405162461bcd60e51b815260206004820152602c60248201527f4552433732313a20617070726f76656420717565727920666f72206e6f6e657860448201526b34b9ba32b73a103a37b5b2b760a11b60648201526084015b60405180910390fd5b506000908152600660205260409020546001600160a01b031690565b600061040582610590565b9050806001600160a01b0316836001600160a01b0316036104725760405162461bcd60e51b815260206004820152602160248201527f4552433732313a20617070726f76616c20746f2063757272656e74206f776e656044820152603960f91b60648201526084016103d5565b336001600160a01b038216148061048e575061048e813361024e565b6105005760405162461bcd60e51b815260206004820152603860248201527f4552433732313a20617070726f76652063616c6c6572206973206e6f74206f7760448201527f6e6572206e6f7220617070726f76656420666f7220616c6c000000000000000060648201526084016103d5565b61050a83836107cc565b505050565b60006003547f000000000000000000000000000000000000000000000000000000000000000061053f91906110d8565b905090565b61054e338261083a565b61056a5760405162461bcd60e51b81526004016103d5906110ef565b61050a838383610931565b61050a838383604051806020016040528060008152506106ac565b6000818152600460205260408120546001600160a01b0316806102c85760405162461bcd60e51b815260206004820152602960248201527f4552433732313a206f776e657220717565727920666f72206e6f6e657869737460448201526832b73a103a37b5b2b760b91b60648201526084016103d5565b60006001600160a01b0382166106725760405162461bcd60e51b815260206004820152602a60248201527f4552433732313a2062616c616e636520717565727920666f7220746865207a65604482015269726f206164647265737360b01b60648201526084016103d5565b506001600160a01b031660009081526005602052604090205490565b6060600180546102dd90611088565b6106a8338383610acd565b5050565b6106b6338361083a565b6106d25760405162461bcd60e51b81526004016103d5906110ef565b6106de84848484610b9b565b50505050565b6000818152600460205260409020546060906001600160a01b03166107635760405162461bcd60e51b815260206004820152602f60248201527f4552433732314d657461646174613a2055524920717565727920666f72206e6f60448201526e3732bc34b9ba32b73a103a37b5b2b760891b60648201526084016103d5565b600061077a60408051602081019091526000815290565b9050600081511161079a57604051806020016040528060008152506107c5565b806107a484610bce565b6040516020016107b5929190611140565b6040516020818303038152906040525b9392505050565b600081815260066020526040902080546001600160a01b0319166001600160a01b038416908117909155819061080182610590565b6001600160a01b03167f8c5be1e5ebec7d5bd14f71427d1e84f3dd0314c0f7b2291e5b200ac8c7c3b92560405160405180910390a45050565b6000818152600460205260408120546001600160a01b03166108b35760405162461bcd60e51b815260206004820152602c60248201527f4552433732313a206f70657261746f7220717565727920666f72206e6f6e657860448201526b34b9ba32b73a103a37b5b2b760a11b60648201526084016103d5565b60006108be83610590565b9050806001600160a01b0316846001600160a01b031614806108f95750836001600160a01b03166108ee84610360565b6001600160a01b0316145b8061092957506001600160a01b0380821660009081526007602090815260408083209388168352929052205460ff165b949350505050565b826001600160a01b031661094482610590565b6001600160a01b0316146109a85760405162461bcd60e51b815260206004820152602560248201527f4552433732313a207472616e736665722066726f6d20696e636f72726563742060448201526437bbb732b960d91b60648201526084016103d5565b6001600160a01b038216610a0a5760405162461bcd60e51b8152602060048201526024808201527f4552433732313a207472616e7366657220746f20746865207a65726f206164646044820152637265737360e01b60648201526084016103d5565b610a156000826107cc565b6001600160a01b0383166000908152600560205260408120805460019290610a3e9084906110d8565b90915550506001600160a01b0382166000908152600560205260408120805460019290610a6c90849061116f565b909155505060008181526004602052604080822080546001600160a01b0319166001600160a01b0386811691821790925591518493918716917fddf252ad1be2c89b69c2b068fc378daa952ba7f163c4a11628f55a4df523b3ef91a4505050565b816001600160a01b0316836001600160a01b031603610b2e5760405162461bcd60e51b815260206004820152601960248201527f4552433732313a20617070726f766520746f2063616c6c65720000000000000060448201526064016103d5565b6001600160a01b03838116600081815260076020908152604080832094871680845294825291829020805460ff191686151590811790915591519182527f17307eab39ab6107e8899845ad3d59bd9653f200f220920489ca2b5937696c31910160405180910390a3505050565b610ba6848484610931565b610bb284848484610ccf565b6106de5760405162461bcd60e51b81526004016103d590611187565b606081600003610bf55750506040805180820190915260018152600360fc1b602082015290565b8160005b8115610c1f5780610c09816111d9565b9150610c189050600a83611208565b9150610bf9565b60008167ffffffffffffffff811115610c3a57610c3a610f63565b6040519080825280601f01601f191660200182016040528015610c64576020820181803683370190505b5090505b841561092957610c796001836110d8565b9150610c86600a8661121c565b610c9190603061116f565b60f81b818381518110610ca657610ca6611230565b60200101906001600160f81b031916908160001a905350610cc8600a86611208565b9450610c68565b60006001600160a01b0384163b15610dc557604051630a85bd0160e11b81526001600160a01b0385169063150b7a0290610d13903390899088908890600401611246565b6020604051808303816000875af1925050508015610d4e575060408051601f3d908101601f19168201909252610d4b91810190611283565b60015b610dab573d808015610d7c576040519150601f19603f3d011682016040523d82523d6000602084013e610d81565b606091505b508051600003610da35760405162461bcd60e51b81526004016103d590611187565b805181602001fd5b6001600160e01b031916630a85bd0160e11b149050610929565b506001949350505050565b6001600160e01b031981168114610de657600080fd5b50565b600060208284031215610dfb57600080fd5b81356107c581610dd0565b60005b83811015610e21578181015183820152602001610e09565b838111156106de5750506000910152565b60008151808452610e4a816020860160208601610e06565b601f01601f19169290920160200192915050565b6020815260006107c56020830184610e32565b600060208284031215610e8357600080fd5b5035919050565b80356001600160a01b0381168114610ea157600080fd5b919050565b60008060408385031215610eb957600080fd5b610ec283610e8a565b946020939093013593505050565b600080600060608486031215610ee557600080fd5b610eee84610e8a565b9250610efc60208501610e8a565b9150604084013590509250925092565b600060208284031215610f1e57600080fd5b6107c582610e8a565b60008060408385031215610f3a57600080fd5b610f4383610e8a565b915060208301358015158114610f5857600080fd5b809150509250929050565b634e487b7160e01b600052604160045260246000fd5b60008060008060808587031215610f8f57600080fd5b610f9885610e8a565b9350610fa660208601610e8a565b925060408501359150606085013567ffffffffffffffff80821115610fca57600080fd5b818701915087601f830112610fde57600080fd5b813581811115610ff057610ff0610f63565b604051601f8201601f19908116603f0116810190838211818310171561101857611018610f63565b816040528281528a602084870101111561103157600080fd5b82602086016020830137600060208483010152809550505050505092959194509250565b6000806040838503121561106857600080fd5b61107183610e8a565b915061107f60208401610e8a565b90509250929050565b600181811c9082168061109c57607f821691505b6020821081036110bc57634e487b7160e01b600052602260045260246000fd5b50919050565b634e487b7160e01b600052601160045260246000fd5b6000828210156110ea576110ea6110c2565b500390565b60208082526031908201527f4552433732313a207472616e736665722063616c6c6572206973206e6f74206f6040820152701ddb995c881b9bdc88185c1c1c9bdd9959607a1b606082015260800190565b60008351611152818460208801610e06565b835190830190611166818360208801610e06565b01949350505050565b60008219821115611182576111826110c2565b500190565b60208082526032908201527f4552433732313a207472616e7366657220746f206e6f6e20455243373231526560408201527131b2b4bb32b91034b6b83632b6b2b73a32b960711b606082015260800190565b6000600182016111eb576111eb6110c2565b5060010190565b634e487b7160e01b600052601260045260246000fd5b600082611217576112176111f2565b500490565b60008261122b5761122b6111f2565b500690565b634e487b7160e01b600052603260045260246000fd5b6001600160a01b038581168252841660208201526040810183905260806060820181905260009061127990830184610e32565b9695505050505050565b60006020828403121561129557600080fd5b81516107c581610dd056fea2646970667358221220c56bf09d87986ef523c82d2e16134a6744fd0b32920be187f6220475637dfb7764736f6c634300080d0033",
  "linkReferences": {},
  "deployedLinkReferences": {}
}